{
  "_format": "hh-sol-artifact-1",
  "contractName": "GemNFT",
  "sourceName": "contracts/GemNFT.sol",
  "abi": [
    {
      "inputs": [],
      "stateMutability": "nonpayable",
      "type": "constructor"
    },
    {
      "anonymous": false,
      "inputs": [
        {
          "indexed": true,
          "internalType": "address",
          "name": "owner",
          "type": "address"
        },
        {
          "indexed": true,
          "internalType": "address",
          "name": "approved",
          "type": "address"
        },
        {
          "indexed": true,
          "internalType": "uint256",
          "name": "tokenId",
          "type": "uint256"
        }
      ],
      "name": "Approval",
      "type": "event"
    },
    {
      "anonymous": false,
      "inputs": [
        {
          "indexed": true,
          "internalType": "address",
          "name": "owner",
          "type": "address"
        },
        {
          "indexed": true,
          "internalType": "address",
          "name": "operator",
          "type": "address"
        },
        {
          "indexed": false,
          "internalType": "bool",
          "name": "approved",
          "type": "bool"
        }
      ],
      "name": "ApprovalForAll",
      "type": "event"
    },
    {
      "anonymous": false,
      "inputs": [
        {
          "indexed": false,
          "internalType": "uint256",
          "name": "tokenId",
          "type": "uint256"
        }
      ],
      "name": "BuyToken",
      "type": "event"
    },
    {
      "anonymous": false,
      "inputs": [],
      "name": "ClaimContractFunds",
      "type": "event"
    },
    {
      "anonymous": false,
      "inputs": [
        {
          "indexed": false,
          "internalType": "uint256",
          "name": "tokenId",
          "type": "uint256"
        },
        {
          "indexed": false,
          "internalType": "uint256",
          "name": "value",
          "type": "uint256"
        },
        {
          "indexed": false,
          "internalType": "address payable",
          "name": "owner",
          "type": "address"
        },
        {
          "indexed": false,
          "internalType": "address payable",
          "name": "seller",
          "type": "address"
        },
        {
          "indexed": false,
          "internalType": "bool",
          "name": "claimed",
          "type": "bool"
        }
      ],
      "name": "MarketTokenCreated",
      "type": "event"
    },
    {
      "anonymous": false,
      "inputs": [
        {
          "indexed": true,
          "internalType": "address",
          "name": "previousOwner",
          "type": "address"
        },
        {
          "indexed": true,
          "internalType": "address",
          "name": "newOwner",
          "type": "address"
        }
      ],
      "name": "OwnershipTransferred",
      "type": "event"
    },
    {
      "anonymous": false,
      "inputs": [
        {
          "indexed": true,
          "internalType": "address",
          "name": "creator",
          "type": "address"
        },
        {
          "indexed": false,
          "internalType": "uint256",
          "name": "tokenId",
          "type": "uint256"
        }
      ],
      "name": "TokenMinted",
      "type": "event"
    },
    {
      "anonymous": false,
      "inputs": [
        {
          "indexed": true,
          "internalType": "address",
          "name": "from",
          "type": "address"
        },
        {
          "indexed": true,
          "internalType": "address",
          "name": "to",
          "type": "address"
        },
        {
          "indexed": true,
          "internalType": "uint256",
          "name": "tokenId",
          "type": "uint256"
        }
      ],
      "name": "Transfer",
      "type": "event"
    },
    {
      "inputs": [],
      "name": "_marketTokensCount",
      "outputs": [
        {
          "internalType": "uint256",
          "name": "_value",
          "type": "uint256"
        }
      ],
      "stateMutability": "view",
      "type": "function"
    },
    {
      "inputs": [],
      "name": "_marketTokensSold",
      "outputs": [
        {
          "internalType": "uint256",
          "name": "_value",
          "type": "uint256"
        }
      ],
      "stateMutability": "view",
      "type": "function"
    },
    {
      "inputs": [
        {
          "internalType": "address",
          "name": "to",
          "type": "address"
        },
        {
          "internalType": "uint256",
          "name": "tokenId",
          "type": "uint256"
        }
      ],
      "name": "approve",
      "outputs": [],
      "stateMutability": "nonpayable",
      "type": "function"
    },
    {
      "inputs": [
        {
          "internalType": "address",
          "name": "owner",
          "type": "address"
        }
      ],
      "name": "balanceOf",
      "outputs": [
        {
          "internalType": "uint256",
          "name": "",
          "type": "uint256"
        }
      ],
      "stateMutability": "view",
      "type": "function"
    },
    {
      "inputs": [
        {
          "internalType": "uint256",
          "name": "tokenId",
          "type": "uint256"
        }
      ],
      "name": "buyTokenWithCoins",
      "outputs": [],
      "stateMutability": "nonpayable",
      "type": "function"
    },
    {
      "inputs": [
        {
          "internalType": "uint256",
          "name": "tokenId",
          "type": "uint256"
        }
      ],
      "name": "buyTokenWithFund",
      "outputs": [],
      "stateMutability": "payable",
      "type": "function"
    },
    {
      "inputs": [],
      "name": "claimContractFunds",
      "outputs": [],
      "stateMutability": "payable",
      "type": "function"
    },
    {
      "inputs": [],
      "name": "contractBalance",
      "outputs": [
        {
          "internalType": "uint256",
          "name": "",
          "type": "uint256"
        }
      ],
      "stateMutability": "view",
      "type": "function"
    },
    {
      "inputs": [],
      "name": "getAllMarketTokens",
      "outputs": [
        {
          "components": [
            {
              "internalType": "uint256",
              "name": "tokenId",
              "type": "uint256"
            },
            {
              "internalType": "uint256",
              "name": "value",
              "type": "uint256"
            },
            {
              "internalType": "address payable",
              "name": "owner",
              "type": "address"
            },
            {
              "internalType": "address payable",
              "name": "seller",
              "type": "address"
            },
            {
              "internalType": "bool",
              "name": "claimed",
              "type": "bool"
            }
          ],
          "internalType": "struct GemNFT.MarketToken[]",
          "name": "",
          "type": "tuple[]"
        }
      ],
      "stateMutability": "view",
      "type": "function"
    },
    {
      "inputs": [
        {
          "internalType": "uint256",
          "name": "tokenId",
          "type": "uint256"
        }
      ],
      "name": "getApproved",
      "outputs": [
        {
          "internalType": "address",
          "name": "",
          "type": "address"
        }
      ],
      "stateMutability": "view",
      "type": "function"
    },
    {
      "inputs": [],
      "name": "getCoinsBalance",
      "outputs": [
        {
          "internalType": "uint256",
          "name": "",
          "type": "uint256"
        }
      ],
      "stateMutability": "view",
      "type": "function"
    },
    {
      "inputs": [],
      "name": "getMyTokens",
      "outputs": [
        {
          "internalType": "uint256[]",
          "name": "",
          "type": "uint256[]"
        }
      ],
      "stateMutability": "view",
      "type": "function"
    },
    {
      "inputs": [],
      "name": "getPurchaseCount",
      "outputs": [
        {
          "internalType": "uint256",
          "name": "",
          "type": "uint256"
        }
      ],
      "stateMutability": "view",
      "type": "function"
    },
    {
      "inputs": [],
      "name": "getTokensLength",
      "outputs": [
        {
          "internalType": "uint256",
          "name": "",
          "type": "uint256"
        }
      ],
      "stateMutability": "view",
      "type": "function"
    },
    {
      "inputs": [
        {
          "internalType": "address",
          "name": "owner",
          "type": "address"
        },
        {
          "internalType": "address",
          "name": "operator",
          "type": "address"
        }
      ],
      "name": "isApprovedForAll",
      "outputs": [
        {
          "internalType": "bool",
          "name": "",
          "type": "bool"
        }
      ],
      "stateMutability": "view",
      "type": "function"
    },
    {
      "inputs": [
        {
          "internalType": "string",
          "name": "tokenURI",
          "type": "string"
        },
        {
          "internalType": "uint256",
          "name": "tokenValue",
          "type": "uint256"
        }
      ],
      "name": "mintToken",
      "outputs": [],
      "stateMutability": "nonpayable",
      "type": "function"
    },
    {
      "inputs": [],
      "name": "name",
      "outputs": [
        {
          "internalType": "string",
          "name": "",
          "type": "string"
        }
      ],
      "stateMutability": "view",
      "type": "function"
    },
    {
      "inputs": [],
      "name": "owner",
      "outputs": [
        {
          "internalType": "address",
          "name": "",
          "type": "address"
        }
      ],
      "stateMutability": "view",
      "type": "function"
    },
    {
      "inputs": [
        {
          "internalType": "uint256",
          "name": "tokenId",
          "type": "uint256"
        }
      ],
      "name": "ownerOf",
      "outputs": [
        {
          "internalType": "address",
          "name": "",
          "type": "address"
        }
      ],
      "stateMutability": "view",
      "type": "function"
    },
    {
      "inputs": [],
      "name": "renounceOwnership",
      "outputs": [],
      "stateMutability": "nonpayable",
      "type": "function"
    },
    {
      "inputs": [
        {
          "internalType": "address",
          "name": "from",
          "type": "address"
        },
        {
          "internalType": "address",
          "name": "to",
          "type": "address"
        },
        {
          "internalType": "uint256",
          "name": "tokenId",
          "type": "uint256"
        }
      ],
      "name": "safeTransferFrom",
      "outputs": [],
      "stateMutability": "nonpayable",
      "type": "function"
    },
    {
      "inputs": [
        {
          "internalType": "address",
          "name": "from",
          "type": "address"
        },
        {
          "internalType": "address",
          "name": "to",
          "type": "address"
        },
        {
          "internalType": "uint256",
          "name": "tokenId",
          "type": "uint256"
        },
        {
          "internalType": "bytes",
          "name": "_data",
          "type": "bytes"
        }
      ],
      "name": "safeTransferFrom",
      "outputs": [],
      "stateMutability": "nonpayable",
      "type": "function"
    },
    {
      "inputs": [
        {
          "internalType": "uint256",
          "name": "tokenId",
          "type": "uint256"
        },
        {
          "internalType": "uint256",
          "name": "tokenValue",
          "type": "uint256"
        }
      ],
      "name": "sendTokenToMarket",
      "outputs": [],
      "stateMutability": "nonpayable",
      "type": "function"
    },
    {
      "inputs": [
        {
          "internalType": "address",
          "name": "operator",
          "type": "address"
        },
        {
          "internalType": "bool",
          "name": "approved",
          "type": "bool"
        }
      ],
      "name": "setApprovalForAll",
      "outputs": [],
      "stateMutability": "nonpayable",
      "type": "function"
    },
    {
      "inputs": [
        {
          "internalType": "bytes4",
          "name": "interfaceId",
          "type": "bytes4"
        }
      ],
      "name": "supportsInterface",
      "outputs": [
        {
          "internalType": "bool",
          "name": "",
          "type": "bool"
        }
      ],
      "stateMutability": "view",
      "type": "function"
    },
    {
      "inputs": [],
      "name": "symbol",
      "outputs": [
        {
          "internalType": "string",
          "name": "",
          "type": "string"
        }
      ],
      "stateMutability": "view",
      "type": "function"
    },
    {
      "inputs": [
        {
          "internalType": "uint256",
          "name": "tokenId",
          "type": "uint256"
        }
      ],
      "name": "tokenInMarket",
      "outputs": [
        {
          "internalType": "bool",
          "name": "",
          "type": "bool"
        }
      ],
      "stateMutability": "view",
      "type": "function"
    },
    {
      "inputs": [
        {
          "internalType": "uint256",
          "name": "tokenId",
          "type": "uint256"
        }
      ],
      "name": "tokenURI",
      "outputs": [
        {
          "internalType": "string",
          "name": "",
          "type": "string"
        }
      ],
      "stateMutability": "view",
      "type": "function"
    },
    {
      "inputs": [
        {
          "internalType": "address",
          "name": "from",
          "type": "address"
        },
        {
          "internalType": "address",
          "name": "to",
          "type": "address"
        },
        {
          "internalType": "uint256",
          "name": "tokenId",
          "type": "uint256"
        }
      ],
      "name": "transferFrom",
      "outputs": [],
      "stateMutability": "nonpayable",
      "type": "function"
    },
    {
      "inputs": [
        {
          "internalType": "address",
          "name": "newOwner",
          "type": "address"
        }
      ],
      "name": "transferOwnership",
      "outputs": [],
      "stateMutability": "nonpayable",
      "type": "function"
    },
    {
      "stateMutability": "payable",
      "type": "receive"
    }
  ],
  "bytecode": "0x60806040523480156200001157600080fd5b506040518060400160405280600e81526020017f47656d20436f6c6c656374696f6e0000000000000000000000000000000000008152506040518060400160405280600381526020017f47454d0000000000000000000000000000000000000000000000000000000000815250816000908051906020019062000096929190620001eb565b508060019080519060200190620000af929190620001eb565b505050620000d2620000c66200011d60201b60201c565b6200012560201b60201c565b6064600c60003373ffffffffffffffffffffffffffffffffffffffff1673ffffffffffffffffffffffffffffffffffffffff1681526020019081526020016000208190555062000300565b600033905090565b6000600760009054906101000a900473ffffffffffffffffffffffffffffffffffffffff16905081600760006101000a81548173ffffffffffffffffffffffffffffffffffffffff021916908373ffffffffffffffffffffffffffffffffffffffff1602179055508173ffffffffffffffffffffffffffffffffffffffff168173ffffffffffffffffffffffffffffffffffffffff167f8be0079c531659141344cd1fd0a4f28419497f9722a3daafe3b4186f6b6457e060405160405180910390a35050565b828054620001f9906200029b565b90600052602060002090601f0160209004810192826200021d576000855562000269565b82601f106200023857805160ff191683800117855562000269565b8280016001018555821562000269579182015b82811115620002685782518255916020019190600101906200024b565b5b5090506200027891906200027c565b5090565b5b80821115620002975760008160009055506001016200027d565b5090565b60006002820490506001821680620002b457607f821691505b60208210811415620002cb57620002ca620002d1565b5b50919050565b7f4e487b7100000000000000000000000000000000000000000000000000000000600052602260045260246000fd5b6148ce80620003106000396000f3fe6080604052600436106101d15760003560e01c8063933db02d116100f7578063c046372c11610095578063e985e9c511610064578063e985e9c514610653578063f2fde38b14610690578063f8c95ae7146106b9578063f9a6f100146106e4576101d8565b8063c046372c146105a6578063c87b56dd146105cf578063cff4ab511461060c578063e23c806114610637576101d8565b8063b0c26ecf116100d1578063b0c26ecf146104ea578063b67c19e614610515578063b88d4fde14610552578063becd283f1461057b576101d8565b8063933db02d1461046b57806395d89b4114610496578063a22cb465146104c1576101d8565b80635b3b136a1161016f578063715018a61161013e578063715018a6146103d55780637f6a6a4e146103ec5780638b7afe2e146104155780638da5cb5b14610440576101d8565b80635b3b136a146103075780635cd0c10a146103325780636352211e1461035b57806370a0823114610398576101d8565b8063095ea7b3116101ab578063095ea7b314610282578063126d87df146102ab57806323b872dd146102b557806342842e0e146102de576101d8565b806301ffc9a7146101dd57806306fdde031461021a578063081812fc14610245576101d8565b366101d857005b600080fd5b3480156101e957600080fd5b5061020460048036038101906101ff91906132d3565b61070f565b6040516102119190613a36565b60405180910390f35b34801561022657600080fd5b5061022f6107f1565b60405161023c9190613a51565b60405180910390f35b34801561025157600080fd5b5061026c6004803603810190610267919061337d565b610883565b604051610279919061398b565b60405180910390f35b34801561028e57600080fd5b506102a960048036038101906102a49190613297565b610908565b005b6102b3610a20565b005b3480156102c157600080fd5b506102dc60048036038101906102d79190613191565b610b18565b005b3480156102ea57600080fd5b5061030560048036038101906103009190613191565b610b78565b005b34801561031357600080fd5b5061031c610b98565b6040516103299190613a14565b60405180910390f35b34801561033e57600080fd5b506103596004803603810190610354919061337d565b610cdb565b005b34801561036757600080fd5b50610382600480360381019061037d919061337d565b610fa4565b60405161038f919061398b565b60405180910390f35b3480156103a457600080fd5b506103bf60048036038101906103ba919061312c565b611056565b6040516103cc9190613d53565b60405180910390f35b3480156103e157600080fd5b506103ea61110e565b005b3480156103f857600080fd5b50610413600480360381019061040e91906133a6565b611196565b005b34801561042157600080fd5b5061042a6111fb565b6040516104379190613d53565b60405180910390f35b34801561044c57600080fd5b5061045561127f565b604051610462919061398b565b60405180910390f35b34801561047757600080fd5b506104806112a9565b60405161048d9190613d53565b60405180910390f35b3480156104a257600080fd5b506104ab6112f0565b6040516104b89190613a51565b60405180910390f35b3480156104cd57600080fd5b506104e860048036038101906104e3919061325b565b611382565b005b3480156104f657600080fd5b506104ff611398565b60405161050c9190613d53565b60405180910390f35b34801561052157600080fd5b5061053c6004803603810190610537919061337d565b6113a9565b6040516105499190613a36565b60405180910390f35b34801561055e57600080fd5b50610579600480360381019061057491906131e0565b61141f565b005b34801561058757600080fd5b50610590611481565b60405161059d9190613d53565b60405180910390f35b3480156105b257600080fd5b506105cd60048036038101906105c89190613325565b6114c8565b005b3480156105db57600080fd5b506105f660048036038101906105f1919061337d565b611655565b6040516106039190613a51565b60405180910390f35b34801561061857600080fd5b506106216117a7565b60405161062e9190613d53565b60405180910390f35b610651600480360381019061064c919061337d565b6117b3565b005b34801561065f57600080fd5b5061067a60048036038101906106759190613155565b6119e9565b6040516106879190613a36565b60405180910390f35b34801561069c57600080fd5b506106b760048036038101906106b2919061312c565b611a7d565b005b3480156106c557600080fd5b506106ce611b75565b6040516106db9190613d53565b60405180910390f35b3480156106f057600080fd5b506106f9611b81565b60405161070691906139f2565b60405180910390f35b60007f80ac58cd000000000000000000000000000000000000000000000000000000007bffffffffffffffffffffffffffffffffffffffffffffffffffffffff1916827bffffffffffffffffffffffffffffffffffffffffffffffffffffffff191614806107da57507f5b5e139f000000000000000000000000000000000000000000000000000000007bffffffffffffffffffffffffffffffffffffffffffffffffffffffff1916827bffffffffffffffffffffffffffffffffffffffffffffffffffffffff1916145b806107ea57506107e982611dad565b5b9050919050565b606060008054610800906140a9565b80601f016020809104026020016040519081016040528092919081815260200182805461082c906140a9565b80156108795780601f1061084e57610100808354040283529160200191610879565b820191906000526020600020905b81548152906001019060200180831161085c57829003601f168201915b5050505050905090565b600061088e82611e17565b6108cd576040517f08c379a00000000000000000000000000000000000000000000000000000000081526004016108c490613cb3565b60405180910390fd5b6004600083815260200190815260200160002060009054906101000a900473ffffffffffffffffffffffffffffffffffffffff169050919050565b600061091382610fa4565b90508073ffffffffffffffffffffffffffffffffffffffff168373ffffffffffffffffffffffffffffffffffffffff161415610984576040517f08c379a000000000000000000000000000000000000000000000000000000000815260040161097b90613d13565b60405180910390fd5b8073ffffffffffffffffffffffffffffffffffffffff166109a3611e83565b73ffffffffffffffffffffffffffffffffffffffff1614806109d257506109d1816109cc611e83565b6119e9565b5b610a11576040517f08c379a0000000000000000000000000000000000000000000000000000000008152600401610a0890613bd3565b60405180910390fd5b610a1b8383611e8b565b505050565b610a28611e83565b73ffffffffffffffffffffffffffffffffffffffff16610a4661127f565b73ffffffffffffffffffffffffffffffffffffffff1614610a9c576040517f08c379a0000000000000000000000000000000000000000000000000000000008152600401610a9390613cd3565b60405180910390fd5b3373ffffffffffffffffffffffffffffffffffffffff166108fc610abe6111fb565b9081150290604051600060405180830381858888f19350505050158015610ae9573d6000803e3d6000fd5b507f5aefc475d65558a6a18261c9a76aac2742aac845ae82a07a2e290ae976b3bd6b60405160405180910390a1565b610b29610b23611e83565b82611f44565b610b68576040517f08c379a0000000000000000000000000000000000000000000000000000000008152600401610b5f90613d33565b60405180910390fd5b610b73838383612022565b505050565b610b938383836040518060200160405280600081525061141f565b505050565b6060600080610ba76008612289565b90506000610bb433611056565b67ffffffffffffffff811115610bf3577f4e487b7100000000000000000000000000000000000000000000000000000000600052604160045260246000fd5b604051908082528060200260200182016040528015610c215781602001602082028036833780820191505090505b50905060005b82811015610cd1573373ffffffffffffffffffffffffffffffffffffffff16610c4f82610fa4565b73ffffffffffffffffffffffffffffffffffffffff161415610cc05780828581518110610ca5577f4e487b7100000000000000000000000000000000000000000000000000000000600052603260045260246000fd5b6020026020010181815250508380610cbc9061410c565b9450505b80610cca9061410c565b9050610c27565b5080935050505090565b600b600082815260200190815260200160002060030160009054906101000a900473ffffffffffffffffffffffffffffffffffffffff1673ffffffffffffffffffffffffffffffffffffffff163373ffffffffffffffffffffffffffffffffffffffff161415610d80576040517f08c379a0000000000000000000000000000000000000000000000000000000008152600401610d7790613bb3565b60405180910390fd5b600b600082815260200190815260200160002060010154600c60003373ffffffffffffffffffffffffffffffffffffffff1673ffffffffffffffffffffffffffffffffffffffff168152602001908152602001600020541015610e18576040517f08c379a0000000000000000000000000000000000000000000000000000000008152600401610e0f90613b53565b60405180910390fd5b600b600082815260200190815260200160002060010154600c60003373ffffffffffffffffffffffffffffffffffffffff1673ffffffffffffffffffffffffffffffffffffffff1681526020019081526020016000206000828254610e7d9190613fad565b92505081905550610e8e8133612297565b600d60003373ffffffffffffffffffffffffffffffffffffffff1673ffffffffffffffffffffffffffffffffffffffff1681526020019081526020016000206000815480929190610ede9061410c565b91905055506000600d60003373ffffffffffffffffffffffffffffffffffffffff1673ffffffffffffffffffffffffffffffffffffffff168152602001908152602001600020549050600081118015610f4357506000600582610f419190614155565b145b15610fa0576064600c60003373ffffffffffffffffffffffffffffffffffffffff1673ffffffffffffffffffffffffffffffffffffffff1681526020019081526020016000206000828254610f989190613ecc565b925050819055505b5050565b6000806002600084815260200190815260200160002060009054906101000a900473ffffffffffffffffffffffffffffffffffffffff169050600073ffffffffffffffffffffffffffffffffffffffff168173ffffffffffffffffffffffffffffffffffffffff16141561104d576040517f08c379a000000000000000000000000000000000000000000000000000000000815260040161104490613c13565b60405180910390fd5b80915050919050565b60008073ffffffffffffffffffffffffffffffffffffffff168273ffffffffffffffffffffffffffffffffffffffff1614156110c7576040517f08c379a00000000000000000000000000000000000000000000000000000000081526004016110be90613bf3565b60405180910390fd5b600360008373ffffffffffffffffffffffffffffffffffffffff1673ffffffffffffffffffffffffffffffffffffffff168152602001908152602001600020549050919050565b611116611e83565b73ffffffffffffffffffffffffffffffffffffffff1661113461127f565b73ffffffffffffffffffffffffffffffffffffffff161461118a576040517f08c379a000000000000000000000000000000000000000000000000000000000815260040161118190613cd3565b60405180910390fd5b61119460006123c1565b565b816111a081610fa4565b73ffffffffffffffffffffffffffffffffffffffff163373ffffffffffffffffffffffffffffffffffffffff16146111d757600080fd5b6111e18383612487565b6111eb600961263c565b6111f6333085612022565b505050565b6000611205611e83565b73ffffffffffffffffffffffffffffffffffffffff1661122361127f565b73ffffffffffffffffffffffffffffffffffffffff1614611279576040517f08c379a000000000000000000000000000000000000000000000000000000000815260040161127090613cd3565b60405180910390fd5b47905090565b6000600760009054906101000a900473ffffffffffffffffffffffffffffffffffffffff16905090565b6000600c60003373ffffffffffffffffffffffffffffffffffffffff1673ffffffffffffffffffffffffffffffffffffffff16815260200190815260200160002054905090565b6060600180546112ff906140a9565b80601f016020809104026020016040519081016040528092919081815260200182805461132b906140a9565b80156113785780601f1061134d57610100808354040283529160200191611378565b820191906000526020600020905b81548152906001019060200180831161135b57829003601f168201915b5050505050905090565b61139461138d611e83565b8383612652565b5050565b60006113a46008612289565b905090565b60006113b482611e17565b6113f3576040517f08c379a00000000000000000000000000000000000000000000000000000000081526004016113ea90613b93565b60405180910390fd5b600b600083815260200190815260200160002060030160149054906101000a900460ff16159050919050565b61143061142a611e83565b83611f44565b61146f576040517f08c379a000000000000000000000000000000000000000000000000000000000815260040161146690613d33565b60405180910390fd5b61147b848484846127bf565b50505050565b6000600d60003373ffffffffffffffffffffffffffffffffffffffff1673ffffffffffffffffffffffffffffffffffffffff16815260200190815260200160002054905090565b6114d0611e83565b73ffffffffffffffffffffffffffffffffffffffff166114ee61127f565b73ffffffffffffffffffffffffffffffffffffffff1614611544576040517f08c379a000000000000000000000000000000000000000000000000000000000815260040161153b90613cd3565b60405180910390fd5b60008111611587576040517f08c379a000000000000000000000000000000000000000000000000000000000815260040161157e90613c53565b60405180910390fd5b60006115936008612289565b905061159f600861263c565b6115a9338261281b565b6115f78185858080601f016020809104026020016040519081016040528093929190818152602001838380828437600081840152601f19601f82011690508083019250505050505050612839565b6116018183611196565b3373ffffffffffffffffffffffffffffffffffffffff167fb9144c96c86541f6fa89c9f2f02495cccf4b08cd6643e26d34ee00aa586558a8826040516116479190613d53565b60405180910390a250505050565b606061166082611e17565b61169f576040517f08c379a000000000000000000000000000000000000000000000000000000000815260040161169690613c93565b60405180910390fd5b60006006600084815260200190815260200160002080546116bf906140a9565b80601f01602080910402602001604051908101604052809291908181526020018280546116eb906140a9565b80156117385780601f1061170d57610100808354040283529160200191611738565b820191906000526020600020905b81548152906001019060200180831161171b57829003601f168201915b5050505050905060006117496128ad565b905060008151141561175f5781925050506117a2565b60008251111561179457808260405160200161177c929190613967565b604051602081830303815290604052925050506117a2565b61179d846128c4565b925050505b919050565b600a8060000154905081565b6000600b6000838152602001908152602001600020600101549050600b600083815260200190815260200160002060030160009054906101000a900473ffffffffffffffffffffffffffffffffffffffff1673ffffffffffffffffffffffffffffffffffffffff163373ffffffffffffffffffffffffffffffffffffffff161415611873576040517f08c379a000000000000000000000000000000000000000000000000000000000815260040161186a90613bb3565b60405180910390fd5b662386f26fc10000816118869190613f53565b3410156118c8576040517f08c379a00000000000000000000000000000000000000000000000000000000081526004016118bf90613a73565b60405180910390fd5b6118d28233612297565b600d60003373ffffffffffffffffffffffffffffffffffffffff1673ffffffffffffffffffffffffffffffffffffffff16815260200190815260200160002060008154809291906119229061410c565b91905055506000600d60003373ffffffffffffffffffffffffffffffffffffffff1673ffffffffffffffffffffffffffffffffffffffff168152602001908152602001600020549050600081118015611987575060006005826119859190614155565b145b156119e4576064600c60003373ffffffffffffffffffffffffffffffffffffffff1673ffffffffffffffffffffffffffffffffffffffff16815260200190815260200160002060008282546119dc9190613ecc565b925050819055505b505050565b6000600560008473ffffffffffffffffffffffffffffffffffffffff1673ffffffffffffffffffffffffffffffffffffffff16815260200190815260200160002060008373ffffffffffffffffffffffffffffffffffffffff1673ffffffffffffffffffffffffffffffffffffffff16815260200190815260200160002060009054906101000a900460ff16905092915050565b611a85611e83565b73ffffffffffffffffffffffffffffffffffffffff16611aa361127f565b73ffffffffffffffffffffffffffffffffffffffff1614611af9576040517f08c379a0000000000000000000000000000000000000000000000000000000008152600401611af090613cd3565b60405180910390fd5b600073ffffffffffffffffffffffffffffffffffffffff168173ffffffffffffffffffffffffffffffffffffffff161415611b69576040517f08c379a0000000000000000000000000000000000000000000000000000000008152600401611b6090613ab3565b60405180910390fd5b611b72816123c1565b50565b60098060000154905081565b60606000611b8f600a612289565b611b996009612289565b611ba39190613fad565b90506000808267ffffffffffffffff811115611be8577f4e487b7100000000000000000000000000000000000000000000000000000000600052604160045260246000fd5b604051908082528060200260200182016040528015611c2157816020015b611c0e612f11565b815260200190600190039081611c065790505b50905060005b611c316009612289565b811015611da357611c41816113a9565b15611d9257600b60008281526020019081526020016000206040518060a001604052908160008201548152602001600182015481526020016002820160009054906101000a900473ffffffffffffffffffffffffffffffffffffffff1673ffffffffffffffffffffffffffffffffffffffff1673ffffffffffffffffffffffffffffffffffffffff1681526020016003820160009054906101000a900473ffffffffffffffffffffffffffffffffffffffff1673ffffffffffffffffffffffffffffffffffffffff1673ffffffffffffffffffffffffffffffffffffffff1681526020016003820160149054906101000a900460ff161515151581525050828481518110611d78577f4e487b7100000000000000000000000000000000000000000000000000000000600052603260045260246000fd5b60200260200101819052508280611d8e9061410c565b9350505b80611d9c9061410c565b9050611c27565b5080935050505090565b60007f01ffc9a7000000000000000000000000000000000000000000000000000000007bffffffffffffffffffffffffffffffffffffffffffffffffffffffff1916827bffffffffffffffffffffffffffffffffffffffffffffffffffffffff1916149050919050565b60008073ffffffffffffffffffffffffffffffffffffffff166002600084815260200190815260200160002060009054906101000a900473ffffffffffffffffffffffffffffffffffffffff1673ffffffffffffffffffffffffffffffffffffffff1614159050919050565b600033905090565b816004600083815260200190815260200160002060006101000a81548173ffffffffffffffffffffffffffffffffffffffff021916908373ffffffffffffffffffffffffffffffffffffffff160217905550808273ffffffffffffffffffffffffffffffffffffffff16611efe83610fa4565b73ffffffffffffffffffffffffffffffffffffffff167f8c5be1e5ebec7d5bd14f71427d1e84f3dd0314c0f7b2291e5b200ac8c7c3b92560405160405180910390a45050565b6000611f4f82611e17565b611f8e576040517f08c379a0000000000000000000000000000000000000000000000000000000008152600401611f8590613b73565b60405180910390fd5b6000611f9983610fa4565b90508073ffffffffffffffffffffffffffffffffffffffff168473ffffffffffffffffffffffffffffffffffffffff161480611fdb5750611fda81856119e9565b5b8061201957508373ffffffffffffffffffffffffffffffffffffffff1661200184610883565b73ffffffffffffffffffffffffffffffffffffffff16145b91505092915050565b8273ffffffffffffffffffffffffffffffffffffffff1661204282610fa4565b73ffffffffffffffffffffffffffffffffffffffff1614612098576040517f08c379a000000000000000000000000000000000000000000000000000000000815260040161208f90613ad3565b60405180910390fd5b600073ffffffffffffffffffffffffffffffffffffffff168273ffffffffffffffffffffffffffffffffffffffff161415612108576040517f08c379a00000000000000000000000000000000000000000000000000000000081526004016120ff90613b13565b60405180910390fd5b61211383838361296b565b61211e600082611e8b565b6001600360008573ffffffffffffffffffffffffffffffffffffffff1673ffffffffffffffffffffffffffffffffffffffff168152602001908152602001600020600082825461216e9190613fad565b925050819055506001600360008473ffffffffffffffffffffffffffffffffffffffff1673ffffffffffffffffffffffffffffffffffffffff16815260200190815260200160002060008282546121c59190613ecc565b92505081905550816002600083815260200190815260200160002060006101000a81548173ffffffffffffffffffffffffffffffffffffffff021916908373ffffffffffffffffffffffffffffffffffffffff160217905550808273ffffffffffffffffffffffffffffffffffffffff168473ffffffffffffffffffffffffffffffffffffffff167fddf252ad1be2c89b69c2b068fc378daa952ba7f163c4a11628f55a4df523b3ef60405160405180910390a4612284838383612970565b505050565b600081600001549050919050565b6001600b600084815260200190815260200160002060030160146101000a81548160ff02191690831515021790555080600b600084815260200190815260200160002060020160006101000a81548173ffffffffffffffffffffffffffffffffffffffff021916908373ffffffffffffffffffffffffffffffffffffffff1602179055506000600b600084815260200190815260200160002060030160006101000a81548173ffffffffffffffffffffffffffffffffffffffff021916908373ffffffffffffffffffffffffffffffffffffffff16021790555061237b600a61263c565b612386308284612022565b7ffcb0368c1179fddb35b83cbadaddad92bea989131ade5eda5f4b30fa4ba75fe1826040516123b59190613d53565b60405180910390a15050565b6000600760009054906101000a900473ffffffffffffffffffffffffffffffffffffffff16905081600760006101000a81548173ffffffffffffffffffffffffffffffffffffffff021916908373ffffffffffffffffffffffffffffffffffffffff1602179055508173ffffffffffffffffffffffffffffffffffffffff168173ffffffffffffffffffffffffffffffffffffffff167f8be0079c531659141344cd1fd0a4f28419497f9722a3daafe3b4186f6b6457e060405160405180910390a35050565b600081116124ca576040517f08c379a00000000000000000000000000000000000000000000000000000000081526004016124c190613c53565b60405180910390fd5b6040518060a001604052808381526020018281526020013073ffffffffffffffffffffffffffffffffffffffff1681526020013373ffffffffffffffffffffffffffffffffffffffff16815260200160001515815250600b6000848152602001908152602001600020600082015181600001556020820151816001015560408201518160020160006101000a81548173ffffffffffffffffffffffffffffffffffffffff021916908373ffffffffffffffffffffffffffffffffffffffff16021790555060608201518160030160006101000a81548173ffffffffffffffffffffffffffffffffffffffff021916908373ffffffffffffffffffffffffffffffffffffffff16021790555060808201518160030160146101000a81548160ff0219169083151502179055509050507f51d29fe857aacbe7183bb66c287250e989b91b215435bb64e76319cc95425b22828230336000604051612630959493929190613d6e565b60405180910390a15050565b6001816000016000828254019250508190555050565b8173ffffffffffffffffffffffffffffffffffffffff168373ffffffffffffffffffffffffffffffffffffffff1614156126c1576040517f08c379a00000000000000000000000000000000000000000000000000000000081526004016126b890613b33565b60405180910390fd5b80600560008573ffffffffffffffffffffffffffffffffffffffff1673ffffffffffffffffffffffffffffffffffffffff16815260200190815260200160002060008473ffffffffffffffffffffffffffffffffffffffff1673ffffffffffffffffffffffffffffffffffffffff16815260200190815260200160002060006101000a81548160ff0219169083151502179055508173ffffffffffffffffffffffffffffffffffffffff168373ffffffffffffffffffffffffffffffffffffffff167f17307eab39ab6107e8899845ad3d59bd9653f200f220920489ca2b5937696c31836040516127b29190613a36565b60405180910390a3505050565b6127ca848484612022565b6127d684848484612975565b612815576040517f08c379a000000000000000000000000000000000000000000000000000000000815260040161280c90613a93565b60405180910390fd5b50505050565b612835828260405180602001604052806000815250612b0c565b5050565b61284282611e17565b612881576040517f08c379a000000000000000000000000000000000000000000000000000000000815260040161287890613c33565b60405180910390fd5b806006600084815260200190815260200160002090805190602001906128a8929190612f6e565b505050565b606060405180602001604052806000815250905090565b60606128cf82611e17565b61290e576040517f08c379a000000000000000000000000000000000000000000000000000000000815260040161290590613cf3565b60405180910390fd5b60006129186128ad565b905060008151116129385760405180602001604052806000815250612963565b8061294284612b67565b604051602001612953929190613967565b6040516020818303038152906040525b915050919050565b505050565b505050565b60006129968473ffffffffffffffffffffffffffffffffffffffff16612d14565b15612aff578373ffffffffffffffffffffffffffffffffffffffff1663150b7a026129bf611e83565b8786866040518563ffffffff1660e01b81526004016129e194939291906139a6565b602060405180830381600087803b1580156129fb57600080fd5b505af1925050508015612a2c57506040513d601f19601f82011682018060405250810190612a2991906132fc565b60015b612aaf573d8060008114612a5c576040519150601f19603f3d011682016040523d82523d6000602084013e612a61565b606091505b50600081511415612aa7576040517f08c379a0000000000000000000000000000000000000000000000000000000008152600401612a9e90613a93565b60405180910390fd5b805181602001fd5b63150b7a0260e01b7bffffffffffffffffffffffffffffffffffffffffffffffffffffffff1916817bffffffffffffffffffffffffffffffffffffffffffffffffffffffff191614915050612b04565b600190505b949350505050565b612b168383612d37565b612b236000848484612975565b612b62576040517f08c379a0000000000000000000000000000000000000000000000000000000008152600401612b5990613a93565b60405180910390fd5b505050565b60606000821415612baf576040518060400160405280600181526020017f30000000000000000000000000000000000000000000000000000000000000008152509050612d0f565b600082905060005b60008214612be1578080612bca9061410c565b915050600a82612bda9190613f22565b9150612bb7565b60008167ffffffffffffffff811115612c23577f4e487b7100000000000000000000000000000000000000000000000000000000600052604160045260246000fd5b6040519080825280601f01601f191660200182016040528015612c555781602001600182028036833780820191505090505b5090505b60008514612d0857600182612c6e9190613fad565b9150600a85612c7d9190614155565b6030612c899190613ecc565b60f81b818381518110612cc5577f4e487b7100000000000000000000000000000000000000000000000000000000600052603260045260246000fd5b60200101907effffffffffffffffffffffffffffffffffffffffffffffffffffffffffffff1916908160001a905350600a85612d019190613f22565b9450612c59565b8093505050505b919050565b6000808273ffffffffffffffffffffffffffffffffffffffff163b119050919050565b600073ffffffffffffffffffffffffffffffffffffffff168273ffffffffffffffffffffffffffffffffffffffff161415612da7576040517f08c379a0000000000000000000000000000000000000000000000000000000008152600401612d9e90613c73565b60405180910390fd5b612db081611e17565b15612df0576040517f08c379a0000000000000000000000000000000000000000000000000000000008152600401612de790613af3565b60405180910390fd5b612dfc6000838361296b565b6001600360008473ffffffffffffffffffffffffffffffffffffffff1673ffffffffffffffffffffffffffffffffffffffff1681526020019081526020016000206000828254612e4c9190613ecc565b92505081905550816002600083815260200190815260200160002060006101000a81548173ffffffffffffffffffffffffffffffffffffffff021916908373ffffffffffffffffffffffffffffffffffffffff160217905550808273ffffffffffffffffffffffffffffffffffffffff16600073ffffffffffffffffffffffffffffffffffffffff167fddf252ad1be2c89b69c2b068fc378daa952ba7f163c4a11628f55a4df523b3ef60405160405180910390a4612f0d60008383612970565b5050565b6040518060a001604052806000815260200160008152602001600073ffffffffffffffffffffffffffffffffffffffff168152602001600073ffffffffffffffffffffffffffffffffffffffff1681526020016000151581525090565b828054612f7a906140a9565b90600052602060002090601f016020900481019282612f9c5760008555612fe3565b82601f10612fb557805160ff1916838001178555612fe3565b82800160010185558215612fe3579182015b82811115612fe2578251825591602001919060010190612fc7565b5b509050612ff09190612ff4565b5090565b5b8082111561300d576000816000905550600101612ff5565b5090565b600061302461301f84613de6565b613dc1565b90508281526020810184848401111561303c57600080fd5b613047848285614067565b509392505050565b60008135905061305e8161483c565b92915050565b60008135905061307381614853565b92915050565b6000813590506130888161486a565b92915050565b60008151905061309d8161486a565b92915050565b600082601f8301126130b457600080fd5b81356130c4848260208601613011565b91505092915050565b60008083601f8401126130df57600080fd5b8235905067ffffffffffffffff8111156130f857600080fd5b60208301915083600182028301111561311057600080fd5b9250929050565b60008135905061312681614881565b92915050565b60006020828403121561313e57600080fd5b600061314c8482850161304f565b91505092915050565b6000806040838503121561316857600080fd5b60006131768582860161304f565b92505060206131878582860161304f565b9150509250929050565b6000806000606084860312156131a657600080fd5b60006131b48682870161304f565b93505060206131c58682870161304f565b92505060406131d686828701613117565b9150509250925092565b600080600080608085870312156131f657600080fd5b60006132048782880161304f565b94505060206132158782880161304f565b935050604061322687828801613117565b925050606085013567ffffffffffffffff81111561324357600080fd5b61324f878288016130a3565b91505092959194509250565b6000806040838503121561326e57600080fd5b600061327c8582860161304f565b925050602061328d85828601613064565b9150509250929050565b600080604083850312156132aa57600080fd5b60006132b88582860161304f565b92505060206132c985828601613117565b9150509250929050565b6000602082840312156132e557600080fd5b60006132f384828501613079565b91505092915050565b60006020828403121561330e57600080fd5b600061331c8482850161308e565b91505092915050565b60008060006040848603121561333a57600080fd5b600084013567ffffffffffffffff81111561335457600080fd5b613360868287016130cd565b9350935050602061337386828701613117565b9150509250925092565b60006020828403121561338f57600080fd5b600061339d84828501613117565b91505092915050565b600080604083850312156133b957600080fd5b60006133c785828601613117565b92505060206133d885828601613117565b9150509250929050565b60006133ee83836138e1565b60a08301905092915050565b60006134068383613949565b60208301905092915050565b61341b81613ff3565b82525050565b61342a81613ff3565b82525050565b61343981613fe1565b82525050565b600061344a82613e37565b6134548185613e7d565b935061345f83613e17565b8060005b8381101561349057815161347788826133e2565b975061348283613e63565b925050600181019050613463565b5085935050505092915050565b60006134a882613e42565b6134b28185613e8e565b93506134bd83613e27565b8060005b838110156134ee5781516134d588826133fa565b97506134e083613e70565b9250506001810190506134c1565b5085935050505092915050565b61350481614005565b82525050565b61351381614005565b82525050565b600061352482613e4d565b61352e8185613e9f565b935061353e818560208601614076565b61354781614242565b840191505092915050565b600061355d82613e58565b6135678185613eb0565b9350613577818560208601614076565b61358081614242565b840191505092915050565b600061359682613e58565b6135a08185613ec1565b93506135b0818560208601614076565b80840191505092915050565b60006135c9601d83613eb0565b91506135d482614253565b602082019050919050565b60006135ec603283613eb0565b91506135f78261427c565b604082019050919050565b600061360f602683613eb0565b915061361a826142cb565b604082019050919050565b6000613632602583613eb0565b915061363d8261431a565b604082019050919050565b6000613655601c83613eb0565b915061366082614369565b602082019050919050565b6000613678602483613eb0565b915061368382614392565b604082019050919050565b600061369b601983613eb0565b91506136a6826143e1565b602082019050919050565b60006136be601283613eb0565b91506136c98261440a565b602082019050919050565b60006136e1602c83613eb0565b91506136ec82614433565b604082019050919050565b6000613704602483613eb0565b915061370f82614482565b604082019050919050565b6000613727601b83613eb0565b9150613732826144d1565b602082019050919050565b600061374a603883613eb0565b9150613755826144fa565b604082019050919050565b600061376d602a83613eb0565b915061377882614549565b604082019050919050565b6000613790602983613eb0565b915061379b82614598565b604082019050919050565b60006137b3602e83613eb0565b91506137be826145e7565b604082019050919050565b60006137d6601383613eb0565b91506137e182614636565b602082019050919050565b60006137f9602083613eb0565b91506138048261465f565b602082019050919050565b600061381c603183613eb0565b915061382782614688565b604082019050919050565b600061383f602c83613eb0565b915061384a826146d7565b604082019050919050565b6000613862602083613eb0565b915061386d82614726565b602082019050919050565b6000613885602f83613eb0565b91506138908261474f565b604082019050919050565b60006138a8602183613eb0565b91506138b38261479e565b604082019050919050565b60006138cb603183613eb0565b91506138d6826147ed565b604082019050919050565b60a0820160008201516138f76000850182613949565b50602082015161390a6020850182613949565b50604082015161391d6040850182613412565b5060608201516139306060850182613412565b50608082015161394360808501826134fb565b50505050565b6139528161405d565b82525050565b6139618161405d565b82525050565b6000613973828561358b565b915061397f828461358b565b91508190509392505050565b60006020820190506139a06000830184613430565b92915050565b60006080820190506139bb6000830187613430565b6139c86020830186613430565b6139d56040830185613958565b81810360608301526139e78184613519565b905095945050505050565b60006020820190508181036000830152613a0c818461343f565b905092915050565b60006020820190508181036000830152613a2e818461349d565b905092915050565b6000602082019050613a4b600083018461350a565b92915050565b60006020820190508181036000830152613a6b8184613552565b905092915050565b60006020820190508181036000830152613a8c816135bc565b9050919050565b60006020820190508181036000830152613aac816135df565b9050919050565b60006020820190508181036000830152613acc81613602565b9050919050565b60006020820190508181036000830152613aec81613625565b9050919050565b60006020820190508181036000830152613b0c81613648565b9050919050565b60006020820190508181036000830152613b2c8161366b565b9050919050565b60006020820190508181036000830152613b4c8161368e565b9050919050565b60006020820190508181036000830152613b6c816136b1565b9050919050565b60006020820190508181036000830152613b8c816136d4565b9050919050565b60006020820190508181036000830152613bac816136f7565b9050919050565b60006020820190508181036000830152613bcc8161371a565b9050919050565b60006020820190508181036000830152613bec8161373d565b9050919050565b60006020820190508181036000830152613c0c81613760565b9050919050565b60006020820190508181036000830152613c2c81613783565b9050919050565b60006020820190508181036000830152613c4c816137a6565b9050919050565b60006020820190508181036000830152613c6c816137c9565b9050919050565b60006020820190508181036000830152613c8c816137ec565b9050919050565b60006020820190508181036000830152613cac8161380f565b9050919050565b60006020820190508181036000830152613ccc81613832565b9050919050565b60006020820190508181036000830152613cec81613855565b9050919050565b60006020820190508181036000830152613d0c81613878565b9050919050565b60006020820190508181036000830152613d2c8161389b565b9050919050565b60006020820190508181036000830152613d4c816138be565b9050919050565b6000602082019050613d686000830184613958565b92915050565b600060a082019050613d836000830188613958565b613d906020830187613958565b613d9d6040830186613421565b613daa6060830185613421565b613db7608083018461350a565b9695505050505050565b6000613dcb613ddc565b9050613dd782826140db565b919050565b6000604051905090565b600067ffffffffffffffff821115613e0157613e00614213565b5b613e0a82614242565b9050602081019050919050565b6000819050602082019050919050565b6000819050602082019050919050565b600081519050919050565b600081519050919050565b600081519050919050565b600081519050919050565b6000602082019050919050565b6000602082019050919050565b600082825260208201905092915050565b600082825260208201905092915050565b600082825260208201905092915050565b600082825260208201905092915050565b600081905092915050565b6000613ed78261405d565b9150613ee28361405d565b9250827fffffffffffffffffffffffffffffffffffffffffffffffffffffffffffffffff03821115613f1757613f16614186565b5b828201905092915050565b6000613f2d8261405d565b9150613f388361405d565b925082613f4857613f476141b5565b5b828204905092915050565b6000613f5e8261405d565b9150613f698361405d565b9250817fffffffffffffffffffffffffffffffffffffffffffffffffffffffffffffffff0483118215151615613fa257613fa1614186565b5b828202905092915050565b6000613fb88261405d565b9150613fc38361405d565b925082821015613fd657613fd5614186565b5b828203905092915050565b6000613fec8261403d565b9050919050565b6000613ffe8261403d565b9050919050565b60008115159050919050565b60007fffffffff0000000000000000000000000000000000000000000000000000000082169050919050565b600073ffffffffffffffffffffffffffffffffffffffff82169050919050565b6000819050919050565b82818337600083830152505050565b60005b83811015614094578082015181840152602081019050614079565b838111156140a3576000848401525b50505050565b600060028204905060018216806140c157607f821691505b602082108114156140d5576140d46141e4565b5b50919050565b6140e482614242565b810181811067ffffffffffffffff8211171561410357614102614213565b5b80604052505050565b60006141178261405d565b91507fffffffffffffffffffffffffffffffffffffffffffffffffffffffffffffffff82141561414a57614149614186565b5b600182019050919050565b60006141608261405d565b915061416b8361405d565b92508261417b5761417a6141b5565b5b828206905092915050565b7f4e487b7100000000000000000000000000000000000000000000000000000000600052601160045260246000fd5b7f4e487b7100000000000000000000000000000000000000000000000000000000600052601260045260246000fd5b7f4e487b7100000000000000000000000000000000000000000000000000000000600052602260045260246000fd5b7f4e487b7100000000000000000000000000000000000000000000000000000000600052604160045260246000fd5b6000601f19601f8301169050919050565b7f66756e6473206e6f7420656e6f75676820666f72207075726368617365000000600082015250565b7f4552433732313a207472616e7366657220746f206e6f6e20455243373231526560008201527f63656976657220696d706c656d656e7465720000000000000000000000000000602082015250565b7f4f776e61626c653a206e6577206f776e657220697320746865207a65726f206160008201527f6464726573730000000000000000000000000000000000000000000000000000602082015250565b7f4552433732313a207472616e736665722066726f6d20696e636f72726563742060008201527f6f776e6572000000000000000000000000000000000000000000000000000000602082015250565b7f4552433732313a20746f6b656e20616c7265616479206d696e74656400000000600082015250565b7f4552433732313a207472616e7366657220746f20746865207a65726f2061646460008201527f7265737300000000000000000000000000000000000000000000000000000000602082015250565b7f4552433732313a20617070726f766520746f2063616c6c657200000000000000600082015250565b7f696e73756666696369656e7420636f696e730000000000000000000000000000600082015250565b7f4552433732313a206f70657261746f7220717565727920666f72206e6f6e657860008201527f697374656e7420746f6b656e0000000000000000000000000000000000000000602082015250565b7f4f70657261746f7220717565727920666f72206e6f6e6578697374656e74207460008201527f6f6b656e00000000000000000000000000000000000000000000000000000000602082015250565b7f73656c6c65722063616e6e6f7420627579206f776e20746f6b656e0000000000600082015250565b7f4552433732313a20617070726f76652063616c6c6572206973206e6f74206f7760008201527f6e6572206e6f7220617070726f76656420666f7220616c6c0000000000000000602082015250565b7f4552433732313a2062616c616e636520717565727920666f7220746865207a6560008201527f726f206164647265737300000000000000000000000000000000000000000000602082015250565b7f4552433732313a206f776e657220717565727920666f72206e6f6e657869737460008201527f656e7420746f6b656e0000000000000000000000000000000000000000000000602082015250565b7f45524337323155524953746f726167653a2055524920736574206f66206e6f6e60008201527f6578697374656e7420746f6b656e000000000000000000000000000000000000602082015250565b7f746f6b656e2076616c756520746f6f206c6f7700000000000000000000000000600082015250565b7f4552433732313a206d696e7420746f20746865207a65726f2061646472657373600082015250565b7f45524337323155524953746f726167653a2055524920717565727920666f722060008201527f6e6f6e6578697374656e7420746f6b656e000000000000000000000000000000602082015250565b7f4552433732313a20617070726f76656420717565727920666f72206e6f6e657860008201527f697374656e7420746f6b656e0000000000000000000000000000000000000000602082015250565b7f4f776e61626c653a2063616c6c6572206973206e6f7420746865206f776e6572600082015250565b7f4552433732314d657461646174613a2055524920717565727920666f72206e6f60008201527f6e6578697374656e7420746f6b656e0000000000000000000000000000000000602082015250565b7f4552433732313a20617070726f76616c20746f2063757272656e74206f776e6560008201527f7200000000000000000000000000000000000000000000000000000000000000602082015250565b7f4552433732313a207472616e736665722063616c6c6572206973206e6f74206f60008201527f776e6572206e6f7220617070726f766564000000000000000000000000000000602082015250565b61484581613fe1565b811461485057600080fd5b50565b61485c81614005565b811461486757600080fd5b50565b61487381614011565b811461487e57600080fd5b50565b61488a8161405d565b811461489557600080fd5b5056fea26469706673582212208548de4503bea7cdd6d00ab87459ac9823c3d27229ab176516aa1e4c281620de64736f6c63430008040033",
  "linkReferences": {},
  "deployedLinkReferences": {}
}