{
  "_format": "hh-sol-artifact-1",
  "contractName": "GemNFT",
  "sourceName": "contracts/GemNFT.sol",
  "abi": [
    {
      "inputs": [],
      "stateMutability": "nonpayable",
      "type": "constructor"
    },
    {
      "anonymous": false,
      "inputs": [
        {
          "indexed": true,
          "internalType": "address",
          "name": "owner",
          "type": "address"
        },
        {
          "indexed": true,
          "internalType": "address",
          "name": "approved",
          "type": "address"
        },
        {
          "indexed": true,
          "internalType": "uint256",
          "name": "tokenId",
          "type": "uint256"
        }
      ],
      "name": "Approval",
      "type": "event"
    },
    {
      "anonymous": false,
      "inputs": [
        {
          "indexed": true,
          "internalType": "address",
          "name": "owner",
          "type": "address"
        },
        {
          "indexed": true,
          "internalType": "address",
          "name": "operator",
          "type": "address"
        },
        {
          "indexed": false,
          "internalType": "bool",
          "name": "approved",
          "type": "bool"
        }
      ],
      "name": "ApprovalForAll",
      "type": "event"
    },
    {
      "anonymous": false,
      "inputs": [
        {
          "indexed": false,
          "internalType": "uint256",
          "name": "tokenId",
          "type": "uint256"
        },
        {
          "indexed": false,
          "internalType": "uint256",
          "name": "value",
          "type": "uint256"
        },
        {
          "indexed": false,
          "internalType": "address payable",
          "name": "owner",
          "type": "address"
        },
        {
          "indexed": false,
          "internalType": "address payable",
          "name": "seller",
          "type": "address"
        },
        {
          "indexed": false,
          "internalType": "bool",
          "name": "claimed",
          "type": "bool"
        }
      ],
      "name": "MarketTokenCreated",
      "type": "event"
    },
    {
      "anonymous": false,
      "inputs": [
        {
          "indexed": true,
          "internalType": "address",
          "name": "previousOwner",
          "type": "address"
        },
        {
          "indexed": true,
          "internalType": "address",
          "name": "newOwner",
          "type": "address"
        }
      ],
      "name": "OwnershipTransferred",
      "type": "event"
    },
    {
      "anonymous": false,
      "inputs": [
        {
          "indexed": true,
          "internalType": "address",
          "name": "creator",
          "type": "address"
        },
        {
          "indexed": false,
          "internalType": "uint256",
          "name": "tokenId",
          "type": "uint256"
        }
      ],
      "name": "TokenMinted",
      "type": "event"
    },
    {
      "anonymous": false,
      "inputs": [
        {
          "indexed": true,
          "internalType": "address",
          "name": "from",
          "type": "address"
        },
        {
          "indexed": true,
          "internalType": "address",
          "name": "to",
          "type": "address"
        },
        {
          "indexed": true,
          "internalType": "uint256",
          "name": "tokenId",
          "type": "uint256"
        }
      ],
      "name": "Transfer",
      "type": "event"
    },
    {
      "inputs": [],
      "name": "_marketTokensCount",
      "outputs": [
        {
          "internalType": "uint256",
          "name": "_value",
          "type": "uint256"
        }
      ],
      "stateMutability": "view",
      "type": "function"
    },
    {
      "inputs": [],
      "name": "_marketTokensSold",
      "outputs": [
        {
          "internalType": "uint256",
          "name": "_value",
          "type": "uint256"
        }
      ],
      "stateMutability": "view",
      "type": "function"
    },
    {
      "inputs": [
        {
          "internalType": "address",
          "name": "to",
          "type": "address"
        },
        {
          "internalType": "uint256",
          "name": "tokenId",
          "type": "uint256"
        }
      ],
      "name": "approve",
      "outputs": [],
      "stateMutability": "nonpayable",
      "type": "function"
    },
    {
      "inputs": [
        {
          "internalType": "address",
          "name": "owner",
          "type": "address"
        }
      ],
      "name": "balanceOf",
      "outputs": [
        {
          "internalType": "uint256",
          "name": "",
          "type": "uint256"
        }
      ],
      "stateMutability": "view",
      "type": "function"
    },
    {
      "inputs": [
        {
          "internalType": "uint256",
          "name": "qty",
          "type": "uint256"
        }
      ],
      "name": "buyPoints",
      "outputs": [],
      "stateMutability": "payable",
      "type": "function"
    },
    {
      "inputs": [
        {
          "internalType": "uint256",
          "name": "tokenId",
          "type": "uint256"
        }
      ],
      "name": "buyToken",
      "outputs": [],
      "stateMutability": "nonpayable",
      "type": "function"
    },
    {
      "inputs": [],
      "name": "claimContractFunds",
      "outputs": [],
      "stateMutability": "payable",
      "type": "function"
    },
    {
      "inputs": [
        {
          "internalType": "uint256",
          "name": "points",
          "type": "uint256"
        }
      ],
      "name": "claimPoints",
      "outputs": [],
      "stateMutability": "nonpayable",
      "type": "function"
    },
    {
      "inputs": [],
      "name": "contractBalance",
      "outputs": [
        {
          "internalType": "uint256",
          "name": "",
          "type": "uint256"
        }
      ],
      "stateMutability": "view",
      "type": "function"
    },
    {
      "inputs": [],
      "name": "getAllMarketTokens",
      "outputs": [
        {
          "components": [
            {
              "internalType": "uint256",
              "name": "tokenId",
              "type": "uint256"
            },
            {
              "internalType": "uint256",
              "name": "value",
              "type": "uint256"
            },
            {
              "internalType": "address payable",
              "name": "owner",
              "type": "address"
            },
            {
              "internalType": "address payable",
              "name": "seller",
              "type": "address"
            },
            {
              "internalType": "bool",
              "name": "claimed",
              "type": "bool"
            }
          ],
          "internalType": "struct GemNFT.MarketToken[]",
          "name": "",
          "type": "tuple[]"
        }
      ],
      "stateMutability": "view",
      "type": "function"
    },
    {
      "inputs": [
        {
          "internalType": "uint256",
          "name": "tokenId",
          "type": "uint256"
        }
      ],
      "name": "getApproved",
      "outputs": [
        {
          "internalType": "address",
          "name": "",
          "type": "address"
        }
      ],
      "stateMutability": "view",
      "type": "function"
    },
    {
      "inputs": [],
      "name": "getMyTokens",
      "outputs": [
        {
          "internalType": "uint256[]",
          "name": "",
          "type": "uint256[]"
        }
      ],
      "stateMutability": "view",
      "type": "function"
    },
    {
      "inputs": [],
      "name": "getPointsBalance",
      "outputs": [
        {
          "internalType": "uint256",
          "name": "",
          "type": "uint256"
        }
      ],
      "stateMutability": "view",
      "type": "function"
    },
    {
      "inputs": [],
      "name": "getTokensLength",
      "outputs": [
        {
          "internalType": "uint256",
          "name": "",
          "type": "uint256"
        }
      ],
      "stateMutability": "view",
      "type": "function"
    },
    {
      "inputs": [
        {
          "internalType": "address",
          "name": "owner",
          "type": "address"
        },
        {
          "internalType": "address",
          "name": "operator",
          "type": "address"
        }
      ],
      "name": "isApprovedForAll",
      "outputs": [
        {
          "internalType": "bool",
          "name": "",
          "type": "bool"
        }
      ],
      "stateMutability": "view",
      "type": "function"
    },
    {
      "inputs": [
        {
          "internalType": "string",
          "name": "tokenURI",
          "type": "string"
        },
        {
          "internalType": "uint256",
          "name": "tokenValue",
          "type": "uint256"
        }
      ],
      "name": "mintToken",
      "outputs": [],
      "stateMutability": "nonpayable",
      "type": "function"
    },
    {
      "inputs": [],
      "name": "name",
      "outputs": [
        {
          "internalType": "string",
          "name": "",
          "type": "string"
        }
      ],
      "stateMutability": "view",
      "type": "function"
    },
    {
      "inputs": [],
      "name": "owner",
      "outputs": [
        {
          "internalType": "address",
          "name": "",
          "type": "address"
        }
      ],
      "stateMutability": "view",
      "type": "function"
    },
    {
      "inputs": [
        {
          "internalType": "uint256",
          "name": "tokenId",
          "type": "uint256"
        }
      ],
      "name": "ownerOf",
      "outputs": [
        {
          "internalType": "address",
          "name": "",
          "type": "address"
        }
      ],
      "stateMutability": "view",
      "type": "function"
    },
    {
      "inputs": [],
      "name": "renounceOwnership",
      "outputs": [],
      "stateMutability": "nonpayable",
      "type": "function"
    },
    {
      "inputs": [
        {
          "internalType": "address",
          "name": "from",
          "type": "address"
        },
        {
          "internalType": "address",
          "name": "to",
          "type": "address"
        },
        {
          "internalType": "uint256",
          "name": "tokenId",
          "type": "uint256"
        }
      ],
      "name": "safeTransferFrom",
      "outputs": [],
      "stateMutability": "nonpayable",
      "type": "function"
    },
    {
      "inputs": [
        {
          "internalType": "address",
          "name": "from",
          "type": "address"
        },
        {
          "internalType": "address",
          "name": "to",
          "type": "address"
        },
        {
          "internalType": "uint256",
          "name": "tokenId",
          "type": "uint256"
        },
        {
          "internalType": "bytes",
          "name": "_data",
          "type": "bytes"
        }
      ],
      "name": "safeTransferFrom",
      "outputs": [],
      "stateMutability": "nonpayable",
      "type": "function"
    },
    {
      "inputs": [
        {
          "internalType": "uint256",
          "name": "tokenId",
          "type": "uint256"
        },
        {
          "internalType": "uint256",
          "name": "tokenValue",
          "type": "uint256"
        }
      ],
      "name": "sendTokenToMarket",
      "outputs": [],
      "stateMutability": "nonpayable",
      "type": "function"
    },
    {
      "inputs": [
        {
          "internalType": "address",
          "name": "operator",
          "type": "address"
        },
        {
          "internalType": "bool",
          "name": "approved",
          "type": "bool"
        }
      ],
      "name": "setApprovalForAll",
      "outputs": [],
      "stateMutability": "nonpayable",
      "type": "function"
    },
    {
      "inputs": [
        {
          "internalType": "bytes4",
          "name": "interfaceId",
          "type": "bytes4"
        }
      ],
      "name": "supportsInterface",
      "outputs": [
        {
          "internalType": "bool",
          "name": "",
          "type": "bool"
        }
      ],
      "stateMutability": "view",
      "type": "function"
    },
    {
      "inputs": [],
      "name": "symbol",
      "outputs": [
        {
          "internalType": "string",
          "name": "",
          "type": "string"
        }
      ],
      "stateMutability": "view",
      "type": "function"
    },
    {
      "inputs": [
        {
          "internalType": "uint256",
          "name": "tokenId",
          "type": "uint256"
        }
      ],
      "name": "tokenInMarket",
      "outputs": [
        {
          "internalType": "bool",
          "name": "",
          "type": "bool"
        }
      ],
      "stateMutability": "view",
      "type": "function"
    },
    {
      "inputs": [
        {
          "internalType": "uint256",
          "name": "tokenId",
          "type": "uint256"
        }
      ],
      "name": "tokenURI",
      "outputs": [
        {
          "internalType": "string",
          "name": "",
          "type": "string"
        }
      ],
      "stateMutability": "view",
      "type": "function"
    },
    {
      "inputs": [
        {
          "internalType": "address",
          "name": "from",
          "type": "address"
        },
        {
          "internalType": "address",
          "name": "to",
          "type": "address"
        },
        {
          "internalType": "uint256",
          "name": "tokenId",
          "type": "uint256"
        }
      ],
      "name": "transferFrom",
      "outputs": [],
      "stateMutability": "nonpayable",
      "type": "function"
    },
    {
      "inputs": [
        {
          "internalType": "address",
          "name": "newOwner",
          "type": "address"
        }
      ],
      "name": "transferOwnership",
      "outputs": [],
      "stateMutability": "nonpayable",
      "type": "function"
    },
    {
      "stateMutability": "payable",
      "type": "receive"
    }
  ],
  "bytecode": "0x60806040523480156200001157600080fd5b506040518060400160405280600f81526020017f47656d7320436f6c6c656374696f6e00000000000000000000000000000000008152506040518060400160405280600381526020017f47454d0000000000000000000000000000000000000000000000000000000000815250816000908051906020019062000096929190620001a6565b508060019080519060200190620000af929190620001a6565b505050620000d2620000c6620000d860201b60201c565b620000e060201b60201c565b620002bb565b600033905090565b6000600760009054906101000a900473ffffffffffffffffffffffffffffffffffffffff16905081600760006101000a81548173ffffffffffffffffffffffffffffffffffffffff021916908373ffffffffffffffffffffffffffffffffffffffff1602179055508173ffffffffffffffffffffffffffffffffffffffff168173ffffffffffffffffffffffffffffffffffffffff167f8be0079c531659141344cd1fd0a4f28419497f9722a3daafe3b4186f6b6457e060405160405180910390a35050565b828054620001b49062000256565b90600052602060002090601f016020900481019282620001d8576000855562000224565b82601f10620001f357805160ff191683800117855562000224565b8280016001018555821562000224579182015b828111156200022357825182559160200191906001019062000206565b5b50905062000233919062000237565b5090565b5b808211156200025257600081600090555060010162000238565b5090565b600060028204905060018216806200026f57607f821691505b602082108114156200028657620002856200028c565b5b50919050565b7f4e487b7100000000000000000000000000000000000000000000000000000000600052602260045260246000fd5b61480180620002cb6000396000f3fe6080604052600436106101d15760003560e01c80638b7afe2e116100f7578063b88d4fde11610095578063e985e9c511610064578063e985e9c514610651578063f2fde38b1461068e578063f8c95ae7146106b7578063f9a6f100146106e2576101d8565b8063b88d4fde14610597578063c046372c146105c0578063c87b56dd146105e9578063cff4ab5114610626576101d8565b806395d89b41116100d157806395d89b41146104db578063a22cb46514610506578063b0c26ecf1461052f578063b67c19e61461055a576101d8565b80638b7afe2e1461045a5780638da5cb5b146104855780638eb89a61146104b0576101d8565b80633ac795de1161016f5780636352211e1161013e5780636352211e146103a057806370a08231146103dd578063715018a61461041a5780637f6a6a4e14610431576101d8565b80633ac795de1461030757806342842e0e1461033057806358c9e484146103595780635b3b136a14610375576101d8565b8063095ea7b3116101ab578063095ea7b314610282578063126d87df146102ab57806323b872dd146102b55780632d296bf1146102de576101d8565b806301ffc9a7146101dd57806306fdde031461021a578063081812fc14610245576101d8565b366101d857005b600080fd5b3480156101e957600080fd5b5061020460048036038101906101ff919061312e565b61070d565b60405161021191906138d7565b60405180910390f35b34801561022657600080fd5b5061022f6107ef565b60405161023c91906138f2565b60405180910390f35b34801561025157600080fd5b5061026c600480360381019061026791906131d8565b610881565b604051610279919061382c565b60405180910390f35b34801561028e57600080fd5b506102a960048036038101906102a491906130f2565b610906565b005b6102b3610a1e565b005b3480156102c157600080fd5b506102dc60048036038101906102d79190612fec565b610aea565b005b3480156102ea57600080fd5b50610305600480360381019061030091906131d8565b610b4a565b005b34801561031357600080fd5b5061032e600480360381019061032991906131d8565b610ea9565b005b34801561033c57600080fd5b5061035760048036038101906103529190612fec565b610f02565b005b610373600480360381019061036e91906131d8565b610f22565b005b34801561038157600080fd5b5061038a610fd1565b60405161039791906138b5565b60405180910390f35b3480156103ac57600080fd5b506103c760048036038101906103c291906131d8565b611114565b6040516103d4919061382c565b60405180910390f35b3480156103e957600080fd5b5061040460048036038101906103ff9190612f87565b6111c6565b6040516104119190613c34565b60405180910390f35b34801561042657600080fd5b5061042f61127e565b005b34801561043d57600080fd5b5061045860048036038101906104539190613201565b611306565b005b34801561046657600080fd5b5061046f611387565b60405161047c9190613c34565b60405180910390f35b34801561049157600080fd5b5061049a61140b565b6040516104a7919061382c565b60405180910390f35b3480156104bc57600080fd5b506104c5611435565b6040516104d29190613c34565b60405180910390f35b3480156104e757600080fd5b506104f061147c565b6040516104fd91906138f2565b60405180910390f35b34801561051257600080fd5b5061052d600480360381019061052891906130b6565b61150e565b005b34801561053b57600080fd5b50610544611524565b6040516105519190613c34565b60405180910390f35b34801561056657600080fd5b50610581600480360381019061057c91906131d8565b611535565b60405161058e91906138d7565b60405180910390f35b3480156105a357600080fd5b506105be60048036038101906105b9919061303b565b6115ab565b005b3480156105cc57600080fd5b506105e760048036038101906105e29190613180565b61160d565b005b3480156105f557600080fd5b50610610600480360381019061060b91906131d8565b61179a565b60405161061d91906138f2565b60405180910390f35b34801561063257600080fd5b5061063b6118ec565b6040516106489190613c34565b60405180910390f35b34801561065d57600080fd5b5061067860048036038101906106739190612fb0565b6118f8565b60405161068591906138d7565b60405180910390f35b34801561069a57600080fd5b506106b560048036038101906106b09190612f87565b61198c565b005b3480156106c357600080fd5b506106cc611a84565b6040516106d99190613c34565b60405180910390f35b3480156106ee57600080fd5b506106f7611a90565b6040516107049190613893565b60405180910390f35b60007f80ac58cd000000000000000000000000000000000000000000000000000000007bffffffffffffffffffffffffffffffffffffffffffffffffffffffff1916827bffffffffffffffffffffffffffffffffffffffffffffffffffffffff191614806107d857507f5b5e139f000000000000000000000000000000000000000000000000000000007bffffffffffffffffffffffffffffffffffffffffffffffffffffffff1916827bffffffffffffffffffffffffffffffffffffffffffffffffffffffff1916145b806107e857506107e782611cd6565b5b9050919050565b6060600080546107fe90613f8a565b80601f016020809104026020016040519081016040528092919081815260200182805461082a90613f8a565b80156108775780601f1061084c57610100808354040283529160200191610877565b820191906000526020600020905b81548152906001019060200180831161085a57829003601f168201915b5050505050905090565b600061088c82611d40565b6108cb576040517f08c379a00000000000000000000000000000000000000000000000000000000081526004016108c290613b14565b60405180910390fd5b6004600083815260200190815260200160002060009054906101000a900473ffffffffffffffffffffffffffffffffffffffff169050919050565b600061091182611114565b90508073ffffffffffffffffffffffffffffffffffffffff168373ffffffffffffffffffffffffffffffffffffffff161415610982576040517f08c379a000000000000000000000000000000000000000000000000000000000815260040161097990613b74565b60405180910390fd5b8073ffffffffffffffffffffffffffffffffffffffff166109a1611dac565b73ffffffffffffffffffffffffffffffffffffffff1614806109d057506109cf816109ca611dac565b6118f8565b5b610a0f576040517f08c379a0000000000000000000000000000000000000000000000000000000008152600401610a0690613a34565b60405180910390fd5b610a198383611db4565b505050565b610a26611dac565b73ffffffffffffffffffffffffffffffffffffffff16610a4461140b565b73ffffffffffffffffffffffffffffffffffffffff1614610a9a576040517f08c379a0000000000000000000000000000000000000000000000000000000008152600401610a9190613b34565b60405180910390fd5b3373ffffffffffffffffffffffffffffffffffffffff166108fc610abc611387565b9081150290604051600060405180830381858888f19350505050158015610ae7573d6000803e3d6000fd5b50565b610afb610af5611dac565b82611e6d565b610b3a576040517f08c379a0000000000000000000000000000000000000000000000000000000008152600401610b3190613c14565b60405180910390fd5b610b45838383611f4b565b505050565b600b600082815260200190815260200160002060030160009054906101000a900473ffffffffffffffffffffffffffffffffffffffff1673ffffffffffffffffffffffffffffffffffffffff163373ffffffffffffffffffffffffffffffffffffffff161415610bef576040517f08c379a0000000000000000000000000000000000000000000000000000000008152600401610be690613b94565b60405180910390fd5b600b600082815260200190815260200160002060010154600c60003373ffffffffffffffffffffffffffffffffffffffff1673ffffffffffffffffffffffffffffffffffffffff168152602001908152602001600020541015610c87576040517f08c379a0000000000000000000000000000000000000000000000000000000008152600401610c7e90613bb4565b60405180910390fd5b6000600b600083815260200190815260200160002060030160009054906101000a900473ffffffffffffffffffffffffffffffffffffffff169050600b600083815260200190815260200160002060010154600c60003373ffffffffffffffffffffffffffffffffffffffff1673ffffffffffffffffffffffffffffffffffffffff1681526020019081526020016000206000828254610d279190613e8e565b92505081905550600b600083815260200190815260200160002060010154600c60008373ffffffffffffffffffffffffffffffffffffffff1673ffffffffffffffffffffffffffffffffffffffff1681526020019081526020016000206000828254610d939190613dad565b925050819055506001600b600084815260200190815260200160002060030160146101000a81548160ff02191690831515021790555033600b600084815260200190815260200160002060020160006101000a81548173ffffffffffffffffffffffffffffffffffffffff021916908373ffffffffffffffffffffffffffffffffffffffff1602179055506000600b600084815260200190815260200160002060030160006101000a81548173ffffffffffffffffffffffffffffffffffffffff021916908373ffffffffffffffffffffffffffffffffffffffff1602179055506000610e8060096121b2565b14610e9057610e8f60096121c0565b5b610e9a600a61221c565b610ea5303384611f4b565b5050565b80600c60003373ffffffffffffffffffffffffffffffffffffffff1673ffffffffffffffffffffffffffffffffffffffff1681526020019081526020016000206000828254610ef89190613dad565b9250508190555050565b610f1d838383604051806020016040528060008152506115ab565b505050565b67016345785d8a000081610f369190613e34565b341015610f78576040517f08c379a0000000000000000000000000000000000000000000000000000000008152600401610f6f90613bd4565b60405180910390fd5b80600c60003373ffffffffffffffffffffffffffffffffffffffff1673ffffffffffffffffffffffffffffffffffffffff1681526020019081526020016000206000828254610fc79190613dad565b9250508190555050565b6060600080610fe060086121b2565b90506000610fed336111c6565b67ffffffffffffffff81111561102c577f4e487b7100000000000000000000000000000000000000000000000000000000600052604160045260246000fd5b60405190808252806020026020018201604052801561105a5781602001602082028036833780820191505090505b50905060005b8281101561110a573373ffffffffffffffffffffffffffffffffffffffff1661108882611114565b73ffffffffffffffffffffffffffffffffffffffff1614156110f957808285815181106110de577f4e487b7100000000000000000000000000000000000000000000000000000000600052603260045260246000fd5b60200260200101818152505083806110f590613fed565b9450505b8061110390613fed565b9050611060565b5080935050505090565b6000806002600084815260200190815260200160002060009054906101000a900473ffffffffffffffffffffffffffffffffffffffff169050600073ffffffffffffffffffffffffffffffffffffffff168173ffffffffffffffffffffffffffffffffffffffff1614156111bd576040517f08c379a00000000000000000000000000000000000000000000000000000000081526004016111b490613a74565b60405180910390fd5b80915050919050565b60008073ffffffffffffffffffffffffffffffffffffffff168273ffffffffffffffffffffffffffffffffffffffff161415611237576040517f08c379a000000000000000000000000000000000000000000000000000000000815260040161122e90613a54565b60405180910390fd5b600360008373ffffffffffffffffffffffffffffffffffffffff1673ffffffffffffffffffffffffffffffffffffffff168152602001908152602001600020549050919050565b611286611dac565b73ffffffffffffffffffffffffffffffffffffffff166112a461140b565b73ffffffffffffffffffffffffffffffffffffffff16146112fa576040517f08c379a00000000000000000000000000000000000000000000000000000000081526004016112f190613b34565b60405180910390fd5b6113046000612232565b565b8161131081611114565b73ffffffffffffffffffffffffffffffffffffffff163373ffffffffffffffffffffffffffffffffffffffff161461134757600080fd5b61135183836122f8565b61135b600961221c565b6000611367600a6121b2565b1461137757611376600a6121c0565b5b611382333085611f4b565b505050565b6000611391611dac565b73ffffffffffffffffffffffffffffffffffffffff166113af61140b565b73ffffffffffffffffffffffffffffffffffffffff1614611405576040517f08c379a00000000000000000000000000000000000000000000000000000000081526004016113fc90613b34565b60405180910390fd5b47905090565b6000600760009054906101000a900473ffffffffffffffffffffffffffffffffffffffff16905090565b6000600c60003373ffffffffffffffffffffffffffffffffffffffff1673ffffffffffffffffffffffffffffffffffffffff16815260200190815260200160002054905090565b60606001805461148b90613f8a565b80601f01602080910402602001604051908101604052809291908181526020018280546114b790613f8a565b80156115045780601f106114d957610100808354040283529160200191611504565b820191906000526020600020905b8154815290600101906020018083116114e757829003601f168201915b5050505050905090565b611520611519611dac565b83836124ad565b5050565b600061153060086121b2565b905090565b600061154082611d40565b61157f576040517f08c379a000000000000000000000000000000000000000000000000000000000815260040161157690613a14565b60405180910390fd5b600b600083815260200190815260200160002060030160149054906101000a900460ff16159050919050565b6115bc6115b6611dac565b83611e6d565b6115fb576040517f08c379a00000000000000000000000000000000000000000000000000000000081526004016115f290613c14565b60405180910390fd5b6116078484848461261a565b50505050565b611615611dac565b73ffffffffffffffffffffffffffffffffffffffff1661163361140b565b73ffffffffffffffffffffffffffffffffffffffff1614611689576040517f08c379a000000000000000000000000000000000000000000000000000000000815260040161168090613b34565b60405180910390fd5b600081116116cc576040517f08c379a00000000000000000000000000000000000000000000000000000000081526004016116c390613ab4565b60405180910390fd5b60006116d860086121b2565b90506116e4600861221c565b6116ee3382612676565b61173c8185858080601f016020809104026020016040519081016040528093929190818152602001838380828437600081840152601f19601f82011690508083019250505050505050612694565b6117468183611306565b3373ffffffffffffffffffffffffffffffffffffffff167fb9144c96c86541f6fa89c9f2f02495cccf4b08cd6643e26d34ee00aa586558a88260405161178c9190613c34565b60405180910390a250505050565b60606117a582611d40565b6117e4576040517f08c379a00000000000000000000000000000000000000000000000000000000081526004016117db90613af4565b60405180910390fd5b600060066000848152602001908152602001600020805461180490613f8a565b80601f016020809104026020016040519081016040528092919081815260200182805461183090613f8a565b801561187d5780601f106118525761010080835404028352916020019161187d565b820191906000526020600020905b81548152906001019060200180831161186057829003601f168201915b50505050509050600061188e612708565b90506000815114156118a45781925050506118e7565b6000825111156118d95780826040516020016118c1929190613808565b604051602081830303815290604052925050506118e7565b6118e28461271f565b925050505b919050565b600a8060000154905081565b6000600560008473ffffffffffffffffffffffffffffffffffffffff1673ffffffffffffffffffffffffffffffffffffffff16815260200190815260200160002060008373ffffffffffffffffffffffffffffffffffffffff1673ffffffffffffffffffffffffffffffffffffffff16815260200190815260200160002060009054906101000a900460ff16905092915050565b611994611dac565b73ffffffffffffffffffffffffffffffffffffffff166119b261140b565b73ffffffffffffffffffffffffffffffffffffffff1614611a08576040517f08c379a00000000000000000000000000000000000000000000000000000000081526004016119ff90613b34565b60405180910390fd5b600073ffffffffffffffffffffffffffffffffffffffff168173ffffffffffffffffffffffffffffffffffffffff161415611a78576040517f08c379a0000000000000000000000000000000000000000000000000000000008152600401611a6f90613954565b60405180910390fd5b611a8181612232565b50565b60098060000154905081565b60606000611a9e600a6121b2565b611aa860096121b2565b611ab29190613e8e565b90506000808267ffffffffffffffff811115611af7577f4e487b7100000000000000000000000000000000000000000000000000000000600052604160045260246000fd5b604051908082528060200260200182016040528015611b3057816020015b611b1d612d6c565b815260200190600190039081611b155790505b50905060005b611b4060096121b2565b811015611ccc57600b600082815260200190815260200160002060030160149054906101000a900460ff16611cbb57600b60008281526020019081526020016000206040518060a001604052908160008201548152602001600182015481526020016002820160009054906101000a900473ffffffffffffffffffffffffffffffffffffffff1673ffffffffffffffffffffffffffffffffffffffff1673ffffffffffffffffffffffffffffffffffffffff1681526020016003820160009054906101000a900473ffffffffffffffffffffffffffffffffffffffff1673ffffffffffffffffffffffffffffffffffffffff1673ffffffffffffffffffffffffffffffffffffffff1681526020016003820160149054906101000a900460ff161515151581525050828481518110611ca1577f4e487b7100000000000000000000000000000000000000000000000000000000600052603260045260246000fd5b60200260200101819052508280611cb790613fed565b9350505b80611cc590613fed565b9050611b36565b5080935050505090565b60007f01ffc9a7000000000000000000000000000000000000000000000000000000007bffffffffffffffffffffffffffffffffffffffffffffffffffffffff1916827bffffffffffffffffffffffffffffffffffffffffffffffffffffffff1916149050919050565b60008073ffffffffffffffffffffffffffffffffffffffff166002600084815260200190815260200160002060009054906101000a900473ffffffffffffffffffffffffffffffffffffffff1673ffffffffffffffffffffffffffffffffffffffff1614159050919050565b600033905090565b816004600083815260200190815260200160002060006101000a81548173ffffffffffffffffffffffffffffffffffffffff021916908373ffffffffffffffffffffffffffffffffffffffff160217905550808273ffffffffffffffffffffffffffffffffffffffff16611e2783611114565b73ffffffffffffffffffffffffffffffffffffffff167f8c5be1e5ebec7d5bd14f71427d1e84f3dd0314c0f7b2291e5b200ac8c7c3b92560405160405180910390a45050565b6000611e7882611d40565b611eb7576040517f08c379a0000000000000000000000000000000000000000000000000000000008152600401611eae906139f4565b60405180910390fd5b6000611ec283611114565b90508073ffffffffffffffffffffffffffffffffffffffff168473ffffffffffffffffffffffffffffffffffffffff161480611f045750611f0381856118f8565b5b80611f4257508373ffffffffffffffffffffffffffffffffffffffff16611f2a84610881565b73ffffffffffffffffffffffffffffffffffffffff16145b91505092915050565b8273ffffffffffffffffffffffffffffffffffffffff16611f6b82611114565b73ffffffffffffffffffffffffffffffffffffffff1614611fc1576040517f08c379a0000000000000000000000000000000000000000000000000000000008152600401611fb890613974565b60405180910390fd5b600073ffffffffffffffffffffffffffffffffffffffff168273ffffffffffffffffffffffffffffffffffffffff161415612031576040517f08c379a0000000000000000000000000000000000000000000000000000000008152600401612028906139b4565b60405180910390fd5b61203c8383836127c6565b612047600082611db4565b6001600360008573ffffffffffffffffffffffffffffffffffffffff1673ffffffffffffffffffffffffffffffffffffffff16815260200190815260200160002060008282546120979190613e8e565b925050819055506001600360008473ffffffffffffffffffffffffffffffffffffffff1673ffffffffffffffffffffffffffffffffffffffff16815260200190815260200160002060008282546120ee9190613dad565b92505081905550816002600083815260200190815260200160002060006101000a81548173ffffffffffffffffffffffffffffffffffffffff021916908373ffffffffffffffffffffffffffffffffffffffff160217905550808273ffffffffffffffffffffffffffffffffffffffff168473ffffffffffffffffffffffffffffffffffffffff167fddf252ad1be2c89b69c2b068fc378daa952ba7f163c4a11628f55a4df523b3ef60405160405180910390a46121ad8383836127cb565b505050565b600081600001549050919050565b6000816000015490506000811161220c576040517f08c379a000000000000000000000000000000000000000000000000000000000815260040161220390613914565b60405180910390fd5b6001810382600001819055505050565b6001816000016000828254019250508190555050565b6000600760009054906101000a900473ffffffffffffffffffffffffffffffffffffffff16905081600760006101000a81548173ffffffffffffffffffffffffffffffffffffffff021916908373ffffffffffffffffffffffffffffffffffffffff1602179055508173ffffffffffffffffffffffffffffffffffffffff168173ffffffffffffffffffffffffffffffffffffffff167f8be0079c531659141344cd1fd0a4f28419497f9722a3daafe3b4186f6b6457e060405160405180910390a35050565b6000811161233b576040517f08c379a000000000000000000000000000000000000000000000000000000000815260040161233290613bf4565b60405180910390fd5b6040518060a001604052808381526020018281526020013073ffffffffffffffffffffffffffffffffffffffff1681526020013373ffffffffffffffffffffffffffffffffffffffff16815260200160001515815250600b6000848152602001908152602001600020600082015181600001556020820151816001015560408201518160020160006101000a81548173ffffffffffffffffffffffffffffffffffffffff021916908373ffffffffffffffffffffffffffffffffffffffff16021790555060608201518160030160006101000a81548173ffffffffffffffffffffffffffffffffffffffff021916908373ffffffffffffffffffffffffffffffffffffffff16021790555060808201518160030160146101000a81548160ff0219169083151502179055509050507f51d29fe857aacbe7183bb66c287250e989b91b215435bb64e76319cc95425b228282303360006040516124a1959493929190613c4f565b60405180910390a15050565b8173ffffffffffffffffffffffffffffffffffffffff168373ffffffffffffffffffffffffffffffffffffffff16141561251c576040517f08c379a0000000000000000000000000000000000000000000000000000000008152600401612513906139d4565b60405180910390fd5b80600560008573ffffffffffffffffffffffffffffffffffffffff1673ffffffffffffffffffffffffffffffffffffffff16815260200190815260200160002060008473ffffffffffffffffffffffffffffffffffffffff1673ffffffffffffffffffffffffffffffffffffffff16815260200190815260200160002060006101000a81548160ff0219169083151502179055508173ffffffffffffffffffffffffffffffffffffffff168373ffffffffffffffffffffffffffffffffffffffff167f17307eab39ab6107e8899845ad3d59bd9653f200f220920489ca2b5937696c318360405161260d91906138d7565b60405180910390a3505050565b612625848484611f4b565b612631848484846127d0565b612670576040517f08c379a000000000000000000000000000000000000000000000000000000000815260040161266790613934565b60405180910390fd5b50505050565b612690828260405180602001604052806000815250612967565b5050565b61269d82611d40565b6126dc576040517f08c379a00000000000000000000000000000000000000000000000000000000081526004016126d390613a94565b60405180910390fd5b80600660008481526020019081526020016000209080519060200190612703929190612dc9565b505050565b606060405180602001604052806000815250905090565b606061272a82611d40565b612769576040517f08c379a000000000000000000000000000000000000000000000000000000000815260040161276090613b54565b60405180910390fd5b6000612773612708565b9050600081511161279357604051806020016040528060008152506127be565b8061279d846129c2565b6040516020016127ae929190613808565b6040516020818303038152906040525b915050919050565b505050565b505050565b60006127f18473ffffffffffffffffffffffffffffffffffffffff16612b6f565b1561295a578373ffffffffffffffffffffffffffffffffffffffff1663150b7a0261281a611dac565b8786866040518563ffffffff1660e01b815260040161283c9493929190613847565b602060405180830381600087803b15801561285657600080fd5b505af192505050801561288757506040513d601f19601f820116820180604052508101906128849190613157565b60015b61290a573d80600081146128b7576040519150601f19603f3d011682016040523d82523d6000602084013e6128bc565b606091505b50600081511415612902576040517f08c379a00000000000000000000000000000000000000000000000000000000081526004016128f990613934565b60405180910390fd5b805181602001fd5b63150b7a0260e01b7bffffffffffffffffffffffffffffffffffffffffffffffffffffffff1916817bffffffffffffffffffffffffffffffffffffffffffffffffffffffff19161491505061295f565b600190505b949350505050565b6129718383612b92565b61297e60008484846127d0565b6129bd576040517f08c379a00000000000000000000000000000000000000000000000000000000081526004016129b490613934565b60405180910390fd5b505050565b60606000821415612a0a576040518060400160405280600181526020017f30000000000000000000000000000000000000000000000000000000000000008152509050612b6a565b600082905060005b60008214612a3c578080612a2590613fed565b915050600a82612a359190613e03565b9150612a12565b60008167ffffffffffffffff811115612a7e577f4e487b7100000000000000000000000000000000000000000000000000000000600052604160045260246000fd5b6040519080825280601f01601f191660200182016040528015612ab05781602001600182028036833780820191505090505b5090505b60008514612b6357600182612ac99190613e8e565b9150600a85612ad89190614036565b6030612ae49190613dad565b60f81b818381518110612b20577f4e487b7100000000000000000000000000000000000000000000000000000000600052603260045260246000fd5b60200101907effffffffffffffffffffffffffffffffffffffffffffffffffffffffffffff1916908160001a905350600a85612b5c9190613e03565b9450612ab4565b8093505050505b919050565b6000808273ffffffffffffffffffffffffffffffffffffffff163b119050919050565b600073ffffffffffffffffffffffffffffffffffffffff168273ffffffffffffffffffffffffffffffffffffffff161415612c02576040517f08c379a0000000000000000000000000000000000000000000000000000000008152600401612bf990613ad4565b60405180910390fd5b612c0b81611d40565b15612c4b576040517f08c379a0000000000000000000000000000000000000000000000000000000008152600401612c4290613994565b60405180910390fd5b612c57600083836127c6565b6001600360008473ffffffffffffffffffffffffffffffffffffffff1673ffffffffffffffffffffffffffffffffffffffff1681526020019081526020016000206000828254612ca79190613dad565b92505081905550816002600083815260200190815260200160002060006101000a81548173ffffffffffffffffffffffffffffffffffffffff021916908373ffffffffffffffffffffffffffffffffffffffff160217905550808273ffffffffffffffffffffffffffffffffffffffff16600073ffffffffffffffffffffffffffffffffffffffff167fddf252ad1be2c89b69c2b068fc378daa952ba7f163c4a11628f55a4df523b3ef60405160405180910390a4612d68600083836127cb565b5050565b6040518060a001604052806000815260200160008152602001600073ffffffffffffffffffffffffffffffffffffffff168152602001600073ffffffffffffffffffffffffffffffffffffffff1681526020016000151581525090565b828054612dd590613f8a565b90600052602060002090601f016020900481019282612df75760008555612e3e565b82601f10612e1057805160ff1916838001178555612e3e565b82800160010185558215612e3e579182015b82811115612e3d578251825591602001919060010190612e22565b5b509050612e4b9190612e4f565b5090565b5b80821115612e68576000816000905550600101612e50565b5090565b6000612e7f612e7a84613cc7565b613ca2565b905082815260208101848484011115612e9757600080fd5b612ea2848285613f48565b509392505050565b600081359050612eb98161476f565b92915050565b600081359050612ece81614786565b92915050565b600081359050612ee38161479d565b92915050565b600081519050612ef88161479d565b92915050565b600082601f830112612f0f57600080fd5b8135612f1f848260208601612e6c565b91505092915050565b60008083601f840112612f3a57600080fd5b8235905067ffffffffffffffff811115612f5357600080fd5b602083019150836001820283011115612f6b57600080fd5b9250929050565b600081359050612f81816147b4565b92915050565b600060208284031215612f9957600080fd5b6000612fa784828501612eaa565b91505092915050565b60008060408385031215612fc357600080fd5b6000612fd185828601612eaa565b9250506020612fe285828601612eaa565b9150509250929050565b60008060006060848603121561300157600080fd5b600061300f86828701612eaa565b935050602061302086828701612eaa565b925050604061303186828701612f72565b9150509250925092565b6000806000806080858703121561305157600080fd5b600061305f87828801612eaa565b945050602061307087828801612eaa565b935050604061308187828801612f72565b925050606085013567ffffffffffffffff81111561309e57600080fd5b6130aa87828801612efe565b91505092959194509250565b600080604083850312156130c957600080fd5b60006130d785828601612eaa565b92505060206130e885828601612ebf565b9150509250929050565b6000806040838503121561310557600080fd5b600061311385828601612eaa565b925050602061312485828601612f72565b9150509250929050565b60006020828403121561314057600080fd5b600061314e84828501612ed4565b91505092915050565b60006020828403121561316957600080fd5b600061317784828501612ee9565b91505092915050565b60008060006040848603121561319557600080fd5b600084013567ffffffffffffffff8111156131af57600080fd5b6131bb86828701612f28565b935093505060206131ce86828701612f72565b9150509250925092565b6000602082840312156131ea57600080fd5b60006131f884828501612f72565b91505092915050565b6000806040838503121561321457600080fd5b600061322285828601612f72565b925050602061323385828601612f72565b9150509250929050565b60006132498383613782565b60a08301905092915050565b600061326183836137ea565b60208301905092915050565b61327681613ed4565b82525050565b61328581613ed4565b82525050565b61329481613ec2565b82525050565b60006132a582613d18565b6132af8185613d5e565b93506132ba83613cf8565b8060005b838110156132eb5781516132d2888261323d565b97506132dd83613d44565b9250506001810190506132be565b5085935050505092915050565b600061330382613d23565b61330d8185613d6f565b935061331883613d08565b8060005b838110156133495781516133308882613255565b975061333b83613d51565b92505060018101905061331c565b5085935050505092915050565b61335f81613ee6565b82525050565b61336e81613ee6565b82525050565b600061337f82613d2e565b6133898185613d80565b9350613399818560208601613f57565b6133a281614123565b840191505092915050565b60006133b882613d39565b6133c28185613d91565b93506133d2818560208601613f57565b6133db81614123565b840191505092915050565b60006133f182613d39565b6133fb8185613da2565b935061340b818560208601613f57565b80840191505092915050565b6000613424601b83613d91565b915061342f82614134565b602082019050919050565b6000613447603283613d91565b91506134528261415d565b604082019050919050565b600061346a602683613d91565b9150613475826141ac565b604082019050919050565b600061348d602583613d91565b9150613498826141fb565b604082019050919050565b60006134b0601c83613d91565b91506134bb8261424a565b602082019050919050565b60006134d3602483613d91565b91506134de82614273565b604082019050919050565b60006134f6601983613d91565b9150613501826142c2565b602082019050919050565b6000613519602c83613d91565b9150613524826142eb565b604082019050919050565b600061353c602483613d91565b91506135478261433a565b604082019050919050565b600061355f603883613d91565b915061356a82614389565b604082019050919050565b6000613582602a83613d91565b915061358d826143d8565b604082019050919050565b60006135a5602983613d91565b91506135b082614427565b604082019050919050565b60006135c8602e83613d91565b91506135d382614476565b604082019050919050565b60006135eb601383613d91565b91506135f6826144c5565b602082019050919050565b600061360e602083613d91565b9150613619826144ee565b602082019050919050565b6000613631603183613d91565b915061363c82614517565b604082019050919050565b6000613654602c83613d91565b915061365f82614566565b604082019050919050565b6000613677602083613d91565b9150613682826145b5565b602082019050919050565b600061369a602f83613d91565b91506136a5826145de565b604082019050919050565b60006136bd602183613d91565b91506136c88261462d565b604082019050919050565b60006136e0601b83613d91565b91506136eb8261467c565b602082019050919050565b6000613703601383613d91565b915061370e826146a5565b602082019050919050565b6000613726601a83613d91565b9150613731826146ce565b602082019050919050565b6000613749600d83613d91565b9150613754826146f7565b602082019050919050565b600061376c603183613d91565b915061377782614720565b604082019050919050565b60a08201600082015161379860008501826137ea565b5060208201516137ab60208501826137ea565b5060408201516137be604085018261326d565b5060608201516137d1606085018261326d565b5060808201516137e46080850182613356565b50505050565b6137f381613f3e565b82525050565b61380281613f3e565b82525050565b600061381482856133e6565b915061382082846133e6565b91508190509392505050565b6000602082019050613841600083018461328b565b92915050565b600060808201905061385c600083018761328b565b613869602083018661328b565b61387660408301856137f9565b81810360608301526138888184613374565b905095945050505050565b600060208201905081810360008301526138ad818461329a565b905092915050565b600060208201905081810360008301526138cf81846132f8565b905092915050565b60006020820190506138ec6000830184613365565b92915050565b6000602082019050818103600083015261390c81846133ad565b905092915050565b6000602082019050818103600083015261392d81613417565b9050919050565b6000602082019050818103600083015261394d8161343a565b9050919050565b6000602082019050818103600083015261396d8161345d565b9050919050565b6000602082019050818103600083015261398d81613480565b9050919050565b600060208201905081810360008301526139ad816134a3565b9050919050565b600060208201905081810360008301526139cd816134c6565b9050919050565b600060208201905081810360008301526139ed816134e9565b9050919050565b60006020820190508181036000830152613a0d8161350c565b9050919050565b60006020820190508181036000830152613a2d8161352f565b9050919050565b60006020820190508181036000830152613a4d81613552565b9050919050565b60006020820190508181036000830152613a6d81613575565b9050919050565b60006020820190508181036000830152613a8d81613598565b9050919050565b60006020820190508181036000830152613aad816135bb565b9050919050565b60006020820190508181036000830152613acd816135de565b9050919050565b60006020820190508181036000830152613aed81613601565b9050919050565b60006020820190508181036000830152613b0d81613624565b9050919050565b60006020820190508181036000830152613b2d81613647565b9050919050565b60006020820190508181036000830152613b4d8161366a565b9050919050565b60006020820190508181036000830152613b6d8161368d565b9050919050565b60006020820190508181036000830152613b8d816136b0565b9050919050565b60006020820190508181036000830152613bad816136d3565b9050919050565b60006020820190508181036000830152613bcd816136f6565b9050919050565b60006020820190508181036000830152613bed81613719565b9050919050565b60006020820190508181036000830152613c0d8161373c565b9050919050565b60006020820190508181036000830152613c2d8161375f565b9050919050565b6000602082019050613c4960008301846137f9565b92915050565b600060a082019050613c6460008301886137f9565b613c7160208301876137f9565b613c7e604083018661327c565b613c8b606083018561327c565b613c986080830184613365565b9695505050505050565b6000613cac613cbd565b9050613cb88282613fbc565b919050565b6000604051905090565b600067ffffffffffffffff821115613ce257613ce16140f4565b5b613ceb82614123565b9050602081019050919050565b6000819050602082019050919050565b6000819050602082019050919050565b600081519050919050565b600081519050919050565b600081519050919050565b600081519050919050565b6000602082019050919050565b6000602082019050919050565b600082825260208201905092915050565b600082825260208201905092915050565b600082825260208201905092915050565b600082825260208201905092915050565b600081905092915050565b6000613db882613f3e565b9150613dc383613f3e565b9250827fffffffffffffffffffffffffffffffffffffffffffffffffffffffffffffffff03821115613df857613df7614067565b5b828201905092915050565b6000613e0e82613f3e565b9150613e1983613f3e565b925082613e2957613e28614096565b5b828204905092915050565b6000613e3f82613f3e565b9150613e4a83613f3e565b9250817fffffffffffffffffffffffffffffffffffffffffffffffffffffffffffffffff0483118215151615613e8357613e82614067565b5b828202905092915050565b6000613e9982613f3e565b9150613ea483613f3e565b925082821015613eb757613eb6614067565b5b828203905092915050565b6000613ecd82613f1e565b9050919050565b6000613edf82613f1e565b9050919050565b60008115159050919050565b60007fffffffff0000000000000000000000000000000000000000000000000000000082169050919050565b600073ffffffffffffffffffffffffffffffffffffffff82169050919050565b6000819050919050565b82818337600083830152505050565b60005b83811015613f75578082015181840152602081019050613f5a565b83811115613f84576000848401525b50505050565b60006002820490506001821680613fa257607f821691505b60208210811415613fb657613fb56140c5565b5b50919050565b613fc582614123565b810181811067ffffffffffffffff82111715613fe457613fe36140f4565b5b80604052505050565b6000613ff882613f3e565b91507fffffffffffffffffffffffffffffffffffffffffffffffffffffffffffffffff82141561402b5761402a614067565b5b600182019050919050565b600061404182613f3e565b915061404c83613f3e565b92508261405c5761405b614096565b5b828206905092915050565b7f4e487b7100000000000000000000000000000000000000000000000000000000600052601160045260246000fd5b7f4e487b7100000000000000000000000000000000000000000000000000000000600052601260045260246000fd5b7f4e487b7100000000000000000000000000000000000000000000000000000000600052602260045260246000fd5b7f4e487b7100000000000000000000000000000000000000000000000000000000600052604160045260246000fd5b6000601f19601f8301169050919050565b7f436f756e7465723a2064656372656d656e74206f766572666c6f770000000000600082015250565b7f4552433732313a207472616e7366657220746f206e6f6e20455243373231526560008201527f63656976657220696d706c656d656e7465720000000000000000000000000000602082015250565b7f4f776e61626c653a206e6577206f776e657220697320746865207a65726f206160008201527f6464726573730000000000000000000000000000000000000000000000000000602082015250565b7f4552433732313a207472616e736665722066726f6d20696e636f72726563742060008201527f6f776e6572000000000000000000000000000000000000000000000000000000602082015250565b7f4552433732313a20746f6b656e20616c7265616479206d696e74656400000000600082015250565b7f4552433732313a207472616e7366657220746f20746865207a65726f2061646460008201527f7265737300000000000000000000000000000000000000000000000000000000602082015250565b7f4552433732313a20617070726f766520746f2063616c6c657200000000000000600082015250565b7f4552433732313a206f70657261746f7220717565727920666f72206e6f6e657860008201527f697374656e7420746f6b656e0000000000000000000000000000000000000000602082015250565b7f4f70657261746f7220717565727920666f72206e6f6e6578697374656e74207460008201527f6f6b656e00000000000000000000000000000000000000000000000000000000602082015250565b7f4552433732313a20617070726f76652063616c6c6572206973206e6f74206f7760008201527f6e6572206e6f7220617070726f76656420666f7220616c6c0000000000000000602082015250565b7f4552433732313a2062616c616e636520717565727920666f7220746865207a6560008201527f726f206164647265737300000000000000000000000000000000000000000000602082015250565b7f4552433732313a206f776e657220717565727920666f72206e6f6e657869737460008201527f656e7420746f6b656e0000000000000000000000000000000000000000000000602082015250565b7f45524337323155524953746f726167653a2055524920736574206f66206e6f6e60008201527f6578697374656e7420746f6b656e000000000000000000000000000000000000602082015250565b7f746f6b656e2076616c756520746f6f206c6f7700000000000000000000000000600082015250565b7f4552433732313a206d696e7420746f20746865207a65726f2061646472657373600082015250565b7f45524337323155524953746f726167653a2055524920717565727920666f722060008201527f6e6f6e6578697374656e7420746f6b656e000000000000000000000000000000602082015250565b7f4552433732313a20617070726f76656420717565727920666f72206e6f6e657860008201527f697374656e7420746f6b656e0000000000000000000000000000000000000000602082015250565b7f4f776e61626c653a2063616c6c6572206973206e6f7420746865206f776e6572600082015250565b7f4552433732314d657461646174613a2055524920717565727920666f72206e6f60008201527f6e6578697374656e7420746f6b656e0000000000000000000000000000000000602082015250565b7f4552433732313a20617070726f76616c20746f2063757272656e74206f776e6560008201527f7200000000000000000000000000000000000000000000000000000000000000602082015250565b7f53656c6c65722063616e6e6f7420627579206f776e20746f6b656e0000000000600082015250565b7f496e73756666696369656e7420706f696e747300000000000000000000000000600082015250565b7f46756e647320746f6f206c6f7720666f72207175616e74697479000000000000600082015250565b7f507269636520746f6f206c6f7700000000000000000000000000000000000000600082015250565b7f4552433732313a207472616e736665722063616c6c6572206973206e6f74206f60008201527f776e6572206e6f7220617070726f766564000000000000000000000000000000602082015250565b61477881613ec2565b811461478357600080fd5b50565b61478f81613ee6565b811461479a57600080fd5b50565b6147a681613ef2565b81146147b157600080fd5b50565b6147bd81613f3e565b81146147c857600080fd5b5056fea264697066735822122074f5352c9ddc74e5507fb7e5329deba72f9dcb4a39bd3977c904d0a9b71b3dbf64736f6c63430008040033",
  "linkReferences": {},
  "deployedLinkReferences": {}
}