{
  "_format": "hh-sol-artifact-1",
  "contractName": "GemNFT",
  "sourceName": "contracts/GemNFT.sol",
  "abi": [
    {
      "inputs": [],
      "stateMutability": "nonpayable",
      "type": "constructor"
    },
    {
      "anonymous": false,
      "inputs": [
        {
          "indexed": true,
          "internalType": "address",
          "name": "owner",
          "type": "address"
        },
        {
          "indexed": true,
          "internalType": "address",
          "name": "approved",
          "type": "address"
        },
        {
          "indexed": true,
          "internalType": "uint256",
          "name": "tokenId",
          "type": "uint256"
        }
      ],
      "name": "Approval",
      "type": "event"
    },
    {
      "anonymous": false,
      "inputs": [
        {
          "indexed": true,
          "internalType": "address",
          "name": "owner",
          "type": "address"
        },
        {
          "indexed": true,
          "internalType": "address",
          "name": "operator",
          "type": "address"
        },
        {
          "indexed": false,
          "internalType": "bool",
          "name": "approved",
          "type": "bool"
        }
      ],
      "name": "ApprovalForAll",
      "type": "event"
    },
    {
      "anonymous": false,
      "inputs": [
        {
          "indexed": false,
          "internalType": "uint256",
          "name": "tokenId",
          "type": "uint256"
        }
      ],
      "name": "BuyToken",
      "type": "event"
    },
    {
      "anonymous": false,
      "inputs": [],
      "name": "ClaimContractFunds",
      "type": "event"
    },
    {
      "anonymous": false,
      "inputs": [
        {
          "indexed": false,
          "internalType": "uint256",
          "name": "tokenId",
          "type": "uint256"
        },
        {
          "indexed": false,
          "internalType": "uint256",
          "name": "value",
          "type": "uint256"
        },
        {
          "indexed": false,
          "internalType": "address payable",
          "name": "owner",
          "type": "address"
        },
        {
          "indexed": false,
          "internalType": "address payable",
          "name": "seller",
          "type": "address"
        },
        {
          "indexed": false,
          "internalType": "bool",
          "name": "claimed",
          "type": "bool"
        }
      ],
      "name": "MarketTokenCreated",
      "type": "event"
    },
    {
      "anonymous": false,
      "inputs": [
        {
          "indexed": true,
          "internalType": "address",
          "name": "previousOwner",
          "type": "address"
        },
        {
          "indexed": true,
          "internalType": "address",
          "name": "newOwner",
          "type": "address"
        }
      ],
      "name": "OwnershipTransferred",
      "type": "event"
    },
    {
      "anonymous": false,
      "inputs": [
        {
          "indexed": true,
          "internalType": "address",
          "name": "creator",
          "type": "address"
        },
        {
          "indexed": false,
          "internalType": "uint256",
          "name": "tokenId",
          "type": "uint256"
        }
      ],
      "name": "TokenMinted",
      "type": "event"
    },
    {
      "anonymous": false,
      "inputs": [
        {
          "indexed": true,
          "internalType": "address",
          "name": "from",
          "type": "address"
        },
        {
          "indexed": true,
          "internalType": "address",
          "name": "to",
          "type": "address"
        },
        {
          "indexed": true,
          "internalType": "uint256",
          "name": "tokenId",
          "type": "uint256"
        }
      ],
      "name": "Transfer",
      "type": "event"
    },
    {
      "inputs": [],
      "name": "_marketTokensCount",
      "outputs": [
        {
          "internalType": "uint256",
          "name": "_value",
          "type": "uint256"
        }
      ],
      "stateMutability": "view",
      "type": "function"
    },
    {
      "inputs": [],
      "name": "_marketTokensSold",
      "outputs": [
        {
          "internalType": "uint256",
          "name": "_value",
          "type": "uint256"
        }
      ],
      "stateMutability": "view",
      "type": "function"
    },
    {
      "inputs": [
        {
          "internalType": "address",
          "name": "to",
          "type": "address"
        },
        {
          "internalType": "uint256",
          "name": "tokenId",
          "type": "uint256"
        }
      ],
      "name": "approve",
      "outputs": [],
      "stateMutability": "nonpayable",
      "type": "function"
    },
    {
      "inputs": [
        {
          "internalType": "address",
          "name": "owner",
          "type": "address"
        }
      ],
      "name": "balanceOf",
      "outputs": [
        {
          "internalType": "uint256",
          "name": "",
          "type": "uint256"
        }
      ],
      "stateMutability": "view",
      "type": "function"
    },
    {
      "inputs": [
        {
          "internalType": "uint256",
          "name": "tokenId",
          "type": "uint256"
        }
      ],
      "name": "buyTokenWithCoins",
      "outputs": [],
      "stateMutability": "nonpayable",
      "type": "function"
    },
    {
      "inputs": [
        {
          "internalType": "uint256",
          "name": "tokenId",
          "type": "uint256"
        }
      ],
      "name": "buyTokenWithFund",
      "outputs": [],
      "stateMutability": "payable",
      "type": "function"
    },
    {
      "inputs": [],
      "name": "claimContractFunds",
      "outputs": [],
      "stateMutability": "payable",
      "type": "function"
    },
    {
      "inputs": [],
      "name": "contractBalance",
      "outputs": [
        {
          "internalType": "uint256",
          "name": "",
          "type": "uint256"
        }
      ],
      "stateMutability": "view",
      "type": "function"
    },
    {
      "inputs": [],
      "name": "getAllMarketTokens",
      "outputs": [
        {
          "components": [
            {
              "internalType": "uint256",
              "name": "tokenId",
              "type": "uint256"
            },
            {
              "internalType": "uint256",
              "name": "value",
              "type": "uint256"
            },
            {
              "internalType": "address payable",
              "name": "owner",
              "type": "address"
            },
            {
              "internalType": "address payable",
              "name": "seller",
              "type": "address"
            },
            {
              "internalType": "bool",
              "name": "claimed",
              "type": "bool"
            }
          ],
          "internalType": "struct GemNFT.MarketToken[]",
          "name": "",
          "type": "tuple[]"
        }
      ],
      "stateMutability": "view",
      "type": "function"
    },
    {
      "inputs": [
        {
          "internalType": "uint256",
          "name": "tokenId",
          "type": "uint256"
        }
      ],
      "name": "getApproved",
      "outputs": [
        {
          "internalType": "address",
          "name": "",
          "type": "address"
        }
      ],
      "stateMutability": "view",
      "type": "function"
    },
    {
      "inputs": [],
      "name": "getCoinsBalance",
      "outputs": [
        {
          "internalType": "uint256",
          "name": "",
          "type": "uint256"
        }
      ],
      "stateMutability": "view",
      "type": "function"
    },
    {
      "inputs": [],
      "name": "getMyTokens",
      "outputs": [
        {
          "internalType": "uint256[]",
          "name": "",
          "type": "uint256[]"
        }
      ],
      "stateMutability": "view",
      "type": "function"
    },
    {
      "inputs": [],
      "name": "getPurchaseCount",
      "outputs": [
        {
          "internalType": "uint256",
          "name": "",
          "type": "uint256"
        }
      ],
      "stateMutability": "view",
      "type": "function"
    },
    {
      "inputs": [],
      "name": "getTokensLength",
      "outputs": [
        {
          "internalType": "uint256",
          "name": "",
          "type": "uint256"
        }
      ],
      "stateMutability": "view",
      "type": "function"
    },
    {
      "inputs": [
        {
          "internalType": "address",
          "name": "owner",
          "type": "address"
        },
        {
          "internalType": "address",
          "name": "operator",
          "type": "address"
        }
      ],
      "name": "isApprovedForAll",
      "outputs": [
        {
          "internalType": "bool",
          "name": "",
          "type": "bool"
        }
      ],
      "stateMutability": "view",
      "type": "function"
    },
    {
      "inputs": [
        {
          "internalType": "uint256",
          "name": "",
          "type": "uint256"
        }
      ],
      "name": "marketTokens",
      "outputs": [
        {
          "internalType": "uint256",
          "name": "tokenId",
          "type": "uint256"
        },
        {
          "internalType": "uint256",
          "name": "value",
          "type": "uint256"
        },
        {
          "internalType": "address payable",
          "name": "owner",
          "type": "address"
        },
        {
          "internalType": "address payable",
          "name": "seller",
          "type": "address"
        },
        {
          "internalType": "bool",
          "name": "claimed",
          "type": "bool"
        }
      ],
      "stateMutability": "view",
      "type": "function"
    },
    {
      "inputs": [
        {
          "internalType": "string",
          "name": "tokenURI",
          "type": "string"
        },
        {
          "internalType": "uint256",
          "name": "tokenValue",
          "type": "uint256"
        }
      ],
      "name": "mintToken",
      "outputs": [],
      "stateMutability": "nonpayable",
      "type": "function"
    },
    {
      "inputs": [],
      "name": "name",
      "outputs": [
        {
          "internalType": "string",
          "name": "",
          "type": "string"
        }
      ],
      "stateMutability": "view",
      "type": "function"
    },
    {
      "inputs": [],
      "name": "owner",
      "outputs": [
        {
          "internalType": "address",
          "name": "",
          "type": "address"
        }
      ],
      "stateMutability": "view",
      "type": "function"
    },
    {
      "inputs": [
        {
          "internalType": "uint256",
          "name": "tokenId",
          "type": "uint256"
        }
      ],
      "name": "ownerOf",
      "outputs": [
        {
          "internalType": "address",
          "name": "",
          "type": "address"
        }
      ],
      "stateMutability": "view",
      "type": "function"
    },
    {
      "inputs": [],
      "name": "renounceOwnership",
      "outputs": [],
      "stateMutability": "nonpayable",
      "type": "function"
    },
    {
      "inputs": [
        {
          "internalType": "address",
          "name": "from",
          "type": "address"
        },
        {
          "internalType": "address",
          "name": "to",
          "type": "address"
        },
        {
          "internalType": "uint256",
          "name": "tokenId",
          "type": "uint256"
        }
      ],
      "name": "safeTransferFrom",
      "outputs": [],
      "stateMutability": "nonpayable",
      "type": "function"
    },
    {
      "inputs": [
        {
          "internalType": "address",
          "name": "from",
          "type": "address"
        },
        {
          "internalType": "address",
          "name": "to",
          "type": "address"
        },
        {
          "internalType": "uint256",
          "name": "tokenId",
          "type": "uint256"
        },
        {
          "internalType": "bytes",
          "name": "_data",
          "type": "bytes"
        }
      ],
      "name": "safeTransferFrom",
      "outputs": [],
      "stateMutability": "nonpayable",
      "type": "function"
    },
    {
      "inputs": [
        {
          "internalType": "uint256",
          "name": "tokenId",
          "type": "uint256"
        },
        {
          "internalType": "uint256",
          "name": "tokenValue",
          "type": "uint256"
        }
      ],
      "name": "sellToken",
      "outputs": [],
      "stateMutability": "nonpayable",
      "type": "function"
    },
    {
      "inputs": [
        {
          "internalType": "uint256",
          "name": "tokenId",
          "type": "uint256"
        },
        {
          "internalType": "uint256",
          "name": "tokenValue",
          "type": "uint256"
        }
      ],
      "name": "sendTokenToMarket",
      "outputs": [],
      "stateMutability": "nonpayable",
      "type": "function"
    },
    {
      "inputs": [
        {
          "internalType": "address",
          "name": "operator",
          "type": "address"
        },
        {
          "internalType": "bool",
          "name": "approved",
          "type": "bool"
        }
      ],
      "name": "setApprovalForAll",
      "outputs": [],
      "stateMutability": "nonpayable",
      "type": "function"
    },
    {
      "inputs": [
        {
          "internalType": "bytes4",
          "name": "interfaceId",
          "type": "bytes4"
        }
      ],
      "name": "supportsInterface",
      "outputs": [
        {
          "internalType": "bool",
          "name": "",
          "type": "bool"
        }
      ],
      "stateMutability": "view",
      "type": "function"
    },
    {
      "inputs": [],
      "name": "symbol",
      "outputs": [
        {
          "internalType": "string",
          "name": "",
          "type": "string"
        }
      ],
      "stateMutability": "view",
      "type": "function"
    },
    {
      "inputs": [
        {
          "internalType": "uint256",
          "name": "tokenId",
          "type": "uint256"
        }
      ],
      "name": "tokenInMarket",
      "outputs": [
        {
          "internalType": "bool",
          "name": "",
          "type": "bool"
        }
      ],
      "stateMutability": "view",
      "type": "function"
    },
    {
      "inputs": [
        {
          "internalType": "uint256",
          "name": "tokenId",
          "type": "uint256"
        }
      ],
      "name": "tokenURI",
      "outputs": [
        {
          "internalType": "string",
          "name": "",
          "type": "string"
        }
      ],
      "stateMutability": "view",
      "type": "function"
    },
    {
      "inputs": [
        {
          "internalType": "address",
          "name": "from",
          "type": "address"
        },
        {
          "internalType": "address",
          "name": "to",
          "type": "address"
        },
        {
          "internalType": "uint256",
          "name": "tokenId",
          "type": "uint256"
        }
      ],
      "name": "transferFrom",
      "outputs": [],
      "stateMutability": "nonpayable",
      "type": "function"
    },
    {
      "inputs": [
        {
          "internalType": "address",
          "name": "newOwner",
          "type": "address"
        }
      ],
      "name": "transferOwnership",
      "outputs": [],
      "stateMutability": "nonpayable",
      "type": "function"
    },
    {
      "stateMutability": "payable",
      "type": "receive"
    }
  ],
  "bytecode": "0x60806040523480156200001157600080fd5b506040518060400160405280600e81526020017f47656d20436f6c6c656374696f6e0000000000000000000000000000000000008152506040518060400160405280600381526020017f47454d0000000000000000000000000000000000000000000000000000000000815250816000908051906020019062000096929190620001eb565b508060019080519060200190620000af929190620001eb565b505050620000d2620000c66200011d60201b60201c565b6200012560201b60201c565b6064600c60003373ffffffffffffffffffffffffffffffffffffffff1673ffffffffffffffffffffffffffffffffffffffff1681526020019081526020016000208190555062000300565b600033905090565b6000600760009054906101000a900473ffffffffffffffffffffffffffffffffffffffff16905081600760006101000a81548173ffffffffffffffffffffffffffffffffffffffff021916908373ffffffffffffffffffffffffffffffffffffffff1602179055508173ffffffffffffffffffffffffffffffffffffffff168173ffffffffffffffffffffffffffffffffffffffff167f8be0079c531659141344cd1fd0a4f28419497f9722a3daafe3b4186f6b6457e060405160405180910390a35050565b828054620001f9906200029b565b90600052602060002090601f0160209004810192826200021d576000855562000269565b82601f106200023857805160ff191683800117855562000269565b8280016001018555821562000269579182015b82811115620002685782518255916020019190600101906200024b565b5b5090506200027891906200027c565b5090565b5b80821115620002975760008160009055506001016200027d565b5090565b60006002820490506001821680620002b457607f821691505b60208210811415620002cb57620002ca620002d1565b5b50919050565b7f4e487b7100000000000000000000000000000000000000000000000000000000600052602260045260246000fd5b614a1780620003106000396000f3fe6080604052600436106101e75760003560e01c80638da5cb5b11610102578063c046372c11610095578063e985e9c511610064578063e985e9c5146106d3578063f2fde38b14610710578063f8c95ae714610739578063f9a6f10014610764576101ee565b8063c046372c14610626578063c87b56dd1461064f578063cff4ab511461068c578063e23c8061146106b7576101ee565b8063b0c26ecf116100d1578063b0c26ecf1461056a578063b67c19e614610595578063b88d4fde146105d2578063becd283f146105fb576101ee565b80638da5cb5b146104c0578063933db02d146104eb57806395d89b4114610516578063a22cb46514610541576101ee565b80635b3b136a1161017a57806370a082311161014957806370a0823114610418578063715018a6146104555780637f6a6a4e1461046c5780638b7afe2e14610495576101ee565b80635b3b136a146103465780635cd0c10a146103715780635f06018a1461039a5780636352211e146103db576101ee565b8063126d87df116101b6578063126d87df146102c15780631897bcf3146102cb57806323b872dd146102f457806342842e0e1461031d576101ee565b806301ffc9a7146101f357806306fdde0314610230578063081812fc1461025b578063095ea7b314610298576101ee565b366101ee57005b600080fd5b3480156101ff57600080fd5b5061021a6004803603810190610215919061341c565b61078f565b6040516102279190613b7f565b60405180910390f35b34801561023c57600080fd5b50610245610871565b6040516102529190613b9a565b60405180910390f35b34801561026757600080fd5b50610282600480360381019061027d91906134c6565b610903565b60405161028f9190613ad4565b60405180910390f35b3480156102a457600080fd5b506102bf60048036038101906102ba91906133e0565b610988565b005b6102c9610aa0565b005b3480156102d757600080fd5b506102f260048036038101906102ed91906134ef565b610b98565b005b34801561030057600080fd5b5061031b600480360381019061031691906132da565b610bde565b005b34801561032957600080fd5b50610344600480360381019061033f91906132da565b610c3e565b005b34801561035257600080fd5b5061035b610c5e565b6040516103689190613b5d565b60405180910390f35b34801561037d57600080fd5b50610398600480360381019061039391906134c6565b610da1565b005b3480156103a657600080fd5b506103c160048036038101906103bc91906134c6565b61106a565b6040516103d2959493929190613eb7565b60405180910390f35b3480156103e757600080fd5b5061040260048036038101906103fd91906134c6565b6110ed565b60405161040f9190613ad4565b60405180910390f35b34801561042457600080fd5b5061043f600480360381019061043a9190613275565b61119f565b60405161044c9190613e9c565b60405180910390f35b34801561046157600080fd5b5061046a611257565b005b34801561047857600080fd5b50610493600480360381019061048e91906134ef565b6112df565b005b3480156104a157600080fd5b506104aa611344565b6040516104b79190613e9c565b60405180910390f35b3480156104cc57600080fd5b506104d56113c8565b6040516104e29190613ad4565b60405180910390f35b3480156104f757600080fd5b506105006113f2565b60405161050d9190613e9c565b60405180910390f35b34801561052257600080fd5b5061052b611439565b6040516105389190613b9a565b60405180910390f35b34801561054d57600080fd5b50610568600480360381019061056391906133a4565b6114cb565b005b34801561057657600080fd5b5061057f6114e1565b60405161058c9190613e9c565b60405180910390f35b3480156105a157600080fd5b506105bc60048036038101906105b791906134c6565b6114f2565b6040516105c99190613b7f565b60405180910390f35b3480156105de57600080fd5b506105f960048036038101906105f49190613329565b611568565b005b34801561060757600080fd5b506106106115ca565b60405161061d9190613e9c565b60405180910390f35b34801561063257600080fd5b5061064d6004803603810190610648919061346e565b611611565b005b34801561065b57600080fd5b50610676600480360381019061067191906134c6565b61179e565b6040516106839190613b9a565b60405180910390f35b34801561069857600080fd5b506106a16118f0565b6040516106ae9190613e9c565b60405180910390f35b6106d160048036038101906106cc91906134c6565b6118fc565b005b3480156106df57600080fd5b506106fa60048036038101906106f5919061329e565b611b32565b6040516107079190613b7f565b60405180910390f35b34801561071c57600080fd5b5061073760048036038101906107329190613275565b611bc6565b005b34801561074557600080fd5b5061074e611cbe565b60405161075b9190613e9c565b60405180910390f35b34801561077057600080fd5b50610779611cca565b6040516107869190613b3b565b60405180910390f35b60007f80ac58cd000000000000000000000000000000000000000000000000000000007bffffffffffffffffffffffffffffffffffffffffffffffffffffffff1916827bffffffffffffffffffffffffffffffffffffffffffffffffffffffff1916148061085a57507f5b5e139f000000000000000000000000000000000000000000000000000000007bffffffffffffffffffffffffffffffffffffffffffffffffffffffff1916827bffffffffffffffffffffffffffffffffffffffffffffffffffffffff1916145b8061086a575061086982611ef6565b5b9050919050565b606060008054610880906141f2565b80601f01602080910402602001604051908101604052809291908181526020018280546108ac906141f2565b80156108f95780601f106108ce576101008083540402835291602001916108f9565b820191906000526020600020905b8154815290600101906020018083116108dc57829003601f168201915b5050505050905090565b600061090e82611f60565b61094d576040517f08c379a000000000000000000000000000000000000000000000000000000000815260040161094490613dfc565b60405180910390fd5b6004600083815260200190815260200160002060009054906101000a900473ffffffffffffffffffffffffffffffffffffffff169050919050565b6000610993826110ed565b90508073ffffffffffffffffffffffffffffffffffffffff168373ffffffffffffffffffffffffffffffffffffffff161415610a04576040517f08c379a00000000000000000000000000000000000000000000000000000000081526004016109fb90613e5c565b60405180910390fd5b8073ffffffffffffffffffffffffffffffffffffffff16610a23611fcc565b73ffffffffffffffffffffffffffffffffffffffff161480610a525750610a5181610a4c611fcc565b611b32565b5b610a91576040517f08c379a0000000000000000000000000000000000000000000000000000000008152600401610a8890613d1c565b60405180910390fd5b610a9b8383611fd4565b505050565b610aa8611fcc565b73ffffffffffffffffffffffffffffffffffffffff16610ac66113c8565b73ffffffffffffffffffffffffffffffffffffffff1614610b1c576040517f08c379a0000000000000000000000000000000000000000000000000000000008152600401610b1390613e1c565b60405180910390fd5b3373ffffffffffffffffffffffffffffffffffffffff166108fc610b3e611344565b9081150290604051600060405180830381858888f19350505050158015610b69573d6000803e3d6000fd5b507f5aefc475d65558a6a18261c9a76aac2742aac845ae82a07a2e290ae976b3bd6b60405160405180910390a1565b81610ba2816110ed565b73ffffffffffffffffffffffffffffffffffffffff163373ffffffffffffffffffffffffffffffffffffffff1614610bd957600080fd5b505050565b610bef610be9611fcc565b8261208d565b610c2e576040517f08c379a0000000000000000000000000000000000000000000000000000000008152600401610c2590613e7c565b60405180910390fd5b610c3983838361216b565b505050565b610c5983838360405180602001604052806000815250611568565b505050565b6060600080610c6d60086123d2565b90506000610c7a3361119f565b67ffffffffffffffff811115610cb9577f4e487b7100000000000000000000000000000000000000000000000000000000600052604160045260246000fd5b604051908082528060200260200182016040528015610ce75781602001602082028036833780820191505090505b50905060005b82811015610d97573373ffffffffffffffffffffffffffffffffffffffff16610d15826110ed565b73ffffffffffffffffffffffffffffffffffffffff161415610d865780828581518110610d6b577f4e487b7100000000000000000000000000000000000000000000000000000000600052603260045260246000fd5b6020026020010181815250508380610d8290614255565b9450505b80610d9090614255565b9050610ced565b5080935050505090565b600b600082815260200190815260200160002060030160009054906101000a900473ffffffffffffffffffffffffffffffffffffffff1673ffffffffffffffffffffffffffffffffffffffff163373ffffffffffffffffffffffffffffffffffffffff161415610e46576040517f08c379a0000000000000000000000000000000000000000000000000000000008152600401610e3d90613cfc565b60405180910390fd5b600b600082815260200190815260200160002060010154600c60003373ffffffffffffffffffffffffffffffffffffffff1673ffffffffffffffffffffffffffffffffffffffff168152602001908152602001600020541015610ede576040517f08c379a0000000000000000000000000000000000000000000000000000000008152600401610ed590613c9c565b60405180910390fd5b600b600082815260200190815260200160002060010154600c60003373ffffffffffffffffffffffffffffffffffffffff1673ffffffffffffffffffffffffffffffffffffffff1681526020019081526020016000206000828254610f4391906140f6565b92505081905550610f5481336123e0565b600d60003373ffffffffffffffffffffffffffffffffffffffff1673ffffffffffffffffffffffffffffffffffffffff1681526020019081526020016000206000815480929190610fa490614255565b91905055506000600d60003373ffffffffffffffffffffffffffffffffffffffff1673ffffffffffffffffffffffffffffffffffffffff16815260200190815260200160002054905060008111801561100957506000600582611007919061429e565b145b15611066576064600c60003373ffffffffffffffffffffffffffffffffffffffff1673ffffffffffffffffffffffffffffffffffffffff168152602001908152602001600020600082825461105e9190614015565b925050819055505b5050565b600b6020528060005260406000206000915090508060000154908060010154908060020160009054906101000a900473ffffffffffffffffffffffffffffffffffffffff16908060030160009054906101000a900473ffffffffffffffffffffffffffffffffffffffff16908060030160149054906101000a900460ff16905085565b6000806002600084815260200190815260200160002060009054906101000a900473ffffffffffffffffffffffffffffffffffffffff169050600073ffffffffffffffffffffffffffffffffffffffff168173ffffffffffffffffffffffffffffffffffffffff161415611196576040517f08c379a000000000000000000000000000000000000000000000000000000000815260040161118d90613d5c565b60405180910390fd5b80915050919050565b60008073ffffffffffffffffffffffffffffffffffffffff168273ffffffffffffffffffffffffffffffffffffffff161415611210576040517f08c379a000000000000000000000000000000000000000000000000000000000815260040161120790613d3c565b60405180910390fd5b600360008373ffffffffffffffffffffffffffffffffffffffff1673ffffffffffffffffffffffffffffffffffffffff168152602001908152602001600020549050919050565b61125f611fcc565b73ffffffffffffffffffffffffffffffffffffffff1661127d6113c8565b73ffffffffffffffffffffffffffffffffffffffff16146112d3576040517f08c379a00000000000000000000000000000000000000000000000000000000081526004016112ca90613e1c565b60405180910390fd5b6112dd600061250a565b565b816112e9816110ed565b73ffffffffffffffffffffffffffffffffffffffff163373ffffffffffffffffffffffffffffffffffffffff161461132057600080fd5b61132a83836125d0565b6113346009612785565b61133f33308561216b565b505050565b600061134e611fcc565b73ffffffffffffffffffffffffffffffffffffffff1661136c6113c8565b73ffffffffffffffffffffffffffffffffffffffff16146113c2576040517f08c379a00000000000000000000000000000000000000000000000000000000081526004016113b990613e1c565b60405180910390fd5b47905090565b6000600760009054906101000a900473ffffffffffffffffffffffffffffffffffffffff16905090565b6000600c60003373ffffffffffffffffffffffffffffffffffffffff1673ffffffffffffffffffffffffffffffffffffffff16815260200190815260200160002054905090565b606060018054611448906141f2565b80601f0160208091040260200160405190810160405280929190818152602001828054611474906141f2565b80156114c15780601f10611496576101008083540402835291602001916114c1565b820191906000526020600020905b8154815290600101906020018083116114a457829003601f168201915b5050505050905090565b6114dd6114d6611fcc565b838361279b565b5050565b60006114ed60086123d2565b905090565b60006114fd82611f60565b61153c576040517f08c379a000000000000000000000000000000000000000000000000000000000815260040161153390613cdc565b60405180910390fd5b600b600083815260200190815260200160002060030160149054906101000a900460ff16159050919050565b611579611573611fcc565b8361208d565b6115b8576040517f08c379a00000000000000000000000000000000000000000000000000000000081526004016115af90613e7c565b60405180910390fd5b6115c484848484612908565b50505050565b6000600d60003373ffffffffffffffffffffffffffffffffffffffff1673ffffffffffffffffffffffffffffffffffffffff16815260200190815260200160002054905090565b611619611fcc565b73ffffffffffffffffffffffffffffffffffffffff166116376113c8565b73ffffffffffffffffffffffffffffffffffffffff161461168d576040517f08c379a000000000000000000000000000000000000000000000000000000000815260040161168490613e1c565b60405180910390fd5b600081116116d0576040517f08c379a00000000000000000000000000000000000000000000000000000000081526004016116c790613d9c565b60405180910390fd5b60006116dc60086123d2565b90506116e86008612785565b6116f23382612964565b6117408185858080601f016020809104026020016040519081016040528093929190818152602001838380828437600081840152601f19601f82011690508083019250505050505050612982565b61174a81836112df565b3373ffffffffffffffffffffffffffffffffffffffff167fb9144c96c86541f6fa89c9f2f02495cccf4b08cd6643e26d34ee00aa586558a8826040516117909190613e9c565b60405180910390a250505050565b60606117a982611f60565b6117e8576040517f08c379a00000000000000000000000000000000000000000000000000000000081526004016117df90613ddc565b60405180910390fd5b6000600660008481526020019081526020016000208054611808906141f2565b80601f0160208091040260200160405190810160405280929190818152602001828054611834906141f2565b80156118815780601f1061185657610100808354040283529160200191611881565b820191906000526020600020905b81548152906001019060200180831161186457829003601f168201915b5050505050905060006118926129f6565b90506000815114156118a85781925050506118eb565b6000825111156118dd5780826040516020016118c5929190613ab0565b604051602081830303815290604052925050506118eb565b6118e684612a0d565b925050505b919050565b600a8060000154905081565b6000600b6000838152602001908152602001600020600101549050600b600083815260200190815260200160002060030160009054906101000a900473ffffffffffffffffffffffffffffffffffffffff1673ffffffffffffffffffffffffffffffffffffffff163373ffffffffffffffffffffffffffffffffffffffff1614156119bc576040517f08c379a00000000000000000000000000000000000000000000000000000000081526004016119b390613cfc565b60405180910390fd5b662386f26fc10000816119cf919061409c565b341015611a11576040517f08c379a0000000000000000000000000000000000000000000000000000000008152600401611a0890613bbc565b60405180910390fd5b611a1b82336123e0565b600d60003373ffffffffffffffffffffffffffffffffffffffff1673ffffffffffffffffffffffffffffffffffffffff1681526020019081526020016000206000815480929190611a6b90614255565b91905055506000600d60003373ffffffffffffffffffffffffffffffffffffffff1673ffffffffffffffffffffffffffffffffffffffff168152602001908152602001600020549050600081118015611ad057506000600582611ace919061429e565b145b15611b2d576064600c60003373ffffffffffffffffffffffffffffffffffffffff1673ffffffffffffffffffffffffffffffffffffffff1681526020019081526020016000206000828254611b259190614015565b925050819055505b505050565b6000600560008473ffffffffffffffffffffffffffffffffffffffff1673ffffffffffffffffffffffffffffffffffffffff16815260200190815260200160002060008373ffffffffffffffffffffffffffffffffffffffff1673ffffffffffffffffffffffffffffffffffffffff16815260200190815260200160002060009054906101000a900460ff16905092915050565b611bce611fcc565b73ffffffffffffffffffffffffffffffffffffffff16611bec6113c8565b73ffffffffffffffffffffffffffffffffffffffff1614611c42576040517f08c379a0000000000000000000000000000000000000000000000000000000008152600401611c3990613e1c565b60405180910390fd5b600073ffffffffffffffffffffffffffffffffffffffff168173ffffffffffffffffffffffffffffffffffffffff161415611cb2576040517f08c379a0000000000000000000000000000000000000000000000000000000008152600401611ca990613bfc565b60405180910390fd5b611cbb8161250a565b50565b60098060000154905081565b60606000611cd8600a6123d2565b611ce260096123d2565b611cec91906140f6565b90506000808267ffffffffffffffff811115611d31577f4e487b7100000000000000000000000000000000000000000000000000000000600052604160045260246000fd5b604051908082528060200260200182016040528015611d6a57816020015b611d5761305a565b815260200190600190039081611d4f5790505b50905060005b611d7a60086123d2565b811015611eec57611d8a816114f2565b15611edb57600b60008281526020019081526020016000206040518060a001604052908160008201548152602001600182015481526020016002820160009054906101000a900473ffffffffffffffffffffffffffffffffffffffff1673ffffffffffffffffffffffffffffffffffffffff1673ffffffffffffffffffffffffffffffffffffffff1681526020016003820160009054906101000a900473ffffffffffffffffffffffffffffffffffffffff1673ffffffffffffffffffffffffffffffffffffffff1673ffffffffffffffffffffffffffffffffffffffff1681526020016003820160149054906101000a900460ff161515151581525050828481518110611ec1577f4e487b7100000000000000000000000000000000000000000000000000000000600052603260045260246000fd5b60200260200101819052508280611ed790614255565b9350505b80611ee590614255565b9050611d70565b5080935050505090565b60007f01ffc9a7000000000000000000000000000000000000000000000000000000007bffffffffffffffffffffffffffffffffffffffffffffffffffffffff1916827bffffffffffffffffffffffffffffffffffffffffffffffffffffffff1916149050919050565b60008073ffffffffffffffffffffffffffffffffffffffff166002600084815260200190815260200160002060009054906101000a900473ffffffffffffffffffffffffffffffffffffffff1673ffffffffffffffffffffffffffffffffffffffff1614159050919050565b600033905090565b816004600083815260200190815260200160002060006101000a81548173ffffffffffffffffffffffffffffffffffffffff021916908373ffffffffffffffffffffffffffffffffffffffff160217905550808273ffffffffffffffffffffffffffffffffffffffff16612047836110ed565b73ffffffffffffffffffffffffffffffffffffffff167f8c5be1e5ebec7d5bd14f71427d1e84f3dd0314c0f7b2291e5b200ac8c7c3b92560405160405180910390a45050565b600061209882611f60565b6120d7576040517f08c379a00000000000000000000000000000000000000000000000000000000081526004016120ce90613cbc565b60405180910390fd5b60006120e2836110ed565b90508073ffffffffffffffffffffffffffffffffffffffff168473ffffffffffffffffffffffffffffffffffffffff16148061212457506121238185611b32565b5b8061216257508373ffffffffffffffffffffffffffffffffffffffff1661214a84610903565b73ffffffffffffffffffffffffffffffffffffffff16145b91505092915050565b8273ffffffffffffffffffffffffffffffffffffffff1661218b826110ed565b73ffffffffffffffffffffffffffffffffffffffff16146121e1576040517f08c379a00000000000000000000000000000000000000000000000000000000081526004016121d890613c1c565b60405180910390fd5b600073ffffffffffffffffffffffffffffffffffffffff168273ffffffffffffffffffffffffffffffffffffffff161415612251576040517f08c379a000000000000000000000000000000000000000000000000000000000815260040161224890613c5c565b60405180910390fd5b61225c838383612ab4565b612267600082611fd4565b6001600360008573ffffffffffffffffffffffffffffffffffffffff1673ffffffffffffffffffffffffffffffffffffffff16815260200190815260200160002060008282546122b791906140f6565b925050819055506001600360008473ffffffffffffffffffffffffffffffffffffffff1673ffffffffffffffffffffffffffffffffffffffff168152602001908152602001600020600082825461230e9190614015565b92505081905550816002600083815260200190815260200160002060006101000a81548173ffffffffffffffffffffffffffffffffffffffff021916908373ffffffffffffffffffffffffffffffffffffffff160217905550808273ffffffffffffffffffffffffffffffffffffffff168473ffffffffffffffffffffffffffffffffffffffff167fddf252ad1be2c89b69c2b068fc378daa952ba7f163c4a11628f55a4df523b3ef60405160405180910390a46123cd838383612ab9565b505050565b600081600001549050919050565b6001600b600084815260200190815260200160002060030160146101000a81548160ff02191690831515021790555080600b600084815260200190815260200160002060020160006101000a81548173ffffffffffffffffffffffffffffffffffffffff021916908373ffffffffffffffffffffffffffffffffffffffff1602179055506000600b600084815260200190815260200160002060030160006101000a81548173ffffffffffffffffffffffffffffffffffffffff021916908373ffffffffffffffffffffffffffffffffffffffff1602179055506124c4600a612785565b6124cf30828461216b565b7ffcb0368c1179fddb35b83cbadaddad92bea989131ade5eda5f4b30fa4ba75fe1826040516124fe9190613e9c565b60405180910390a15050565b6000600760009054906101000a900473ffffffffffffffffffffffffffffffffffffffff16905081600760006101000a81548173ffffffffffffffffffffffffffffffffffffffff021916908373ffffffffffffffffffffffffffffffffffffffff1602179055508173ffffffffffffffffffffffffffffffffffffffff168173ffffffffffffffffffffffffffffffffffffffff167f8be0079c531659141344cd1fd0a4f28419497f9722a3daafe3b4186f6b6457e060405160405180910390a35050565b60008111612613576040517f08c379a000000000000000000000000000000000000000000000000000000000815260040161260a90613d9c565b60405180910390fd5b6040518060a001604052808381526020018281526020013073ffffffffffffffffffffffffffffffffffffffff1681526020013373ffffffffffffffffffffffffffffffffffffffff16815260200160001515815250600b6000848152602001908152602001600020600082015181600001556020820151816001015560408201518160020160006101000a81548173ffffffffffffffffffffffffffffffffffffffff021916908373ffffffffffffffffffffffffffffffffffffffff16021790555060608201518160030160006101000a81548173ffffffffffffffffffffffffffffffffffffffff021916908373ffffffffffffffffffffffffffffffffffffffff16021790555060808201518160030160146101000a81548160ff0219169083151502179055509050507f51d29fe857aacbe7183bb66c287250e989b91b215435bb64e76319cc95425b22828230336000604051612779959493929190613eb7565b60405180910390a15050565b6001816000016000828254019250508190555050565b8173ffffffffffffffffffffffffffffffffffffffff168373ffffffffffffffffffffffffffffffffffffffff16141561280a576040517f08c379a000000000000000000000000000000000000000000000000000000000815260040161280190613c7c565b60405180910390fd5b80600560008573ffffffffffffffffffffffffffffffffffffffff1673ffffffffffffffffffffffffffffffffffffffff16815260200190815260200160002060008473ffffffffffffffffffffffffffffffffffffffff1673ffffffffffffffffffffffffffffffffffffffff16815260200190815260200160002060006101000a81548160ff0219169083151502179055508173ffffffffffffffffffffffffffffffffffffffff168373ffffffffffffffffffffffffffffffffffffffff167f17307eab39ab6107e8899845ad3d59bd9653f200f220920489ca2b5937696c31836040516128fb9190613b7f565b60405180910390a3505050565b61291384848461216b565b61291f84848484612abe565b61295e576040517f08c379a000000000000000000000000000000000000000000000000000000000815260040161295590613bdc565b60405180910390fd5b50505050565b61297e828260405180602001604052806000815250612c55565b5050565b61298b82611f60565b6129ca576040517f08c379a00000000000000000000000000000000000000000000000000000000081526004016129c190613d7c565b60405180910390fd5b806006600084815260200190815260200160002090805190602001906129f19291906130b7565b505050565b606060405180602001604052806000815250905090565b6060612a1882611f60565b612a57576040517f08c379a0000000000000000000000000000000000000000000000000000000008152600401612a4e90613e3c565b60405180910390fd5b6000612a616129f6565b90506000815111612a815760405180602001604052806000815250612aac565b80612a8b84612cb0565b604051602001612a9c929190613ab0565b6040516020818303038152906040525b915050919050565b505050565b505050565b6000612adf8473ffffffffffffffffffffffffffffffffffffffff16612e5d565b15612c48578373ffffffffffffffffffffffffffffffffffffffff1663150b7a02612b08611fcc565b8786866040518563ffffffff1660e01b8152600401612b2a9493929190613aef565b602060405180830381600087803b158015612b4457600080fd5b505af1925050508015612b7557506040513d601f19601f82011682018060405250810190612b729190613445565b60015b612bf8573d8060008114612ba5576040519150601f19603f3d011682016040523d82523d6000602084013e612baa565b606091505b50600081511415612bf0576040517f08c379a0000000000000000000000000000000000000000000000000000000008152600401612be790613bdc565b60405180910390fd5b805181602001fd5b63150b7a0260e01b7bffffffffffffffffffffffffffffffffffffffffffffffffffffffff1916817bffffffffffffffffffffffffffffffffffffffffffffffffffffffff191614915050612c4d565b600190505b949350505050565b612c5f8383612e80565b612c6c6000848484612abe565b612cab576040517f08c379a0000000000000000000000000000000000000000000000000000000008152600401612ca290613bdc565b60405180910390fd5b505050565b60606000821415612cf8576040518060400160405280600181526020017f30000000000000000000000000000000000000000000000000000000000000008152509050612e58565b600082905060005b60008214612d2a578080612d1390614255565b915050600a82612d23919061406b565b9150612d00565b60008167ffffffffffffffff811115612d6c577f4e487b7100000000000000000000000000000000000000000000000000000000600052604160045260246000fd5b6040519080825280601f01601f191660200182016040528015612d9e5781602001600182028036833780820191505090505b5090505b60008514612e5157600182612db791906140f6565b9150600a85612dc6919061429e565b6030612dd29190614015565b60f81b818381518110612e0e577f4e487b7100000000000000000000000000000000000000000000000000000000600052603260045260246000fd5b60200101907effffffffffffffffffffffffffffffffffffffffffffffffffffffffffffff1916908160001a905350600a85612e4a919061406b565b9450612da2565b8093505050505b919050565b6000808273ffffffffffffffffffffffffffffffffffffffff163b119050919050565b600073ffffffffffffffffffffffffffffffffffffffff168273ffffffffffffffffffffffffffffffffffffffff161415612ef0576040517f08c379a0000000000000000000000000000000000000000000000000000000008152600401612ee790613dbc565b60405180910390fd5b612ef981611f60565b15612f39576040517f08c379a0000000000000000000000000000000000000000000000000000000008152600401612f3090613c3c565b60405180910390fd5b612f4560008383612ab4565b6001600360008473ffffffffffffffffffffffffffffffffffffffff1673ffffffffffffffffffffffffffffffffffffffff1681526020019081526020016000206000828254612f959190614015565b92505081905550816002600083815260200190815260200160002060006101000a81548173ffffffffffffffffffffffffffffffffffffffff021916908373ffffffffffffffffffffffffffffffffffffffff160217905550808273ffffffffffffffffffffffffffffffffffffffff16600073ffffffffffffffffffffffffffffffffffffffff167fddf252ad1be2c89b69c2b068fc378daa952ba7f163c4a11628f55a4df523b3ef60405160405180910390a461305660008383612ab9565b5050565b6040518060a001604052806000815260200160008152602001600073ffffffffffffffffffffffffffffffffffffffff168152602001600073ffffffffffffffffffffffffffffffffffffffff1681526020016000151581525090565b8280546130c3906141f2565b90600052602060002090601f0160209004810192826130e5576000855561312c565b82601f106130fe57805160ff191683800117855561312c565b8280016001018555821561312c579182015b8281111561312b578251825591602001919060010190613110565b5b509050613139919061313d565b5090565b5b8082111561315657600081600090555060010161313e565b5090565b600061316d61316884613f2f565b613f0a565b90508281526020810184848401111561318557600080fd5b6131908482856141b0565b509392505050565b6000813590506131a781614985565b92915050565b6000813590506131bc8161499c565b92915050565b6000813590506131d1816149b3565b92915050565b6000815190506131e6816149b3565b92915050565b600082601f8301126131fd57600080fd5b813561320d84826020860161315a565b91505092915050565b60008083601f84011261322857600080fd5b8235905067ffffffffffffffff81111561324157600080fd5b60208301915083600182028301111561325957600080fd5b9250929050565b60008135905061326f816149ca565b92915050565b60006020828403121561328757600080fd5b600061329584828501613198565b91505092915050565b600080604083850312156132b157600080fd5b60006132bf85828601613198565b92505060206132d085828601613198565b9150509250929050565b6000806000606084860312156132ef57600080fd5b60006132fd86828701613198565b935050602061330e86828701613198565b925050604061331f86828701613260565b9150509250925092565b6000806000806080858703121561333f57600080fd5b600061334d87828801613198565b945050602061335e87828801613198565b935050604061336f87828801613260565b925050606085013567ffffffffffffffff81111561338c57600080fd5b613398878288016131ec565b91505092959194509250565b600080604083850312156133b757600080fd5b60006133c585828601613198565b92505060206133d6858286016131ad565b9150509250929050565b600080604083850312156133f357600080fd5b600061340185828601613198565b925050602061341285828601613260565b9150509250929050565b60006020828403121561342e57600080fd5b600061343c848285016131c2565b91505092915050565b60006020828403121561345757600080fd5b6000613465848285016131d7565b91505092915050565b60008060006040848603121561348357600080fd5b600084013567ffffffffffffffff81111561349d57600080fd5b6134a986828701613216565b935093505060206134bc86828701613260565b9150509250925092565b6000602082840312156134d857600080fd5b60006134e684828501613260565b91505092915050565b6000806040838503121561350257600080fd5b600061351085828601613260565b925050602061352185828601613260565b9150509250929050565b60006135378383613a2a565b60a08301905092915050565b600061354f8383613a92565b60208301905092915050565b6135648161413c565b82525050565b6135738161413c565b82525050565b6135828161412a565b82525050565b600061359382613f80565b61359d8185613fc6565b93506135a883613f60565b8060005b838110156135d95781516135c0888261352b565b97506135cb83613fac565b9250506001810190506135ac565b5085935050505092915050565b60006135f182613f8b565b6135fb8185613fd7565b935061360683613f70565b8060005b8381101561363757815161361e8882613543565b975061362983613fb9565b92505060018101905061360a565b5085935050505092915050565b61364d8161414e565b82525050565b61365c8161414e565b82525050565b600061366d82613f96565b6136778185613fe8565b93506136878185602086016141bf565b6136908161438b565b840191505092915050565b60006136a682613fa1565b6136b08185613ff9565b93506136c08185602086016141bf565b6136c98161438b565b840191505092915050565b60006136df82613fa1565b6136e9818561400a565b93506136f98185602086016141bf565b80840191505092915050565b6000613712601d83613ff9565b915061371d8261439c565b602082019050919050565b6000613735603283613ff9565b9150613740826143c5565b604082019050919050565b6000613758602683613ff9565b915061376382614414565b604082019050919050565b600061377b602583613ff9565b915061378682614463565b604082019050919050565b600061379e601c83613ff9565b91506137a9826144b2565b602082019050919050565b60006137c1602483613ff9565b91506137cc826144db565b604082019050919050565b60006137e4601983613ff9565b91506137ef8261452a565b602082019050919050565b6000613807601283613ff9565b915061381282614553565b602082019050919050565b600061382a602c83613ff9565b91506138358261457c565b604082019050919050565b600061384d602483613ff9565b9150613858826145cb565b604082019050919050565b6000613870601b83613ff9565b915061387b8261461a565b602082019050919050565b6000613893603883613ff9565b915061389e82614643565b604082019050919050565b60006138b6602a83613ff9565b91506138c182614692565b604082019050919050565b60006138d9602983613ff9565b91506138e4826146e1565b604082019050919050565b60006138fc602e83613ff9565b915061390782614730565b604082019050919050565b600061391f601383613ff9565b915061392a8261477f565b602082019050919050565b6000613942602083613ff9565b915061394d826147a8565b602082019050919050565b6000613965603183613ff9565b9150613970826147d1565b604082019050919050565b6000613988602c83613ff9565b915061399382614820565b604082019050919050565b60006139ab602083613ff9565b91506139b68261486f565b602082019050919050565b60006139ce602f83613ff9565b91506139d982614898565b604082019050919050565b60006139f1602183613ff9565b91506139fc826148e7565b604082019050919050565b6000613a14603183613ff9565b9150613a1f82614936565b604082019050919050565b60a082016000820151613a406000850182613a92565b506020820151613a536020850182613a92565b506040820151613a66604085018261355b565b506060820151613a79606085018261355b565b506080820151613a8c6080850182613644565b50505050565b613a9b816141a6565b82525050565b613aaa816141a6565b82525050565b6000613abc82856136d4565b9150613ac882846136d4565b91508190509392505050565b6000602082019050613ae96000830184613579565b92915050565b6000608082019050613b046000830187613579565b613b116020830186613579565b613b1e6040830185613aa1565b8181036060830152613b308184613662565b905095945050505050565b60006020820190508181036000830152613b558184613588565b905092915050565b60006020820190508181036000830152613b7781846135e6565b905092915050565b6000602082019050613b946000830184613653565b92915050565b60006020820190508181036000830152613bb4818461369b565b905092915050565b60006020820190508181036000830152613bd581613705565b9050919050565b60006020820190508181036000830152613bf581613728565b9050919050565b60006020820190508181036000830152613c158161374b565b9050919050565b60006020820190508181036000830152613c358161376e565b9050919050565b60006020820190508181036000830152613c5581613791565b9050919050565b60006020820190508181036000830152613c75816137b4565b9050919050565b60006020820190508181036000830152613c95816137d7565b9050919050565b60006020820190508181036000830152613cb5816137fa565b9050919050565b60006020820190508181036000830152613cd58161381d565b9050919050565b60006020820190508181036000830152613cf581613840565b9050919050565b60006020820190508181036000830152613d1581613863565b9050919050565b60006020820190508181036000830152613d3581613886565b9050919050565b60006020820190508181036000830152613d55816138a9565b9050919050565b60006020820190508181036000830152613d75816138cc565b9050919050565b60006020820190508181036000830152613d95816138ef565b9050919050565b60006020820190508181036000830152613db581613912565b9050919050565b60006020820190508181036000830152613dd581613935565b9050919050565b60006020820190508181036000830152613df581613958565b9050919050565b60006020820190508181036000830152613e158161397b565b9050919050565b60006020820190508181036000830152613e358161399e565b9050919050565b60006020820190508181036000830152613e55816139c1565b9050919050565b60006020820190508181036000830152613e75816139e4565b9050919050565b60006020820190508181036000830152613e9581613a07565b9050919050565b6000602082019050613eb16000830184613aa1565b92915050565b600060a082019050613ecc6000830188613aa1565b613ed96020830187613aa1565b613ee6604083018661356a565b613ef3606083018561356a565b613f006080830184613653565b9695505050505050565b6000613f14613f25565b9050613f208282614224565b919050565b6000604051905090565b600067ffffffffffffffff821115613f4a57613f4961435c565b5b613f538261438b565b9050602081019050919050565b6000819050602082019050919050565b6000819050602082019050919050565b600081519050919050565b600081519050919050565b600081519050919050565b600081519050919050565b6000602082019050919050565b6000602082019050919050565b600082825260208201905092915050565b600082825260208201905092915050565b600082825260208201905092915050565b600082825260208201905092915050565b600081905092915050565b6000614020826141a6565b915061402b836141a6565b9250827fffffffffffffffffffffffffffffffffffffffffffffffffffffffffffffffff038211156140605761405f6142cf565b5b828201905092915050565b6000614076826141a6565b9150614081836141a6565b925082614091576140906142fe565b5b828204905092915050565b60006140a7826141a6565b91506140b2836141a6565b9250817fffffffffffffffffffffffffffffffffffffffffffffffffffffffffffffffff04831182151516156140eb576140ea6142cf565b5b828202905092915050565b6000614101826141a6565b915061410c836141a6565b92508282101561411f5761411e6142cf565b5b828203905092915050565b600061413582614186565b9050919050565b600061414782614186565b9050919050565b60008115159050919050565b60007fffffffff0000000000000000000000000000000000000000000000000000000082169050919050565b600073ffffffffffffffffffffffffffffffffffffffff82169050919050565b6000819050919050565b82818337600083830152505050565b60005b838110156141dd5780820151818401526020810190506141c2565b838111156141ec576000848401525b50505050565b6000600282049050600182168061420a57607f821691505b6020821081141561421e5761421d61432d565b5b50919050565b61422d8261438b565b810181811067ffffffffffffffff8211171561424c5761424b61435c565b5b80604052505050565b6000614260826141a6565b91507fffffffffffffffffffffffffffffffffffffffffffffffffffffffffffffffff821415614293576142926142cf565b5b600182019050919050565b60006142a9826141a6565b91506142b4836141a6565b9250826142c4576142c36142fe565b5b828206905092915050565b7f4e487b7100000000000000000000000000000000000000000000000000000000600052601160045260246000fd5b7f4e487b7100000000000000000000000000000000000000000000000000000000600052601260045260246000fd5b7f4e487b7100000000000000000000000000000000000000000000000000000000600052602260045260246000fd5b7f4e487b7100000000000000000000000000000000000000000000000000000000600052604160045260246000fd5b6000601f19601f8301169050919050565b7f66756e6473206e6f7420656e6f75676820666f72207075726368617365000000600082015250565b7f4552433732313a207472616e7366657220746f206e6f6e20455243373231526560008201527f63656976657220696d706c656d656e7465720000000000000000000000000000602082015250565b7f4f776e61626c653a206e6577206f776e657220697320746865207a65726f206160008201527f6464726573730000000000000000000000000000000000000000000000000000602082015250565b7f4552433732313a207472616e736665722066726f6d20696e636f72726563742060008201527f6f776e6572000000000000000000000000000000000000000000000000000000602082015250565b7f4552433732313a20746f6b656e20616c7265616479206d696e74656400000000600082015250565b7f4552433732313a207472616e7366657220746f20746865207a65726f2061646460008201527f7265737300000000000000000000000000000000000000000000000000000000602082015250565b7f4552433732313a20617070726f766520746f2063616c6c657200000000000000600082015250565b7f696e73756666696369656e7420636f696e730000000000000000000000000000600082015250565b7f4552433732313a206f70657261746f7220717565727920666f72206e6f6e657860008201527f697374656e7420746f6b656e0000000000000000000000000000000000000000602082015250565b7f4f70657261746f7220717565727920666f72206e6f6e6578697374656e74207460008201527f6f6b656e00000000000000000000000000000000000000000000000000000000602082015250565b7f73656c6c65722063616e6e6f7420627579206f776e20746f6b656e0000000000600082015250565b7f4552433732313a20617070726f76652063616c6c6572206973206e6f74206f7760008201527f6e6572206e6f7220617070726f76656420666f7220616c6c0000000000000000602082015250565b7f4552433732313a2062616c616e636520717565727920666f7220746865207a6560008201527f726f206164647265737300000000000000000000000000000000000000000000602082015250565b7f4552433732313a206f776e657220717565727920666f72206e6f6e657869737460008201527f656e7420746f6b656e0000000000000000000000000000000000000000000000602082015250565b7f45524337323155524953746f726167653a2055524920736574206f66206e6f6e60008201527f6578697374656e7420746f6b656e000000000000000000000000000000000000602082015250565b7f746f6b656e2076616c756520746f6f206c6f7700000000000000000000000000600082015250565b7f4552433732313a206d696e7420746f20746865207a65726f2061646472657373600082015250565b7f45524337323155524953746f726167653a2055524920717565727920666f722060008201527f6e6f6e6578697374656e7420746f6b656e000000000000000000000000000000602082015250565b7f4552433732313a20617070726f76656420717565727920666f72206e6f6e657860008201527f697374656e7420746f6b656e0000000000000000000000000000000000000000602082015250565b7f4f776e61626c653a2063616c6c6572206973206e6f7420746865206f776e6572600082015250565b7f4552433732314d657461646174613a2055524920717565727920666f72206e6f60008201527f6e6578697374656e7420746f6b656e0000000000000000000000000000000000602082015250565b7f4552433732313a20617070726f76616c20746f2063757272656e74206f776e6560008201527f7200000000000000000000000000000000000000000000000000000000000000602082015250565b7f4552433732313a207472616e736665722063616c6c6572206973206e6f74206f60008201527f776e6572206e6f7220617070726f766564000000000000000000000000000000602082015250565b61498e8161412a565b811461499957600080fd5b50565b6149a58161414e565b81146149b057600080fd5b50565b6149bc8161415a565b81146149c757600080fd5b50565b6149d3816141a6565b81146149de57600080fd5b5056fea2646970667358221220efb6d0effb1bba30e5a6e52524b1727514eab34d36a4cdb8e480bf297ebcc10c64736f6c63430008040033",
  "linkReferences": {},
  "deployedLinkReferences": {}
}