{
  "_format": "hh-sol-artifact-1",
  "contractName": "MultaVerse",
  "sourceName": "contracts/MultaVerse.sol",
  "abi": [
    {
      "inputs": [],
      "stateMutability": "nonpayable",
      "type": "constructor"
    },
    {
      "anonymous": false,
      "inputs": [
        {
          "indexed": true,
          "internalType": "address",
          "name": "owner",
          "type": "address"
        },
        {
          "indexed": true,
          "internalType": "address",
          "name": "approved",
          "type": "address"
        },
        {
          "indexed": true,
          "internalType": "uint256",
          "name": "tokenId",
          "type": "uint256"
        }
      ],
      "name": "Approval",
      "type": "event"
    },
    {
      "anonymous": false,
      "inputs": [
        {
          "indexed": true,
          "internalType": "address",
          "name": "owner",
          "type": "address"
        },
        {
          "indexed": true,
          "internalType": "address",
          "name": "operator",
          "type": "address"
        },
        {
          "indexed": false,
          "internalType": "bool",
          "name": "approved",
          "type": "bool"
        }
      ],
      "name": "ApprovalForAll",
      "type": "event"
    },
    {
      "anonymous": false,
      "inputs": [
        {
          "indexed": false,
          "internalType": "uint256",
          "name": "tokenId",
          "type": "uint256"
        }
      ],
      "name": "BuyToken",
      "type": "event"
    },
    {
      "anonymous": false,
      "inputs": [],
      "name": "ClaimContractFunds",
      "type": "event"
    },
    {
      "anonymous": false,
      "inputs": [
        {
          "indexed": false,
          "internalType": "uint256",
          "name": "tokenId",
          "type": "uint256"
        },
        {
          "indexed": false,
          "internalType": "uint256",
          "name": "value",
          "type": "uint256"
        },
        {
          "indexed": false,
          "internalType": "address payable",
          "name": "owner",
          "type": "address"
        },
        {
          "indexed": false,
          "internalType": "address payable",
          "name": "seller",
          "type": "address"
        },
        {
          "indexed": false,
          "internalType": "bool",
          "name": "claimed",
          "type": "bool"
        }
      ],
      "name": "MarketTokenCreated",
      "type": "event"
    },
    {
      "anonymous": false,
      "inputs": [
        {
          "indexed": true,
          "internalType": "address",
          "name": "previousOwner",
          "type": "address"
        },
        {
          "indexed": true,
          "internalType": "address",
          "name": "newOwner",
          "type": "address"
        }
      ],
      "name": "OwnershipTransferred",
      "type": "event"
    },
    {
      "anonymous": false,
      "inputs": [
        {
          "indexed": true,
          "internalType": "address",
          "name": "creator",
          "type": "address"
        },
        {
          "indexed": false,
          "internalType": "uint256",
          "name": "tokenId",
          "type": "uint256"
        }
      ],
      "name": "TokenMinted",
      "type": "event"
    },
    {
      "anonymous": false,
      "inputs": [
        {
          "indexed": true,
          "internalType": "address",
          "name": "from",
          "type": "address"
        },
        {
          "indexed": true,
          "internalType": "address",
          "name": "to",
          "type": "address"
        },
        {
          "indexed": true,
          "internalType": "uint256",
          "name": "tokenId",
          "type": "uint256"
        }
      ],
      "name": "Transfer",
      "type": "event"
    },
    {
      "inputs": [],
      "name": "_marketTokensCount",
      "outputs": [
        {
          "internalType": "uint256",
          "name": "_value",
          "type": "uint256"
        }
      ],
      "stateMutability": "view",
      "type": "function"
    },
    {
      "inputs": [],
      "name": "_marketTokensSold",
      "outputs": [
        {
          "internalType": "uint256",
          "name": "_value",
          "type": "uint256"
        }
      ],
      "stateMutability": "view",
      "type": "function"
    },
    {
      "inputs": [
        {
          "internalType": "address",
          "name": "to",
          "type": "address"
        },
        {
          "internalType": "uint256",
          "name": "tokenId",
          "type": "uint256"
        }
      ],
      "name": "approve",
      "outputs": [],
      "stateMutability": "nonpayable",
      "type": "function"
    },
    {
      "inputs": [
        {
          "internalType": "address",
          "name": "owner",
          "type": "address"
        }
      ],
      "name": "balanceOf",
      "outputs": [
        {
          "internalType": "uint256",
          "name": "",
          "type": "uint256"
        }
      ],
      "stateMutability": "view",
      "type": "function"
    },
    {
      "inputs": [
        {
          "internalType": "uint256",
          "name": "tokenId",
          "type": "uint256"
        }
      ],
      "name": "buyTokenWithCoins",
      "outputs": [],
      "stateMutability": "nonpayable",
      "type": "function"
    },
    {
      "inputs": [
        {
          "internalType": "uint256",
          "name": "tokenId",
          "type": "uint256"
        }
      ],
      "name": "buyTokenWithFund",
      "outputs": [],
      "stateMutability": "payable",
      "type": "function"
    },
    {
      "inputs": [],
      "name": "claimContractFunds",
      "outputs": [],
      "stateMutability": "payable",
      "type": "function"
    },
    {
      "inputs": [],
      "name": "contractBalance",
      "outputs": [
        {
          "internalType": "uint256",
          "name": "",
          "type": "uint256"
        }
      ],
      "stateMutability": "view",
      "type": "function"
    },
    {
      "inputs": [],
      "name": "getAllMarketTokens",
      "outputs": [
        {
          "components": [
            {
              "internalType": "uint256",
              "name": "tokenId",
              "type": "uint256"
            },
            {
              "internalType": "uint256",
              "name": "value",
              "type": "uint256"
            },
            {
              "internalType": "address payable",
              "name": "owner",
              "type": "address"
            },
            {
              "internalType": "address payable",
              "name": "seller",
              "type": "address"
            },
            {
              "internalType": "bool",
              "name": "claimed",
              "type": "bool"
            }
          ],
          "internalType": "struct MultaVerse.MarketToken[]",
          "name": "",
          "type": "tuple[]"
        }
      ],
      "stateMutability": "view",
      "type": "function"
    },
    {
      "inputs": [
        {
          "internalType": "uint256",
          "name": "tokenId",
          "type": "uint256"
        }
      ],
      "name": "getApproved",
      "outputs": [
        {
          "internalType": "address",
          "name": "",
          "type": "address"
        }
      ],
      "stateMutability": "view",
      "type": "function"
    },
    {
      "inputs": [],
      "name": "getCoinsBalance",
      "outputs": [
        {
          "internalType": "uint256",
          "name": "",
          "type": "uint256"
        }
      ],
      "stateMutability": "view",
      "type": "function"
    },
    {
      "inputs": [],
      "name": "getMyTokens",
      "outputs": [
        {
          "internalType": "uint256[]",
          "name": "",
          "type": "uint256[]"
        }
      ],
      "stateMutability": "view",
      "type": "function"
    },
    {
      "inputs": [],
      "name": "getPurchaseCount",
      "outputs": [
        {
          "internalType": "uint256",
          "name": "",
          "type": "uint256"
        }
      ],
      "stateMutability": "view",
      "type": "function"
    },
    {
      "inputs": [],
      "name": "getTokensLength",
      "outputs": [
        {
          "internalType": "uint256",
          "name": "",
          "type": "uint256"
        }
      ],
      "stateMutability": "view",
      "type": "function"
    },
    {
      "inputs": [
        {
          "internalType": "address",
          "name": "owner",
          "type": "address"
        },
        {
          "internalType": "address",
          "name": "operator",
          "type": "address"
        }
      ],
      "name": "isApprovedForAll",
      "outputs": [
        {
          "internalType": "bool",
          "name": "",
          "type": "bool"
        }
      ],
      "stateMutability": "view",
      "type": "function"
    },
    {
      "inputs": [
        {
          "internalType": "uint256",
          "name": "",
          "type": "uint256"
        }
      ],
      "name": "marketTokens",
      "outputs": [
        {
          "internalType": "uint256",
          "name": "tokenId",
          "type": "uint256"
        },
        {
          "internalType": "uint256",
          "name": "value",
          "type": "uint256"
        },
        {
          "internalType": "address payable",
          "name": "owner",
          "type": "address"
        },
        {
          "internalType": "address payable",
          "name": "seller",
          "type": "address"
        },
        {
          "internalType": "bool",
          "name": "claimed",
          "type": "bool"
        }
      ],
      "stateMutability": "view",
      "type": "function"
    },
    {
      "inputs": [
        {
          "internalType": "string",
          "name": "tokenURI",
          "type": "string"
        },
        {
          "internalType": "uint256",
          "name": "tokenValue",
          "type": "uint256"
        }
      ],
      "name": "mintToken",
      "outputs": [],
      "stateMutability": "nonpayable",
      "type": "function"
    },
    {
      "inputs": [],
      "name": "name",
      "outputs": [
        {
          "internalType": "string",
          "name": "",
          "type": "string"
        }
      ],
      "stateMutability": "view",
      "type": "function"
    },
    {
      "inputs": [],
      "name": "owner",
      "outputs": [
        {
          "internalType": "address",
          "name": "",
          "type": "address"
        }
      ],
      "stateMutability": "view",
      "type": "function"
    },
    {
      "inputs": [
        {
          "internalType": "uint256",
          "name": "tokenId",
          "type": "uint256"
        }
      ],
      "name": "ownerOf",
      "outputs": [
        {
          "internalType": "address",
          "name": "",
          "type": "address"
        }
      ],
      "stateMutability": "view",
      "type": "function"
    },
    {
      "inputs": [],
      "name": "renounceOwnership",
      "outputs": [],
      "stateMutability": "nonpayable",
      "type": "function"
    },
    {
      "inputs": [
        {
          "internalType": "address",
          "name": "from",
          "type": "address"
        },
        {
          "internalType": "address",
          "name": "to",
          "type": "address"
        },
        {
          "internalType": "uint256",
          "name": "tokenId",
          "type": "uint256"
        }
      ],
      "name": "safeTransferFrom",
      "outputs": [],
      "stateMutability": "nonpayable",
      "type": "function"
    },
    {
      "inputs": [
        {
          "internalType": "address",
          "name": "from",
          "type": "address"
        },
        {
          "internalType": "address",
          "name": "to",
          "type": "address"
        },
        {
          "internalType": "uint256",
          "name": "tokenId",
          "type": "uint256"
        },
        {
          "internalType": "bytes",
          "name": "_data",
          "type": "bytes"
        }
      ],
      "name": "safeTransferFrom",
      "outputs": [],
      "stateMutability": "nonpayable",
      "type": "function"
    },
    {
      "inputs": [
        {
          "internalType": "uint256",
          "name": "tokenId",
          "type": "uint256"
        },
        {
          "internalType": "uint256",
          "name": "tokenValue",
          "type": "uint256"
        }
      ],
      "name": "sendTokenToMarket",
      "outputs": [],
      "stateMutability": "nonpayable",
      "type": "function"
    },
    {
      "inputs": [
        {
          "internalType": "address",
          "name": "operator",
          "type": "address"
        },
        {
          "internalType": "bool",
          "name": "approved",
          "type": "bool"
        }
      ],
      "name": "setApprovalForAll",
      "outputs": [],
      "stateMutability": "nonpayable",
      "type": "function"
    },
    {
      "inputs": [
        {
          "internalType": "bytes4",
          "name": "interfaceId",
          "type": "bytes4"
        }
      ],
      "name": "supportsInterface",
      "outputs": [
        {
          "internalType": "bool",
          "name": "",
          "type": "bool"
        }
      ],
      "stateMutability": "view",
      "type": "function"
    },
    {
      "inputs": [],
      "name": "symbol",
      "outputs": [
        {
          "internalType": "string",
          "name": "",
          "type": "string"
        }
      ],
      "stateMutability": "view",
      "type": "function"
    },
    {
      "inputs": [
        {
          "internalType": "uint256",
          "name": "tokenId",
          "type": "uint256"
        }
      ],
      "name": "tokenInMarket",
      "outputs": [
        {
          "internalType": "bool",
          "name": "",
          "type": "bool"
        }
      ],
      "stateMutability": "view",
      "type": "function"
    },
    {
      "inputs": [
        {
          "internalType": "uint256",
          "name": "tokenId",
          "type": "uint256"
        }
      ],
      "name": "tokenURI",
      "outputs": [
        {
          "internalType": "string",
          "name": "",
          "type": "string"
        }
      ],
      "stateMutability": "view",
      "type": "function"
    },
    {
      "inputs": [
        {
          "internalType": "address",
          "name": "from",
          "type": "address"
        },
        {
          "internalType": "address",
          "name": "to",
          "type": "address"
        },
        {
          "internalType": "uint256",
          "name": "tokenId",
          "type": "uint256"
        }
      ],
      "name": "transferFrom",
      "outputs": [],
      "stateMutability": "nonpayable",
      "type": "function"
    },
    {
      "inputs": [
        {
          "internalType": "address",
          "name": "newOwner",
          "type": "address"
        }
      ],
      "name": "transferOwnership",
      "outputs": [],
      "stateMutability": "nonpayable",
      "type": "function"
    },
    {
      "stateMutability": "payable",
      "type": "receive"
    }
  ],
  "bytecode": "0x60806040523480156200001157600080fd5b506040518060400160405280600a81526020017f4d756c74615665727365000000000000000000000000000000000000000000008152506040518060400160405280600381526020017f4d54560000000000000000000000000000000000000000000000000000000000815250816000908051906020019062000096929190620001eb565b508060019080519060200190620000af929190620001eb565b505050620000d2620000c66200011d60201b60201c565b6200012560201b60201c565b6064600c60003373ffffffffffffffffffffffffffffffffffffffff1673ffffffffffffffffffffffffffffffffffffffff1681526020019081526020016000208190555062000300565b600033905090565b6000600760009054906101000a900473ffffffffffffffffffffffffffffffffffffffff16905081600760006101000a81548173ffffffffffffffffffffffffffffffffffffffff021916908373ffffffffffffffffffffffffffffffffffffffff1602179055508173ffffffffffffffffffffffffffffffffffffffff168173ffffffffffffffffffffffffffffffffffffffff167f8be0079c531659141344cd1fd0a4f28419497f9722a3daafe3b4186f6b6457e060405160405180910390a35050565b828054620001f9906200029b565b90600052602060002090601f0160209004810192826200021d576000855562000269565b82601f106200023857805160ff191683800117855562000269565b8280016001018555821562000269579182015b82811115620002685782518255916020019190600101906200024b565b5b5090506200027891906200027c565b5090565b5b80821115620002975760008160009055506001016200027d565b5090565b60006002820490506001821680620002b457607f821691505b60208210811415620002cb57620002ca620002d1565b5b50919050565b7f4e487b7100000000000000000000000000000000000000000000000000000000600052602260045260246000fd5b614a3f80620003106000396000f3fe6080604052600436106101dc5760003560e01c80638da5cb5b11610102578063c046372c11610095578063e985e9c511610064578063e985e9c51461069f578063f2fde38b146106dc578063f8c95ae714610705578063f9a6f10014610730576101e3565b8063c046372c146105f2578063c87b56dd1461061b578063cff4ab5114610658578063e23c806114610683576101e3565b8063b0c26ecf116100d1578063b0c26ecf14610536578063b67c19e614610561578063b88d4fde1461059e578063becd283f146105c7576101e3565b80638da5cb5b1461048c578063933db02d146104b757806395d89b41146104e2578063a22cb4651461050d576101e3565b80635b3b136a1161017a57806370a082311161014957806370a08231146103e4578063715018a6146104215780637f6a6a4e146104385780638b7afe2e14610461576101e3565b80635b3b136a146103125780635cd0c10a1461033d5780635f06018a146103665780636352211e146103a7576101e3565b8063095ea7b3116101b6578063095ea7b31461028d578063126d87df146102b657806323b872dd146102c057806342842e0e146102e9576101e3565b806301ffc9a7146101e857806306fdde0314610225578063081812fc14610250576101e3565b366101e357005b600080fd5b3480156101f457600080fd5b5061020f600480360381019061020a9190613444565b61075b565b60405161021c9190613ba7565b60405180910390f35b34801561023157600080fd5b5061023a61083d565b6040516102479190613bc2565b60405180910390f35b34801561025c57600080fd5b50610277600480360381019061027291906134ee565b6108cf565b6040516102849190613afc565b60405180910390f35b34801561029957600080fd5b506102b460048036038101906102af9190613408565b610954565b005b6102be610a6c565b005b3480156102cc57600080fd5b506102e760048036038101906102e29190613302565b610b64565b005b3480156102f557600080fd5b50610310600480360381019061030b9190613302565b610bc4565b005b34801561031e57600080fd5b50610327610be4565b6040516103349190613b85565b60405180910390f35b34801561034957600080fd5b50610364600480360381019061035f91906134ee565b610d27565b005b34801561037257600080fd5b5061038d600480360381019061038891906134ee565b611092565b60405161039e959493929190613edf565b60405180910390f35b3480156103b357600080fd5b506103ce60048036038101906103c991906134ee565b611115565b6040516103db9190613afc565b60405180910390f35b3480156103f057600080fd5b5061040b6004803603810190610406919061329d565b6111c7565b6040516104189190613ec4565b60405180910390f35b34801561042d57600080fd5b5061043661127f565b005b34801561044457600080fd5b5061045f600480360381019061045a9190613517565b611307565b005b34801561046d57600080fd5b5061047661136c565b6040516104839190613ec4565b60405180910390f35b34801561049857600080fd5b506104a16113f0565b6040516104ae9190613afc565b60405180910390f35b3480156104c357600080fd5b506104cc61141a565b6040516104d99190613ec4565b60405180910390f35b3480156104ee57600080fd5b506104f7611461565b6040516105049190613bc2565b60405180910390f35b34801561051957600080fd5b50610534600480360381019061052f91906133cc565b6114f3565b005b34801561054257600080fd5b5061054b611509565b6040516105589190613ec4565b60405180910390f35b34801561056d57600080fd5b50610588600480360381019061058391906134ee565b61151a565b6040516105959190613ba7565b60405180910390f35b3480156105aa57600080fd5b506105c560048036038101906105c09190613351565b611590565b005b3480156105d357600080fd5b506105dc6115f2565b6040516105e99190613ec4565b60405180910390f35b3480156105fe57600080fd5b5061061960048036038101906106149190613496565b611639565b005b34801561062757600080fd5b50610642600480360381019061063d91906134ee565b6117c6565b60405161064f9190613bc2565b60405180910390f35b34801561066457600080fd5b5061066d611918565b60405161067a9190613ec4565b60405180910390f35b61069d600480360381019061069891906134ee565b611924565b005b3480156106ab57600080fd5b506106c660048036038101906106c191906132c6565b611b5a565b6040516106d39190613ba7565b60405180910390f35b3480156106e857600080fd5b5061070360048036038101906106fe919061329d565b611bee565b005b34801561071157600080fd5b5061071a611ce6565b6040516107279190613ec4565b60405180910390f35b34801561073c57600080fd5b50610745611cf2565b6040516107529190613b63565b60405180910390f35b60007f80ac58cd000000000000000000000000000000000000000000000000000000007bffffffffffffffffffffffffffffffffffffffffffffffffffffffff1916827bffffffffffffffffffffffffffffffffffffffffffffffffffffffff1916148061082657507f5b5e139f000000000000000000000000000000000000000000000000000000007bffffffffffffffffffffffffffffffffffffffffffffffffffffffff1916827bffffffffffffffffffffffffffffffffffffffffffffffffffffffff1916145b80610836575061083582611f1e565b5b9050919050565b60606000805461084c9061421a565b80601f01602080910402602001604051908101604052809291908181526020018280546108789061421a565b80156108c55780601f1061089a576101008083540402835291602001916108c5565b820191906000526020600020905b8154815290600101906020018083116108a857829003601f168201915b5050505050905090565b60006108da82611f88565b610919576040517f08c379a000000000000000000000000000000000000000000000000000000000815260040161091090613e24565b60405180910390fd5b6004600083815260200190815260200160002060009054906101000a900473ffffffffffffffffffffffffffffffffffffffff169050919050565b600061095f82611115565b90508073ffffffffffffffffffffffffffffffffffffffff168373ffffffffffffffffffffffffffffffffffffffff1614156109d0576040517f08c379a00000000000000000000000000000000000000000000000000000000081526004016109c790613e84565b60405180910390fd5b8073ffffffffffffffffffffffffffffffffffffffff166109ef611ff4565b73ffffffffffffffffffffffffffffffffffffffff161480610a1e5750610a1d81610a18611ff4565b611b5a565b5b610a5d576040517f08c379a0000000000000000000000000000000000000000000000000000000008152600401610a5490613d44565b60405180910390fd5b610a678383611ffc565b505050565b610a74611ff4565b73ffffffffffffffffffffffffffffffffffffffff16610a926113f0565b73ffffffffffffffffffffffffffffffffffffffff1614610ae8576040517f08c379a0000000000000000000000000000000000000000000000000000000008152600401610adf90613e44565b60405180910390fd5b3373ffffffffffffffffffffffffffffffffffffffff166108fc610b0a61136c565b9081150290604051600060405180830381858888f19350505050158015610b35573d6000803e3d6000fd5b507f5aefc475d65558a6a18261c9a76aac2742aac845ae82a07a2e290ae976b3bd6b60405160405180910390a1565b610b75610b6f611ff4565b826120b5565b610bb4576040517f08c379a0000000000000000000000000000000000000000000000000000000008152600401610bab90613ea4565b60405180910390fd5b610bbf838383612193565b505050565b610bdf83838360405180602001604052806000815250611590565b505050565b6060600080610bf360086123fa565b90506000610c00336111c7565b67ffffffffffffffff811115610c3f577f4e487b7100000000000000000000000000000000000000000000000000000000600052604160045260246000fd5b604051908082528060200260200182016040528015610c6d5781602001602082028036833780820191505090505b50905060005b82811015610d1d573373ffffffffffffffffffffffffffffffffffffffff16610c9b82611115565b73ffffffffffffffffffffffffffffffffffffffff161415610d0c5780828581518110610cf1577f4e487b7100000000000000000000000000000000000000000000000000000000600052603260045260246000fd5b6020026020010181815250508380610d089061427d565b9450505b80610d169061427d565b9050610c73565b5080935050505090565b600b600082815260200190815260200160002060030160009054906101000a900473ffffffffffffffffffffffffffffffffffffffff1673ffffffffffffffffffffffffffffffffffffffff163373ffffffffffffffffffffffffffffffffffffffff161415610dcc576040517f08c379a0000000000000000000000000000000000000000000000000000000008152600401610dc390613d24565b60405180910390fd5b600b600082815260200190815260200160002060010154600c60003373ffffffffffffffffffffffffffffffffffffffff1673ffffffffffffffffffffffffffffffffffffffff168152602001908152602001600020541015610e64576040517f08c379a0000000000000000000000000000000000000000000000000000000008152600401610e5b90613cc4565b60405180910390fd5b600b600082815260200190815260200160002060010154600c60003373ffffffffffffffffffffffffffffffffffffffff1673ffffffffffffffffffffffffffffffffffffffff1681526020019081526020016000206000828254610ec9919061411e565b92505081905550600b600082815260200190815260200160002060010154600c6000600b600085815260200190815260200160002060030160009054906101000a900473ffffffffffffffffffffffffffffffffffffffff1673ffffffffffffffffffffffffffffffffffffffff1673ffffffffffffffffffffffffffffffffffffffff1681526020019081526020016000206000828254610f6b919061403d565b92505081905550610f7c8133612408565b600d60003373ffffffffffffffffffffffffffffffffffffffff1673ffffffffffffffffffffffffffffffffffffffff1681526020019081526020016000206000815480929190610fcc9061427d565b91905055506000600d60003373ffffffffffffffffffffffffffffffffffffffff1673ffffffffffffffffffffffffffffffffffffffff1681526020019081526020016000205490506000811180156110315750600060058261102f91906142c6565b145b1561108e576064600c60003373ffffffffffffffffffffffffffffffffffffffff1673ffffffffffffffffffffffffffffffffffffffff1681526020019081526020016000206000828254611086919061403d565b925050819055505b5050565b600b6020528060005260406000206000915090508060000154908060010154908060020160009054906101000a900473ffffffffffffffffffffffffffffffffffffffff16908060030160009054906101000a900473ffffffffffffffffffffffffffffffffffffffff16908060030160149054906101000a900460ff16905085565b6000806002600084815260200190815260200160002060009054906101000a900473ffffffffffffffffffffffffffffffffffffffff169050600073ffffffffffffffffffffffffffffffffffffffff168173ffffffffffffffffffffffffffffffffffffffff1614156111be576040517f08c379a00000000000000000000000000000000000000000000000000000000081526004016111b590613d84565b60405180910390fd5b80915050919050565b60008073ffffffffffffffffffffffffffffffffffffffff168273ffffffffffffffffffffffffffffffffffffffff161415611238576040517f08c379a000000000000000000000000000000000000000000000000000000000815260040161122f90613d64565b60405180910390fd5b600360008373ffffffffffffffffffffffffffffffffffffffff1673ffffffffffffffffffffffffffffffffffffffff168152602001908152602001600020549050919050565b611287611ff4565b73ffffffffffffffffffffffffffffffffffffffff166112a56113f0565b73ffffffffffffffffffffffffffffffffffffffff16146112fb576040517f08c379a00000000000000000000000000000000000000000000000000000000081526004016112f290613e44565b60405180910390fd5b6113056000612532565b565b8161131181611115565b73ffffffffffffffffffffffffffffffffffffffff163373ffffffffffffffffffffffffffffffffffffffff161461134857600080fd5b61135283836125f8565b61135c60096127ad565b611367333085612193565b505050565b6000611376611ff4565b73ffffffffffffffffffffffffffffffffffffffff166113946113f0565b73ffffffffffffffffffffffffffffffffffffffff16146113ea576040517f08c379a00000000000000000000000000000000000000000000000000000000081526004016113e190613e44565b60405180910390fd5b47905090565b6000600760009054906101000a900473ffffffffffffffffffffffffffffffffffffffff16905090565b6000600c60003373ffffffffffffffffffffffffffffffffffffffff1673ffffffffffffffffffffffffffffffffffffffff16815260200190815260200160002054905090565b6060600180546114709061421a565b80601f016020809104026020016040519081016040528092919081815260200182805461149c9061421a565b80156114e95780601f106114be576101008083540402835291602001916114e9565b820191906000526020600020905b8154815290600101906020018083116114cc57829003601f168201915b5050505050905090565b6115056114fe611ff4565b83836127c3565b5050565b600061151560086123fa565b905090565b600061152582611f88565b611564576040517f08c379a000000000000000000000000000000000000000000000000000000000815260040161155b90613d04565b60405180910390fd5b600b600083815260200190815260200160002060030160149054906101000a900460ff16159050919050565b6115a161159b611ff4565b836120b5565b6115e0576040517f08c379a00000000000000000000000000000000000000000000000000000000081526004016115d790613ea4565b60405180910390fd5b6115ec84848484612930565b50505050565b6000600d60003373ffffffffffffffffffffffffffffffffffffffff1673ffffffffffffffffffffffffffffffffffffffff16815260200190815260200160002054905090565b611641611ff4565b73ffffffffffffffffffffffffffffffffffffffff1661165f6113f0565b73ffffffffffffffffffffffffffffffffffffffff16146116b5576040517f08c379a00000000000000000000000000000000000000000000000000000000081526004016116ac90613e44565b60405180910390fd5b600081116116f8576040517f08c379a00000000000000000000000000000000000000000000000000000000081526004016116ef90613dc4565b60405180910390fd5b600061170460086123fa565b905061171060086127ad565b61171a338261298c565b6117688185858080601f016020809104026020016040519081016040528093929190818152602001838380828437600081840152601f19601f820116905080830192505050505050506129aa565b6117728183611307565b3373ffffffffffffffffffffffffffffffffffffffff167fb9144c96c86541f6fa89c9f2f02495cccf4b08cd6643e26d34ee00aa586558a8826040516117b89190613ec4565b60405180910390a250505050565b60606117d182611f88565b611810576040517f08c379a000000000000000000000000000000000000000000000000000000000815260040161180790613e04565b60405180910390fd5b60006006600084815260200190815260200160002080546118309061421a565b80601f016020809104026020016040519081016040528092919081815260200182805461185c9061421a565b80156118a95780601f1061187e576101008083540402835291602001916118a9565b820191906000526020600020905b81548152906001019060200180831161188c57829003601f168201915b5050505050905060006118ba612a1e565b90506000815114156118d0578192505050611913565b6000825111156119055780826040516020016118ed929190613ad8565b60405160208183030381529060405292505050611913565b61190e84612a35565b925050505b919050565b600a8060000154905081565b6000600b6000838152602001908152602001600020600101549050600b600083815260200190815260200160002060030160009054906101000a900473ffffffffffffffffffffffffffffffffffffffff1673ffffffffffffffffffffffffffffffffffffffff163373ffffffffffffffffffffffffffffffffffffffff1614156119e4576040517f08c379a00000000000000000000000000000000000000000000000000000000081526004016119db90613d24565b60405180910390fd5b662386f26fc10000816119f791906140c4565b341015611a39576040517f08c379a0000000000000000000000000000000000000000000000000000000008152600401611a3090613be4565b60405180910390fd5b611a438233612408565b600d60003373ffffffffffffffffffffffffffffffffffffffff1673ffffffffffffffffffffffffffffffffffffffff1681526020019081526020016000206000815480929190611a939061427d565b91905055506000600d60003373ffffffffffffffffffffffffffffffffffffffff1673ffffffffffffffffffffffffffffffffffffffff168152602001908152602001600020549050600081118015611af857506000600582611af691906142c6565b145b15611b55576064600c60003373ffffffffffffffffffffffffffffffffffffffff1673ffffffffffffffffffffffffffffffffffffffff1681526020019081526020016000206000828254611b4d919061403d565b925050819055505b505050565b6000600560008473ffffffffffffffffffffffffffffffffffffffff1673ffffffffffffffffffffffffffffffffffffffff16815260200190815260200160002060008373ffffffffffffffffffffffffffffffffffffffff1673ffffffffffffffffffffffffffffffffffffffff16815260200190815260200160002060009054906101000a900460ff16905092915050565b611bf6611ff4565b73ffffffffffffffffffffffffffffffffffffffff16611c146113f0565b73ffffffffffffffffffffffffffffffffffffffff1614611c6a576040517f08c379a0000000000000000000000000000000000000000000000000000000008152600401611c6190613e44565b60405180910390fd5b600073ffffffffffffffffffffffffffffffffffffffff168173ffffffffffffffffffffffffffffffffffffffff161415611cda576040517f08c379a0000000000000000000000000000000000000000000000000000000008152600401611cd190613c24565b60405180910390fd5b611ce381612532565b50565b60098060000154905081565b60606000611d00600a6123fa565b611d0a60096123fa565b611d14919061411e565b90506000808267ffffffffffffffff811115611d59577f4e487b7100000000000000000000000000000000000000000000000000000000600052604160045260246000fd5b604051908082528060200260200182016040528015611d9257816020015b611d7f613082565b815260200190600190039081611d775790505b50905060005b611da260086123fa565b811015611f1457611db28161151a565b15611f0357600b60008281526020019081526020016000206040518060a001604052908160008201548152602001600182015481526020016002820160009054906101000a900473ffffffffffffffffffffffffffffffffffffffff1673ffffffffffffffffffffffffffffffffffffffff1673ffffffffffffffffffffffffffffffffffffffff1681526020016003820160009054906101000a900473ffffffffffffffffffffffffffffffffffffffff1673ffffffffffffffffffffffffffffffffffffffff1673ffffffffffffffffffffffffffffffffffffffff1681526020016003820160149054906101000a900460ff161515151581525050828481518110611ee9577f4e487b7100000000000000000000000000000000000000000000000000000000600052603260045260246000fd5b60200260200101819052508280611eff9061427d565b9350505b80611f0d9061427d565b9050611d98565b5080935050505090565b60007f01ffc9a7000000000000000000000000000000000000000000000000000000007bffffffffffffffffffffffffffffffffffffffffffffffffffffffff1916827bffffffffffffffffffffffffffffffffffffffffffffffffffffffff1916149050919050565b60008073ffffffffffffffffffffffffffffffffffffffff166002600084815260200190815260200160002060009054906101000a900473ffffffffffffffffffffffffffffffffffffffff1673ffffffffffffffffffffffffffffffffffffffff1614159050919050565b600033905090565b816004600083815260200190815260200160002060006101000a81548173ffffffffffffffffffffffffffffffffffffffff021916908373ffffffffffffffffffffffffffffffffffffffff160217905550808273ffffffffffffffffffffffffffffffffffffffff1661206f83611115565b73ffffffffffffffffffffffffffffffffffffffff167f8c5be1e5ebec7d5bd14f71427d1e84f3dd0314c0f7b2291e5b200ac8c7c3b92560405160405180910390a45050565b60006120c082611f88565b6120ff576040517f08c379a00000000000000000000000000000000000000000000000000000000081526004016120f690613ce4565b60405180910390fd5b600061210a83611115565b90508073ffffffffffffffffffffffffffffffffffffffff168473ffffffffffffffffffffffffffffffffffffffff16148061214c575061214b8185611b5a565b5b8061218a57508373ffffffffffffffffffffffffffffffffffffffff16612172846108cf565b73ffffffffffffffffffffffffffffffffffffffff16145b91505092915050565b8273ffffffffffffffffffffffffffffffffffffffff166121b382611115565b73ffffffffffffffffffffffffffffffffffffffff1614612209576040517f08c379a000000000000000000000000000000000000000000000000000000000815260040161220090613c44565b60405180910390fd5b600073ffffffffffffffffffffffffffffffffffffffff168273ffffffffffffffffffffffffffffffffffffffff161415612279576040517f08c379a000000000000000000000000000000000000000000000000000000000815260040161227090613c84565b60405180910390fd5b612284838383612adc565b61228f600082611ffc565b6001600360008573ffffffffffffffffffffffffffffffffffffffff1673ffffffffffffffffffffffffffffffffffffffff16815260200190815260200160002060008282546122df919061411e565b925050819055506001600360008473ffffffffffffffffffffffffffffffffffffffff1673ffffffffffffffffffffffffffffffffffffffff1681526020019081526020016000206000828254612336919061403d565b92505081905550816002600083815260200190815260200160002060006101000a81548173ffffffffffffffffffffffffffffffffffffffff021916908373ffffffffffffffffffffffffffffffffffffffff160217905550808273ffffffffffffffffffffffffffffffffffffffff168473ffffffffffffffffffffffffffffffffffffffff167fddf252ad1be2c89b69c2b068fc378daa952ba7f163c4a11628f55a4df523b3ef60405160405180910390a46123f5838383612ae1565b505050565b600081600001549050919050565b6001600b600084815260200190815260200160002060030160146101000a81548160ff02191690831515021790555080600b600084815260200190815260200160002060020160006101000a81548173ffffffffffffffffffffffffffffffffffffffff021916908373ffffffffffffffffffffffffffffffffffffffff1602179055506000600b600084815260200190815260200160002060030160006101000a81548173ffffffffffffffffffffffffffffffffffffffff021916908373ffffffffffffffffffffffffffffffffffffffff1602179055506124ec600a6127ad565b6124f7308284612193565b7ffcb0368c1179fddb35b83cbadaddad92bea989131ade5eda5f4b30fa4ba75fe1826040516125269190613ec4565b60405180910390a15050565b6000600760009054906101000a900473ffffffffffffffffffffffffffffffffffffffff16905081600760006101000a81548173ffffffffffffffffffffffffffffffffffffffff021916908373ffffffffffffffffffffffffffffffffffffffff1602179055508173ffffffffffffffffffffffffffffffffffffffff168173ffffffffffffffffffffffffffffffffffffffff167f8be0079c531659141344cd1fd0a4f28419497f9722a3daafe3b4186f6b6457e060405160405180910390a35050565b6000811161263b576040517f08c379a000000000000000000000000000000000000000000000000000000000815260040161263290613dc4565b60405180910390fd5b6040518060a001604052808381526020018281526020013073ffffffffffffffffffffffffffffffffffffffff1681526020013373ffffffffffffffffffffffffffffffffffffffff16815260200160001515815250600b6000848152602001908152602001600020600082015181600001556020820151816001015560408201518160020160006101000a81548173ffffffffffffffffffffffffffffffffffffffff021916908373ffffffffffffffffffffffffffffffffffffffff16021790555060608201518160030160006101000a81548173ffffffffffffffffffffffffffffffffffffffff021916908373ffffffffffffffffffffffffffffffffffffffff16021790555060808201518160030160146101000a81548160ff0219169083151502179055509050507f51d29fe857aacbe7183bb66c287250e989b91b215435bb64e76319cc95425b228282303360006040516127a1959493929190613edf565b60405180910390a15050565b6001816000016000828254019250508190555050565b8173ffffffffffffffffffffffffffffffffffffffff168373ffffffffffffffffffffffffffffffffffffffff161415612832576040517f08c379a000000000000000000000000000000000000000000000000000000000815260040161282990613ca4565b60405180910390fd5b80600560008573ffffffffffffffffffffffffffffffffffffffff1673ffffffffffffffffffffffffffffffffffffffff16815260200190815260200160002060008473ffffffffffffffffffffffffffffffffffffffff1673ffffffffffffffffffffffffffffffffffffffff16815260200190815260200160002060006101000a81548160ff0219169083151502179055508173ffffffffffffffffffffffffffffffffffffffff168373ffffffffffffffffffffffffffffffffffffffff167f17307eab39ab6107e8899845ad3d59bd9653f200f220920489ca2b5937696c31836040516129239190613ba7565b60405180910390a3505050565b61293b848484612193565b61294784848484612ae6565b612986576040517f08c379a000000000000000000000000000000000000000000000000000000000815260040161297d90613c04565b60405180910390fd5b50505050565b6129a6828260405180602001604052806000815250612c7d565b5050565b6129b382611f88565b6129f2576040517f08c379a00000000000000000000000000000000000000000000000000000000081526004016129e990613da4565b60405180910390fd5b80600660008481526020019081526020016000209080519060200190612a199291906130df565b505050565b606060405180602001604052806000815250905090565b6060612a4082611f88565b612a7f576040517f08c379a0000000000000000000000000000000000000000000000000000000008152600401612a7690613e64565b60405180910390fd5b6000612a89612a1e565b90506000815111612aa95760405180602001604052806000815250612ad4565b80612ab384612cd8565b604051602001612ac4929190613ad8565b6040516020818303038152906040525b915050919050565b505050565b505050565b6000612b078473ffffffffffffffffffffffffffffffffffffffff16612e85565b15612c70578373ffffffffffffffffffffffffffffffffffffffff1663150b7a02612b30611ff4565b8786866040518563ffffffff1660e01b8152600401612b529493929190613b17565b602060405180830381600087803b158015612b6c57600080fd5b505af1925050508015612b9d57506040513d601f19601f82011682018060405250810190612b9a919061346d565b60015b612c20573d8060008114612bcd576040519150601f19603f3d011682016040523d82523d6000602084013e612bd2565b606091505b50600081511415612c18576040517f08c379a0000000000000000000000000000000000000000000000000000000008152600401612c0f90613c04565b60405180910390fd5b805181602001fd5b63150b7a0260e01b7bffffffffffffffffffffffffffffffffffffffffffffffffffffffff1916817bffffffffffffffffffffffffffffffffffffffffffffffffffffffff191614915050612c75565b600190505b949350505050565b612c878383612ea8565b612c946000848484612ae6565b612cd3576040517f08c379a0000000000000000000000000000000000000000000000000000000008152600401612cca90613c04565b60405180910390fd5b505050565b60606000821415612d20576040518060400160405280600181526020017f30000000000000000000000000000000000000000000000000000000000000008152509050612e80565b600082905060005b60008214612d52578080612d3b9061427d565b915050600a82612d4b9190614093565b9150612d28565b60008167ffffffffffffffff811115612d94577f4e487b7100000000000000000000000000000000000000000000000000000000600052604160045260246000fd5b6040519080825280601f01601f191660200182016040528015612dc65781602001600182028036833780820191505090505b5090505b60008514612e7957600182612ddf919061411e565b9150600a85612dee91906142c6565b6030612dfa919061403d565b60f81b818381518110612e36577f4e487b7100000000000000000000000000000000000000000000000000000000600052603260045260246000fd5b60200101907effffffffffffffffffffffffffffffffffffffffffffffffffffffffffffff1916908160001a905350600a85612e729190614093565b9450612dca565b8093505050505b919050565b6000808273ffffffffffffffffffffffffffffffffffffffff163b119050919050565b600073ffffffffffffffffffffffffffffffffffffffff168273ffffffffffffffffffffffffffffffffffffffff161415612f18576040517f08c379a0000000000000000000000000000000000000000000000000000000008152600401612f0f90613de4565b60405180910390fd5b612f2181611f88565b15612f61576040517f08c379a0000000000000000000000000000000000000000000000000000000008152600401612f5890613c64565b60405180910390fd5b612f6d60008383612adc565b6001600360008473ffffffffffffffffffffffffffffffffffffffff1673ffffffffffffffffffffffffffffffffffffffff1681526020019081526020016000206000828254612fbd919061403d565b92505081905550816002600083815260200190815260200160002060006101000a81548173ffffffffffffffffffffffffffffffffffffffff021916908373ffffffffffffffffffffffffffffffffffffffff160217905550808273ffffffffffffffffffffffffffffffffffffffff16600073ffffffffffffffffffffffffffffffffffffffff167fddf252ad1be2c89b69c2b068fc378daa952ba7f163c4a11628f55a4df523b3ef60405160405180910390a461307e60008383612ae1565b5050565b6040518060a001604052806000815260200160008152602001600073ffffffffffffffffffffffffffffffffffffffff168152602001600073ffffffffffffffffffffffffffffffffffffffff1681526020016000151581525090565b8280546130eb9061421a565b90600052602060002090601f01602090048101928261310d5760008555613154565b82601f1061312657805160ff1916838001178555613154565b82800160010185558215613154579182015b82811115613153578251825591602001919060010190613138565b5b5090506131619190613165565b5090565b5b8082111561317e576000816000905550600101613166565b5090565b600061319561319084613f57565b613f32565b9050828152602081018484840111156131ad57600080fd5b6131b88482856141d8565b509392505050565b6000813590506131cf816149ad565b92915050565b6000813590506131e4816149c4565b92915050565b6000813590506131f9816149db565b92915050565b60008151905061320e816149db565b92915050565b600082601f83011261322557600080fd5b8135613235848260208601613182565b91505092915050565b60008083601f84011261325057600080fd5b8235905067ffffffffffffffff81111561326957600080fd5b60208301915083600182028301111561328157600080fd5b9250929050565b600081359050613297816149f2565b92915050565b6000602082840312156132af57600080fd5b60006132bd848285016131c0565b91505092915050565b600080604083850312156132d957600080fd5b60006132e7858286016131c0565b92505060206132f8858286016131c0565b9150509250929050565b60008060006060848603121561331757600080fd5b6000613325868287016131c0565b9350506020613336868287016131c0565b925050604061334786828701613288565b9150509250925092565b6000806000806080858703121561336757600080fd5b6000613375878288016131c0565b9450506020613386878288016131c0565b935050604061339787828801613288565b925050606085013567ffffffffffffffff8111156133b457600080fd5b6133c087828801613214565b91505092959194509250565b600080604083850312156133df57600080fd5b60006133ed858286016131c0565b92505060206133fe858286016131d5565b9150509250929050565b6000806040838503121561341b57600080fd5b6000613429858286016131c0565b925050602061343a85828601613288565b9150509250929050565b60006020828403121561345657600080fd5b6000613464848285016131ea565b91505092915050565b60006020828403121561347f57600080fd5b600061348d848285016131ff565b91505092915050565b6000806000604084860312156134ab57600080fd5b600084013567ffffffffffffffff8111156134c557600080fd5b6134d18682870161323e565b935093505060206134e486828701613288565b9150509250925092565b60006020828403121561350057600080fd5b600061350e84828501613288565b91505092915050565b6000806040838503121561352a57600080fd5b600061353885828601613288565b925050602061354985828601613288565b9150509250929050565b600061355f8383613a52565b60a08301905092915050565b60006135778383613aba565b60208301905092915050565b61358c81614164565b82525050565b61359b81614164565b82525050565b6135aa81614152565b82525050565b60006135bb82613fa8565b6135c58185613fee565b93506135d083613f88565b8060005b838110156136015781516135e88882613553565b97506135f383613fd4565b9250506001810190506135d4565b5085935050505092915050565b600061361982613fb3565b6136238185613fff565b935061362e83613f98565b8060005b8381101561365f578151613646888261356b565b975061365183613fe1565b925050600181019050613632565b5085935050505092915050565b61367581614176565b82525050565b61368481614176565b82525050565b600061369582613fbe565b61369f8185614010565b93506136af8185602086016141e7565b6136b8816143b3565b840191505092915050565b60006136ce82613fc9565b6136d88185614021565b93506136e88185602086016141e7565b6136f1816143b3565b840191505092915050565b600061370782613fc9565b6137118185614032565b93506137218185602086016141e7565b80840191505092915050565b600061373a601d83614021565b9150613745826143c4565b602082019050919050565b600061375d603283614021565b9150613768826143ed565b604082019050919050565b6000613780602683614021565b915061378b8261443c565b604082019050919050565b60006137a3602583614021565b91506137ae8261448b565b604082019050919050565b60006137c6601c83614021565b91506137d1826144da565b602082019050919050565b60006137e9602483614021565b91506137f482614503565b604082019050919050565b600061380c601983614021565b915061381782614552565b602082019050919050565b600061382f601283614021565b915061383a8261457b565b602082019050919050565b6000613852602c83614021565b915061385d826145a4565b604082019050919050565b6000613875602483614021565b9150613880826145f3565b604082019050919050565b6000613898601b83614021565b91506138a382614642565b602082019050919050565b60006138bb603883614021565b91506138c68261466b565b604082019050919050565b60006138de602a83614021565b91506138e9826146ba565b604082019050919050565b6000613901602983614021565b915061390c82614709565b604082019050919050565b6000613924602e83614021565b915061392f82614758565b604082019050919050565b6000613947601383614021565b9150613952826147a7565b602082019050919050565b600061396a602083614021565b9150613975826147d0565b602082019050919050565b600061398d603183614021565b9150613998826147f9565b604082019050919050565b60006139b0602c83614021565b91506139bb82614848565b604082019050919050565b60006139d3602083614021565b91506139de82614897565b602082019050919050565b60006139f6602f83614021565b9150613a01826148c0565b604082019050919050565b6000613a19602183614021565b9150613a248261490f565b604082019050919050565b6000613a3c603183614021565b9150613a478261495e565b604082019050919050565b60a082016000820151613a686000850182613aba565b506020820151613a7b6020850182613aba565b506040820151613a8e6040850182613583565b506060820151613aa16060850182613583565b506080820151613ab4608085018261366c565b50505050565b613ac3816141ce565b82525050565b613ad2816141ce565b82525050565b6000613ae482856136fc565b9150613af082846136fc565b91508190509392505050565b6000602082019050613b1160008301846135a1565b92915050565b6000608082019050613b2c60008301876135a1565b613b3960208301866135a1565b613b466040830185613ac9565b8181036060830152613b58818461368a565b905095945050505050565b60006020820190508181036000830152613b7d81846135b0565b905092915050565b60006020820190508181036000830152613b9f818461360e565b905092915050565b6000602082019050613bbc600083018461367b565b92915050565b60006020820190508181036000830152613bdc81846136c3565b905092915050565b60006020820190508181036000830152613bfd8161372d565b9050919050565b60006020820190508181036000830152613c1d81613750565b9050919050565b60006020820190508181036000830152613c3d81613773565b9050919050565b60006020820190508181036000830152613c5d81613796565b9050919050565b60006020820190508181036000830152613c7d816137b9565b9050919050565b60006020820190508181036000830152613c9d816137dc565b9050919050565b60006020820190508181036000830152613cbd816137ff565b9050919050565b60006020820190508181036000830152613cdd81613822565b9050919050565b60006020820190508181036000830152613cfd81613845565b9050919050565b60006020820190508181036000830152613d1d81613868565b9050919050565b60006020820190508181036000830152613d3d8161388b565b9050919050565b60006020820190508181036000830152613d5d816138ae565b9050919050565b60006020820190508181036000830152613d7d816138d1565b9050919050565b60006020820190508181036000830152613d9d816138f4565b9050919050565b60006020820190508181036000830152613dbd81613917565b9050919050565b60006020820190508181036000830152613ddd8161393a565b9050919050565b60006020820190508181036000830152613dfd8161395d565b9050919050565b60006020820190508181036000830152613e1d81613980565b9050919050565b60006020820190508181036000830152613e3d816139a3565b9050919050565b60006020820190508181036000830152613e5d816139c6565b9050919050565b60006020820190508181036000830152613e7d816139e9565b9050919050565b60006020820190508181036000830152613e9d81613a0c565b9050919050565b60006020820190508181036000830152613ebd81613a2f565b9050919050565b6000602082019050613ed96000830184613ac9565b92915050565b600060a082019050613ef46000830188613ac9565b613f016020830187613ac9565b613f0e6040830186613592565b613f1b6060830185613592565b613f28608083018461367b565b9695505050505050565b6000613f3c613f4d565b9050613f48828261424c565b919050565b6000604051905090565b600067ffffffffffffffff821115613f7257613f71614384565b5b613f7b826143b3565b9050602081019050919050565b6000819050602082019050919050565b6000819050602082019050919050565b600081519050919050565b600081519050919050565b600081519050919050565b600081519050919050565b6000602082019050919050565b6000602082019050919050565b600082825260208201905092915050565b600082825260208201905092915050565b600082825260208201905092915050565b600082825260208201905092915050565b600081905092915050565b6000614048826141ce565b9150614053836141ce565b9250827fffffffffffffffffffffffffffffffffffffffffffffffffffffffffffffffff03821115614088576140876142f7565b5b828201905092915050565b600061409e826141ce565b91506140a9836141ce565b9250826140b9576140b8614326565b5b828204905092915050565b60006140cf826141ce565b91506140da836141ce565b9250817fffffffffffffffffffffffffffffffffffffffffffffffffffffffffffffffff0483118215151615614113576141126142f7565b5b828202905092915050565b6000614129826141ce565b9150614134836141ce565b925082821015614147576141466142f7565b5b828203905092915050565b600061415d826141ae565b9050919050565b600061416f826141ae565b9050919050565b60008115159050919050565b60007fffffffff0000000000000000000000000000000000000000000000000000000082169050919050565b600073ffffffffffffffffffffffffffffffffffffffff82169050919050565b6000819050919050565b82818337600083830152505050565b60005b838110156142055780820151818401526020810190506141ea565b83811115614214576000848401525b50505050565b6000600282049050600182168061423257607f821691505b6020821081141561424657614245614355565b5b50919050565b614255826143b3565b810181811067ffffffffffffffff8211171561427457614273614384565b5b80604052505050565b6000614288826141ce565b91507fffffffffffffffffffffffffffffffffffffffffffffffffffffffffffffffff8214156142bb576142ba6142f7565b5b600182019050919050565b60006142d1826141ce565b91506142dc836141ce565b9250826142ec576142eb614326565b5b828206905092915050565b7f4e487b7100000000000000000000000000000000000000000000000000000000600052601160045260246000fd5b7f4e487b7100000000000000000000000000000000000000000000000000000000600052601260045260246000fd5b7f4e487b7100000000000000000000000000000000000000000000000000000000600052602260045260246000fd5b7f4e487b7100000000000000000000000000000000000000000000000000000000600052604160045260246000fd5b6000601f19601f8301169050919050565b7f66756e6473206e6f7420656e6f75676820666f72207075726368617365000000600082015250565b7f4552433732313a207472616e7366657220746f206e6f6e20455243373231526560008201527f63656976657220696d706c656d656e7465720000000000000000000000000000602082015250565b7f4f776e61626c653a206e6577206f776e657220697320746865207a65726f206160008201527f6464726573730000000000000000000000000000000000000000000000000000602082015250565b7f4552433732313a207472616e736665722066726f6d20696e636f72726563742060008201527f6f776e6572000000000000000000000000000000000000000000000000000000602082015250565b7f4552433732313a20746f6b656e20616c7265616479206d696e74656400000000600082015250565b7f4552433732313a207472616e7366657220746f20746865207a65726f2061646460008201527f7265737300000000000000000000000000000000000000000000000000000000602082015250565b7f4552433732313a20617070726f766520746f2063616c6c657200000000000000600082015250565b7f696e73756666696369656e7420636f696e730000000000000000000000000000600082015250565b7f4552433732313a206f70657261746f7220717565727920666f72206e6f6e657860008201527f697374656e7420746f6b656e0000000000000000000000000000000000000000602082015250565b7f4f70657261746f7220717565727920666f72206e6f6e6578697374656e74207460008201527f6f6b656e00000000000000000000000000000000000000000000000000000000602082015250565b7f73656c6c65722063616e6e6f7420627579206f776e20746f6b656e0000000000600082015250565b7f4552433732313a20617070726f76652063616c6c6572206973206e6f74206f7760008201527f6e6572206e6f7220617070726f76656420666f7220616c6c0000000000000000602082015250565b7f4552433732313a2062616c616e636520717565727920666f7220746865207a6560008201527f726f206164647265737300000000000000000000000000000000000000000000602082015250565b7f4552433732313a206f776e657220717565727920666f72206e6f6e657869737460008201527f656e7420746f6b656e0000000000000000000000000000000000000000000000602082015250565b7f45524337323155524953746f726167653a2055524920736574206f66206e6f6e60008201527f6578697374656e7420746f6b656e000000000000000000000000000000000000602082015250565b7f746f6b656e2076616c756520746f6f206c6f7700000000000000000000000000600082015250565b7f4552433732313a206d696e7420746f20746865207a65726f2061646472657373600082015250565b7f45524337323155524953746f726167653a2055524920717565727920666f722060008201527f6e6f6e6578697374656e7420746f6b656e000000000000000000000000000000602082015250565b7f4552433732313a20617070726f76656420717565727920666f72206e6f6e657860008201527f697374656e7420746f6b656e0000000000000000000000000000000000000000602082015250565b7f4f776e61626c653a2063616c6c6572206973206e6f7420746865206f776e6572600082015250565b7f4552433732314d657461646174613a2055524920717565727920666f72206e6f60008201527f6e6578697374656e7420746f6b656e0000000000000000000000000000000000602082015250565b7f4552433732313a20617070726f76616c20746f2063757272656e74206f776e6560008201527f7200000000000000000000000000000000000000000000000000000000000000602082015250565b7f4552433732313a207472616e736665722063616c6c6572206973206e6f74206f60008201527f776e6572206e6f7220617070726f766564000000000000000000000000000000602082015250565b6149b681614152565b81146149c157600080fd5b50565b6149cd81614176565b81146149d857600080fd5b50565b6149e481614182565b81146149ef57600080fd5b50565b6149fb816141ce565b8114614a0657600080fd5b5056fea2646970667358221220f32d252e5875f1f5f9ca767578d1d066c05611ad477873a474e3c95b18bfb3d364736f6c63430008040033",
  "linkReferences": {},
  "deployedLinkReferences": {}
}